S01600004279676765726E5F736F757263652E7372656350
S11300000C9438000C9455000C9467000C94550023
S11300100C9455000C9455000C9455000C94550008
S11300200C9455000C9455000C9455000C945500F8
S11300300C9455000C9455000C9455000C945500E8
S11300400C9455000C9455000C9455000C945500D8
S11300500C9455000C9455000C9455000C945500C8
S11300600C9455000C9455000C9455000C945500B8
S113007011241FBECFEFD4E0DEBFCDBF11E0A0E05E
S1130080B1E0E6ECFBE002C005900D92A037B107A9
S1130090D9F721E0A0E7B1E001C01D92AB37B20768
S11300A0E1F70E948A000C94E1050C94000083E4BB
S11300B080938B0081E180938A0082E090E09093AA
S11300C087008093860081B3806181BB08951F926D
S11300D00F920FB60F9211248F93EF93FF93E09139
S11300E00601F0910701808180937001FF91EF91E7
S11300F08F910F900FBE0F901F901895E0910601FD
S1130100F091070180810895E0910601F0910701C3
S1130110108208958FE190E00E945F016FE671E024
S113012089E691E00E94740180E090E00E9457000B
S11301300E94000180E885BF82E00E94840089EF6C
S113014090E00197F1F700C00000829B03C011E02A
S113015000E002C010E000E0839B03C0C1E0D0E0F7
S113016002C0C0E0D0E00E947E001F928F938CE01A
S113017091E09F938F930E94BF010E947E001F9283
S11301808F9388E191E09F938F930E94BF010E9417
S11301907E001F928F9384E291E09F938F930E943D
S11301A0BF010E947E001F928F9387E391E09F938B
S11301B08F930E94BF010F931F938BE491E09F9351
S11301C08F930E94BF01DF93CF938EE591E09F93BD
S11301D08F930E94BF0189EF90E00197F1F700C06F
S11301E000008DB79EB748960FB6F8949EBF0FBE19
S11301F08DBFA2CFE0910A01F0910B018083089595
S11302008EEA90E00E94FA0081EA90E00E94FA00EF
S11302108AED90E00E94FA0082E190E00E94FA00E8
S113022088EC90E00E94FA0088EA90E00E94FA00CC
S11302308FE390E00E94FA0085ED90E00E94FA00BE
S113024080E890E00E94FA0081E890E00E94FA00C1
S113025080E590E00E94FA0089ED90E00E94FA00A7
S113026081E290E00E94FA0080E290E00E94FA00AD
S113027082E090E00E94FA008BED90E00E94FA0088
S113028080E390E00E94FA008DEA90E00E94FA0078
S113029080E090E00E94FA0084EA90E00E94FA0074
S11302A086EA90E00E94FA0085EA90E00E94FA0053
S11302B0E0910801F091090183E5808308952BB151
S11302C02D7F2BB990BD89B988E18AB98EE880BDAC
S11302D008955D9BFECF8CB980E090E008955D9B0E
S11302E0FECF8CB190E008950F931F93CF93DF93CB
S11302F0009731F46115710519F480E090E03AC07B
S11303008B01EC016EE070E081E090E00E94B603A6
S1130310FC01892B91F380E883830115110571F0A9
S11303201387028781E88383809171019091720120
S1130330892B21F4F0937201E09371012097C9F0A5
S1130340D187C08783818260838380917301909178
S11303507401892B71F4F0937401E093730180911B
S1130360750190917601892B21F4F0937601E09345
S11303707501CF01DF91CF911F910F910895A0E0F6
S1130380B0E0E5ECF1E00C94BA05AE014B5F5F4FD1
S1130390FA0161917191AF0180917301909174019F
S11303A00E94D501E2E00C94D605ABE0B0E0EBEDA1
S11303B0F1E00C94AA056C017B018A01FC0117820F
S11303C01682838181FFCCC1CE0101963C01F601E6
S11303D09381F70193FD859193FF81917F01882398
S11303E009F4BAC1853239F493FD859193FF819163
S11303F07F01853229F4B60190E00E941005E7CF11
S1130400912C212C312CFFE1F315D8F08B3279F0AB
S113041038F4803279F08332A1F4232D20611DC099
S11304208D3261F0803369F4232D216016C0832D51
S11304308260382EE32DE4603E2E2AC0F32DF8604E
S11304401DC037FC2DC020ED280F2A3040F08E321D
S1130450B9F436FC81C1232D2064322E19C036FE36
S113046006C08AE0989E200D1124922E11C0EAE065
S11304702E9E200D1124222EF32DF0623F2E08C053
S11304808C3621F4832D8068382E02C0883641F4DE
S1130490F70193FD859193FF81917F018111B3CF82
S11304A0982F9F7D9554933028F40C5F1F4F9FE342
S11304B099830DC0833631F0833771F0833509F0A9
S11304C059C021C0F801808189830E5F1F4F8824A1
S11304D08394912C530113C02801F2E04F0E511C58
S11304E0F801A080B18036FE03C0692D70E002C01F
S11304F06FEF7FEFC5010E9405054C018201F32DCA
S1130500FF773F2E16C0280122E0420E511CF8014D
S1130510A080B18036FE03C0692D70E002C06FEF89
S11305207FEFC5010E94F3044C01F32DF0683F2EC8
S1130530820133FC1BC0822D90E088169906B0F42A
S1130540B60180E290E00E9410052A94F4CFF501F0
S113055037FC859137FE81915F01B60190E00E94DE
S1130560100521102A9421E0821A91088114910423
S113057071F7E8C0843611F0893641F5F80137FE89
S113058007C060817181828193810C5F1F4F08C015
S113059060817181072E000C880B990B0E5F1F4F31
S11305A0F32DFF763F2E97FF09C0909580957095A7
S11305B061957F4F8F4F9F4FF0683F2E2AE030E0C8
S11305C0A3010E944C05882E861845C0853731F456
S11305D0232D2F7EB22E2AE030E025C0932D997F63
S11305E0B92E8F36C1F018F4883579F0B5C080374C
S11305F019F0883721F0B0C0E92FE061BE2EB4FEB7
S11306000DC0FB2DF460BF2E09C034FE0AC0292F93
S11306102660B22E06C028E030E005C020E130E0BC
S113062002C020E132E0F801B7FE07C060817181A9
S1130630828193810C5F1F4F06C06081718180E0CD
S113064090E00E5F1F4FA3010E944C05882E861870
S1130650FB2DFF773F2E36FE0DC0232D2E7FA22EBD
S1130660891458F434FE0BC032FC09C0832D8E7EED
S1130670A82E05C0B82CA32C03C0B82C01C0B92CDB
S1130680A4FE0FC0FE01E80DF11D8081803321F42A
S11306909A2D997EA92E09C0A2FE06C0B394B394E4
S11306A004C08A2D867809F0B394A3FC11C0A0FE7F
S11306B006C0B21488F4280C922C9B180EC0B214F5
S11306C060F4B60180E290E00E941005B394F7CF85
S11306D0B21418F42B1802C0982C212CA4FE10C0BC
S11306E0B60180E390E00E941005A2FE17C0A1FCB1
S11306F003C088E790E002C088E590E0B6010CC032
S11307008A2D867859F0A1FE02C08BE201C080E2F6
S1130710A7FC8DE2B60190E00E941005891438F41C
S1130720B60180E390E00E9410059A94F7CF8A9472
S1130730F301E80DF11D8081B60190E00E941005DF
S11307408110F5CF222009F442CEB60180E290E078
S11307500E9410052A94F6CFF6018681978102C083
S11307608FEF9FEF2B96E2E10C94C6050F931F9336
S1130770CF93DF93869F8001879F100D969F100D66
S11307801124C8010E94D203EC01009729F0A801AA
S113079060E070E00E94FE04CE01DF91CF911F91D2
S11307A00F9108950F931F93CF93DF938230910598
S11307B010F482E090E0E0917901F0917A0120E078
S11307C030E0A0E0B0E0309719F14081518102811E
S11307D0138148175907C8F08417950769F41097CF
S11307E031F012960C93129713961C9327C0009322
S11307F0790110937A0122C02115310519F04217AD
S1130800530718F49A01BD01EF01DF01F801DBCFB2
S113081021153105F9F0281B390B2430310580F4FA
S11308208A819B816115710521F0FB019383828389
S113083004C090937A0180937901FE01329644C0FA
S1130840FE01E20FF31F8193919322503109398302
S113085028833AC02091770130917801232B41F409
S113086020910201309103013093780120937701A4
S113087020910001309101012115310541F42DB77A
S11308803EB74091040150910501241B350BE091C2
S11308907701F0917801E217F307A0F42E1B3F0BC8
S11308A02817390778F0AC014E5F5F4F24173507DE
S11308B048F04E0F5F1F5093780140937701819366
S11308C0919302C0E0E0F0E0CF01DF91CF911F915E
S11308D00F910895CF93DF93009709F481C0FC0131
S11308E0329713821282A0917901B0917A01109704
S11308F081F420813181820F931F209177013091FF
S113090078012817390751F5F0937801E0937701BE
S113091067C0ED0120E030E0CE17DF0740F44A81E4
S11309205B819E0141155105F1F0EA01F5CFD383B6
S1130930C28340815181840F951FC817D90759F488
S113094088819981840F951F0296918380838A817F
S11309509B81938382832115310529F4F0937A01D5
S1130960E09379013DC0E901FB83EA834991599100
S1130970C40FD51FEC17FD0761F480819181840FAA
S1130980951F0296E90199838883828193819B83D1
S11309908A83E0E0F0E012968D919C911397009782
S11309A019F0FD01DC01F7CF8D919C9111979D0108
S11309B02E5F3F4F820F931F209177013091780172
S11309C02817390769F4309729F410927A011092A4
S11309D0790102C013821282B0937801A093770147
S11309E0DF91CF910895FC01059061507040011092
S11309F0D8F7809590958E0F9F1F0895DC0101C054
S1130A006D9341505040E0F70895FC0161507040EF
S1130A1001900110D8F7809590958E0F9F1F08952F
S1130A200F931F93CF93DF93FB01238121FD03C019
S1130A308FEF9FEF2CC022FF16C04681578124817F
S1130A4035814217530744F4A081B1819D012F5F82
S1130A503F4F318320838C93268137812F5F3F4F13
S1130A603783268314C08B01EC01FB010084F185DC
S1130A70E02D0995892BE1F6D80116968D919C916C
S1130A801797019617969C938E931697CE01DF9134
S1130A90CF911F910F910895FA01AA27283051F19F
S1130AA0203181F1E8946F936E7F6E5F7F4F8F4F9B
S1130AB09F4FAF4FB1E03ED0B4E03CD0670F781FFA
S1130AC0891F9A1FA11D680F791F8A1F911DA11DDF
S1130AD06A0F711D811D911DA11D20D009F4689418
S1130AE03F912AE0269F11243019305D3193DEF6C0
S1130AF0CF010895462F4770405D4193B3E00FD076
S1130B00C9F7F6CF462F4F70405D4A3318F0495D60
S1130B1031FD4052419302D0A9F7EACFB4E0A69543
S1130B209795879577956795BA95C9F70097610565
S1130B30710508959B01AC010A2E069457954795BB
S1130B4037952795BA95C9F7620F731F841F951FB0
S1130B50A01D08952F923F924F925F926F927F92C1
S1130B608F929F92AF92BF92CF92DF92EF92FF92B9
S1130B700F931F93CF93DF93CDB7DEB7CA1BDB0B65
S1130B800FB6F894DEBF0FBECDBF09942A8839880A
S1130B9048885F846E847D848C849B84AA84B98411
S1130BA0C884DF80EE80FD800C811B81AA81B9811D
S1130BB0CE0FD11D0FB6F894DEBF0FBECDBFED0131
S1090BC00895F894FFCF34
S1130BC600007B0120000014001200104A6F7920F7
S1130BD6593A2025642C09004A6F7920583A202571
S1130BE6642C0900526967687420536C69646572E1
S1130BF63A2025642C09004C65667420536C69649C
S1130C0665723A2025642C202009005269676874AD
S1130C1620627574746F6E3A2025642C09004C6545
S1130C26667420427574746F6E3A2025640A0D004A
S9030000FC
