S01600004279676765726E5F736F757263652E7372656350
S11300000C94D0010C943F050C9428050C94ED013C
S11300100C94ED010C94ED010C94ED010C94ED01A4
S11300200C94ED010C94ED010C94ED010C94ED0194
S11300300C94ED010C94ED010C94ED010C94EF0182
S11300400C94ED010C94ED010C94ED010C94ED0174
S11300500C94ED010C94ED010C94ED010C94ED0164
S11300600C94ED010C94ED010C94ED010C94ED0154
S113007046084D0854085B0862086908700840097E
S113008047094E0955095C0963096A093A0A410A94
S1130090480A4F0A560A5D0A640A4A0B6F0B890B19
S11300A0A20BA90BB00BB70B00000000000000006E
S11300B000065F5F06000000000707000707000056
S11300C0147F7F147F7F1400242E6B6B3A12000080
S11300D0466630180C666200307A4F5D377A480005
S11300E00407030000000000001C3E634100000000
S11300F00041633E1C000000082A3E1C1C3E2A08E6
S113010008083E3E0808000000A0E060000000006F
S113011008080808080800000000606000000000EB
S11301206030180C060301003E7F594D7F3E0000ED
S113013042427F7F40400000627359496F6600006D
S1130140226349497F360000181C16137F7F100074
S1130150276745457D3900003C7E4B4979300000D6
S1130160036371190F070000367F49497F36000089
S1130170064F49693F1E000000006C6C000000003F
S113018000A0EC6C00000000081C36634100000075
S11301901414141414140000004163361C080000E5
S11301A0020351590F0600003E7F415D5D1F1E0092
S11301B07C7E13137E7C0000417F7F49497F36009B
S11301C01C3E634141632200417F7F41637F1C00E9
S11301D0417F7F495D416300417F7F491D010300E9
S11301E01C3E6341517372007F7F08087F7F0000CB
S11301F000417F7F41000000307040417F3F01009B
S1130200417F7F081C776300417F7F41406070001D
S11302107F7F060C067F7F007F7F060C187F7F00A0
S11302201C3E6341633E1C00417F7F49090F060069
S11302301E3F21717F5E0000417F7F19396F4600A8
S113024026674D597B32000003417F7F4103000044
S11302507F7F40407F7F00001F3F60603F1F0000A2
S11302607F7F3018307F7F0063771C081C77630022
S1130270074F78784F0700006773594D4763710043
S1130280007F7F41410000000103060C183060002C
S11302900041417F7F000000080C0603060C0800A3
S11302A0808080808080808000000307040000003C
S11302B0207454543C784000413F7F44447C3800CF
S11302C0387C44446C280000307848493F7F400023
S11302D0387C54545C180000487E7F4903020000B7
S11302E098BCA4A4F87C0400417F7F08047C7800B7
S11302F000447D7D4000000040C484FD7D0000007A
S1130300417F7F10386C440000417F7F4000000033
S11303107C7C0C180C7C78007C7C04047C780000C9
S1130320387C44447C38000084FCF8A4243C180045
S1130330183C24A4F8FC8400447C78441C18000075
S1130340485C54547424000000043E7F442400009C
S11303503C7C40403C7C40001C3C60603C1C0000F9
S11303603C7C6030607C3C00446C3810386C440049
S11303709CBCA0A0FC7C00004C64745C4C64000039
S113038008083E7741410000000000777700000034
S11303904141773E08080000020301030203010003
S11303A011241FBECFEFD4E0DEBFCDBF12E0A0E02A
S11303B0B1E0E0E9F5E202C005900D92A83DB10775
S11303C0D9F723E0A8EDB2E001C01D92A832B2072C
S11303D0E1F70E94C7050C94C6120C9400001F920A
S11303E00F920FB60F9211242F933F934F935F9365
S11303F06F937F938F939F93AF93BF93CF93DF9329
S1130400EF93FF93E0910601F0910701108289EFC9
S113041090E00197F1F700C00000E0910601F0912F
S11304200701808190E09093F6028093F502808129
S113043090E09093170380931603808190E090934B
S1130440E4028093E302808190E09093F20280932F
S1130450F10280B382FB662760F970E070931003A9
S113046060930F0380B383FB442740F950E050931B
S1130470F8024093F70280B382958695877091E0E5
S11304808927282F217030E0309319032093180313
S11304908091F5029091F602C091E902D091EA02AE
S11304A08C179D0754F56091F5027091F602072EA2
S11304B0000C880B990B0E94020D209107033091C8
S11304C008034091090350910A030E948E0D20E015
S11304D030E048EC52E40E94580C2091E50230913F
S11304E0E6024091E7025091E8020E94EC0B0E9460
S11304F0CA0C7093F4026093F3028091F502909118
S1130500F6028C179D0754F16091F5027091F60282
S1130510072E000C880B990B0E94020D2091FD02FE
S11305203091FE024091FF02509100030E948E0D13
S113053020E030E048EC52E40E94580C2091ED0297
S11305403091EE024091EF025091F0020E94EC0BC8
S11305500E94CA0C7093F4026093F3028091160314
S113056090911703C0910503D09106038C179D0742
S113057054F56091160370911703072E000C880B35
S1130580990B0E94020D20910B0330910C034091B2
S11305900D0350910E030E948E0D20E030E048ECD4
S11305A052E40E94580C20910103309102034091BF
S11305B00303509104030E94EC0B0E94CA0C709335
S11305C0EC026093EB0280911603909117038C1751
S11305D09D0754F16091160370911703072E000CC8
S11305E0880B990B0E94020D209112033091130382
S11305F040911403509115030E948E0D20E030E0C9
S113060048EC52E40E94580C2091F9023091FA020D
S11306104091FB025091FC020E94EC0B0E94CA0C18
S11306207093EC026093EB028091EB029091EC02E8
S11306308C3F9F4F54F08091EB029091EC02059710
S113064024F41092EC021092EB028091F302909148
S1130650F4028C3F9F4F54F08091F3029091F40286
S1130660059724F41092F4021092F302FF91EF9193
S1130670DF91CF91BF91AF919F918F917F916F91B6
S11306805F914F913F912F910F900FBE0F901F904C
S113069018956F927F928F929F92AF92BF92CF9252
S11306A0DF92EF92FF920F931F93CF93DF9383E434
S11306B080938B0081E180938A0082E090E09093A4
S11306C087008093860081B3806181BB2FE38DE036
S11306D093E0215080409040E1F700C0000020E00A
S11306E030E0C0E0D0E030C0E0910601F0910701B5
S11306F0108289EF90E00197F1F700C00000E091CB
S11307000601F091070140818091D8029091D902AD
S1130710840F911D9093D9028093D80240818091D7
S1130720DA029091DB02840F911D9093DB02809397
S1130730DA028081808189EF90E00197F1F700C0AF
S1130740000021962F5F3F4F243631056CF28091D3
S1130750D8029091D902BE010E94FB0D262F372F9B
S113076060930503709306038091DA029091DB0293
S1130770BE010E94FB0D6093E9027093EA027F932D
S11307806F933F932F938EE191E09F938F930E94F9
S1130790740E009105031091060366246A94712C6B
S11307A07301E01AF10AC0E1D7E2CE01B7010E9459
S11307B0FB0D072E000C880B990B0E94020D4B01B8
S11307C05C0160931203709313038093140390935A
S11307D015032CE920036001219FD00C1124C601CC
S11307E0B7010E94FB0D7B01072E000C880B990BAF
S11307F00E94020D6093F9027093FA028093FB0247
S11308009093FC02CE01B8010E94FB0D072E000C50
S1130810880B990B0E94020D60930B0370930C03D9
S113082080930D0390930E03C601B8010E94FB0D43
S1130830072E000C880B990B0E94020D6093010394
S11308407093020380930303909304030091E902DD
S11308501091EA02601A710ACE01B3010E94FB0DE5
S1130860072E000C880B990B0E94020D6093FD0269
S11308707093FE028093FF02909300032CE92003FF
S11308806001219FD00C1124C601B3010E94FB0D0D
S1130890072E000C880B990B0E94020D6093ED0249
S11308A07093EE028093EF029093F002CE01B801B0
S11308B00E94FB0D072E000C880B990B0E94020D61
S11308C060930703709308038093090390930A03CA
S11308D0C601B8010E94FB0D072E000C880B990B72
S11308E00E94020D6093E5027093E6028093E70292
S11308F09093E80220E030E04AE754E4C501B401F3
S11309000E948E0DFF92EF920E94CA0C7F936F9308
S11309108AE291E09F938F930E94740E20E030E06E
S11309204AE754E460910B0370910C0380910D032A
S113093090910E030E948E0D6B017C016091010366
S11309407091020380910303909104030E94CA0CE6
S11309507F936F93C701B6010E94CA0C7F936F9374
S11309608DE391E09F938F930E94740E20E030E01A
S11309704AE754E46091FD027091FE028091FF0207
S1130980909100030E948E0D6B017C016091ED0239
S11309907091EE028091EF029091F0020E94CA0CD5
S11309A07F936F93C701B6010E94CA0C7F936F9324
S11309B080E591E09F938F930E94740E20E030E0D5
S11309C04AE754E460910703709108038091090396
S11309D090910A030E948E0D6B017C016091E502E7
S11309E07091E6028091E7029091E8020E94CA0C9D
S11309F07F936F93C701B6010E94CA0C7F936F93D4
S1130A0083E691E09F938F930E94740E1FBC82E053
S1130A108EBD80E889BF7894E0910601F0910701CA
S1130A2010828DB79EB74E960FB6F8949EBF0FBE38
S1130A308DBFDF91CF911F910F91FF90EF90DF90C9
S1130A40CF90BF90AF909F908F907F906F900895BC
S1130A501F920F920FB60F9211248F93EF93FF936F
S1130A60E0910601F0910701808180931103FF91C9
S1130A70EF918F910F900FBE0F901F9018951F92BA
S1130A800F920FB60F9211248F9381E08093DC02B2
S1130A908F910F900FBE0F901F90189518BA08955C
S1130AA080E188BB0895CF93C82F0E944E0583E050
S1130AB00E94CD0B8C2F0E94CD0B0E94D10BC82F0E
S1130AC00E9450058C2FCF910895CF93DF93D82F98
S1130AD0C62F0E944E0582E00E94CD0B8D2F0E94EE
S1130AE0CD0B8C2F0E94CD0B0E945005DF91CF912E
S1130AF008950E944E0580EC0E94CD0B0E94500583
S1130B0083EC99E00197F1F700C000000895CF93BA
S1130B100E94C50B0E9479058EE00E945305807ED9
S1130B20803861F01F928F9386E791E09F938F93B3
S1130B300E94740E0F900F900F900F9060E48FE05E
S1130B400E9465058EE00E945305C82F1F928F9363
S1130B508CEB91E09F938F930E94740EC07E0F9054
S1130B600F900F900F90C03481F01F92CF9381ECBF
S1130B7091E09F938F930E94740E86E092E00E940E
S1130B808A0E0F900F900F900F90CF91089580E8E8
S1130B9085BF8FE190E00E94D60B66EE7BE080EE8D
S1130BA09BE00E94290E80E090E00E9449030E948D
S1130BB04A060E943D0780E490E00E9487058091E8
S1130BC0F3029091F4029F938F9389E092E09F93B4
S1130BD08F930E94740E8091EB029091EC029F938C
S1130BE08F9385E192E09F938F930E94740E80917E
S1130BF0F1029091F2029F938F9381E292E09F938E
S1130C008F930E94740E8091E3029091E4029F936B
S1130C108F9385E392E09F938F930E94740E80914B
S1130C20F7029091F8029F938F9388E492E09F9348
S1130C308F930E94740E80910F03909110039F93E1
S1130C408F938BE592E09F938F930E94740E809113
S1130C501803909119039F938F938EE692E09F93CC
S1130C608F930E94740E0E94880A8DB79EB74C968B
S1130C700FB6F8949EBF0FBE8DBF9DCFE0911A01B1
S1130C80F0911B0180830895E0911801F0911901FE
S1130C90808308958EEA0E943E0681EA0E943E0601
S1130CA08AED0E943E0682E10E943E0688EC0E9484
S1130CB03E0688EA0E943E068FE30E943E0685EDCA
S1130CC00E943E0680E80E943E0681E80E943E069D
S1130CD080E50E943E0689ED0E943E0681E20E9464
S1130CE03E0680E20E943E0682E00E943E068BEDB4
S1130CF00E943E0680E30E943E068DEA0E943E0664
S1130D0080E00E943E0684EA0E943E0686EA0E9433
S1130D103E068FEA0E943E06089580911B038823B5
S1130D205CF4EAE1F3E08058818380818F5F808303
S1130D30883010F010921A0308951F93CF93DF9315
S1130D4010EE180FC0E0D0E01CC0E12FF0E0EE0F71
S1130D50FF1FEE0FFF1FEE0FFF1FEC0FFD1FE855E7
S1130D60FF4F859194910E944406809116019091C1
S1130D701701EAE1F3E09181890F81830E948D06D6
S1130D8021968091160190911701C817D907ECF2AA
S1130D9080E090E0DF91CF911F910895CF93C82F09
S1130DA080E20E943E068C2F0E943E06CF91089559
S1130DB0CF93C82F883078F480931A0382E090E0B0
S1130DC00E94CE0680EB8C0F0E943E0680E090E0ED
S1130DD00E94CE0606C08FE792E00E948A0E80E051
S1130DE090E0CF910895CF93DF93C82F8823B4F078
S1130DF080931B0382E090E00E94CE06DC2FD29504
S1130E00DF708C2F8F700E943E0680E18D0F0E9450
S1130E103E0680E090E00E94CE0606C082E992E0A1
S1130E200E948A0E80E090E0DF91CF910895CF93E5
S1130E30C62F0E94D8068C2F0E94F306CF910895E6
S1130E4060E070E080E090E00E9417070895CF937F
S1130E50DF93D82F60E070E090E00E941707C0E0B5
S1130E6004C080E00E944406CF5FCC23D4F78D2FCA
S1130E700E94D806DF91CF910895CF93C0E005C0BA
S1130E808C2F90E00E942707CF5FC830C8F30E94E0
S1130E902007CF910895CF93DF93D0E00FC060E097
S1130EA070E08D2F90E00E941707C0E004C080E03E
S1130EB00E944406CF5FC830D0F3DF5FD83078F3A8
S1130EC0DF91CF9108950E94170788E10E9444069C
S1130ED088E10E9444068EE70E9444068CE30E9447
S1130EE0440688E10E9444060895CF93DF93CDB76A
S1130EF0DEB7AE014B5F5F4FFA0161917191AF01B3
S1130F0088E091E00E94BA0EDF91CF910895FC0130
S1130F1001900020E9F73197E81BF90B8091160145
S1130F20909117018E9F90018F9F300D9E9F300DE1
S1130F3011243695279580E4821B0E94F3060895B8
S1130F408091180390911903892B21F41092DE02E9
S1130F501092DD020E94200787EA92E00E94870730
S1130F6087EA92E09F938F930E94750769E087E078
S1130F700E9417078CEA92E09F938F930E94750753
S1130F808091F5029091F6020F900F900F900F90C0
S1130F90883C9105DCF48091DF029091E002019796
S1130FA031F08091E1029091E202019779F480910D
S1130FB0F5029091F6028536910544F01092E00214
S1130FC01092DF021092E2021092E1028091F50287
S1130FD09091F602883C91051CF18091E102909178
S1130FE0E202892BE9F480911C0390911D0301977F
S1130FF090931D0380931C0381E090E09093E202A0
S11310008093E1020E944B0780911C0390911D0381
S1131010892B31F487E090E090931D0380931C03A7
S11310208091F5029091F602853691051CF5809128
S1131030DF029091E002892BE9F480911C039091E6
S11310401D03019690931D0380931C0381E090E09F
S11310509093E0028093DF020E944B0780911C036F
S113106090911D03089731F481E090E090931D0363
S113107080931C03E0911C03F0911D033197E7302A
S1131080F105A0F5E85CFF4F0C940F0E81E090E0B1
S113109090931D0180931C0129C082E090E09093FD
S11310A01D0180931C0122C083E090E090931D01F8
S11310B080931C011BC084E090E090931D018093F9
S11310C01C0114C085E090E090931D0180931C01E5
S11310D00DC086E090E090931D0180931C0106C032
S11310E087E090E090931D0180931C0160E0809163
S11310F01C010E94630780911803909119030197C2
S113110009F01ECF80911C0190911D01079709F0F1
S113111017CF81E090E090931D0180931C010E9401
S11311203D070E944B07089581E090E090931D03D2
S113113080931C038091180390911903892B21F447
S11311401092DE021092DD020E94200781EB92E0F1
S11311500E94870781EB92E09F938F930E9475070B
S113116069E087E00E9417078CEA92E09F938F93CF
S11311700E9475078091F5029091F6020F900F90EE
S11311800F900F90883C9105DCF48091DF029091E0
S1131190E002019731F08091E1029091E20201971F
S11311A079F48091F5029091F6028536910544F028
S11311B01092E0021092DF021092E2021092E10219
S11311C08091F5029091F602883C91051CF1809182
S11311D0E1029091E202892BE9F480911C03909141
S11311E01D03019790931D0380931C0381E090E0FD
S11311F09093E2028093E1020E944B0780911C03CA
S113120090911D03892B31F487E090E090931D03A6
S113121080931C038091F5029091F6028536910526
S11312201CF58091DF029091E002892BE9F4809112
S11312301C0390911D03019690931D0380931C033E
S113124081E090E09093E0028093DF020E944B07DC
S113125080911C0390911D03089731F481E090E084
S113126090931D0380931C03E0911C03F0911D03D4
S11312703197E730F105A0F5E15CFF4F0C940F0EB8
S113128081E090E090931D0180931C0129C082E0CD
S113129090E090931D0180931C0122C083E090E0B4
S11312A090931D0180931C011BC084E090E09093F7
S11312B01D0180931C0114C085E090E090931D01F2
S11312C080931C010DC086E090E090931D018093F3
S11312D01C0106C087E090E090931D0180931C01DF
S11312E060E080911C010E94630780911803909133
S11312F01903019709F028CF80911C0190911D01D9
S1131300079709F021CF81E090E090931D0180932D
S11313101C010E943D070E944B07089581E090E064
S113132090931D0380931C038091180390911903DB
S1131330892B21F41092DE021092DD020E94200714
S11313408DEB92E00E9487078DEB92E09F938F9341
S11313500E94750769E087E00E94170788EC92E015
S11313609F938F930E9475078091F5029091F602E6
S11313700F900F900F900F90883C9105DCF48091B2
S1131380DF029091E002019731F08091E1029091A7
S1131390E202019779F48091F5029091F602853684
S11313A0910544F01092E0021092DF021092E202E2
S11313B01092E1028091F5029091F602883C910529
S11313C01CF18091E1029091E202892BE9F4809171
S11313D01C0390911D03019790931D0380931C039C
S11313E081E090E09093E2028093E1020E944B0737
S11313F080911C0390911D03892B31F487E090E0C8
S113140090931D0380931C038091F5029091F60242
S1131410853691051CF58091DF029091E002892BBD
S1131420E9F480911C0390911D03019690931D0390
S113143080931C0381E090E09093E0028093DF02AC
S11314400E944B0780911C0390911D03089731F46F
S113145081E090E090931D0380931C03E0911C03B2
S1131460F0911D033197E730F105A0F5EA5BFF4FDA
S11314700C940F0E81E090E090931D0180931C0169
S113148029C082E090E090931D0180931C0122C04A
S113149083E090E090931D0180931C011BC084E0C5
S11314A090E090931D0180931C0114C085E090E0AE
S11314B090931D0180931C010DC086E090E09093F1
S11314C01D0180931C0106C087E090E090931D01EC
S11314D080931C0160E080911C010E94630780914D
S11314E0180390911903019709F028CF80911C01EA
S11314F090911D01079709F021CF81E090E090932E
S11315001D0180931C010E943D070E944B07089512
S1131510CF93DF930E9420078DEC92E00E9487070F
S11315208DEC92E09F938F930E94750769E081E0B0
S11315300E94170787EA92E09F938F930E94750792
S113154069E082E00E94170781EB92E09F938F93FA
S11315500E94750769E083E00E9417078DEB92E013
S11315609F938F930E94750780911803909119039C
S11315702DB73EB7285F3F4F0FB6F8943EBF0FBE5E
S11315802DBF892B21F41092DE021092DD0280918E
S1131590F5029091F602883C9105DCF48091DF021B
S11315A09091E002019731F08091E1029091E20282
S11315B0019779F48091F5029091F60285369105B0
S11315C044F01092E0021092DF021092E2021092B4
S11315D0E1028091F5029091F602883C91051CF19C
S11315E08091E1029091E202892BE9F480911C033D
S11315F090911D03019790931D0380931C0381E038
S113160090E09093E2028093E1020E944B07809164
S11316101C0390911D03892B31F487E090E0909393
S11316201D0380931C038091F5029091F602853688
S113163091051CF58091DF029091E002892BE9F479
S113164080911C0390911D03019690931D03809338
S11316501C0381E090E09093E0028093DF020E94FB
S11316604B0780911C0390911D03089731F481E08E
S113167090E090931D0380931C03E0911C03F09170
S11316801D033197E730F10508F077C0E35BFF4FA6
S11316900C940F0E81E090E090931D0180931C0147
S11316A08091180390911903019709F066C0809105
S11316B0DD029091DE02892B09F05FC0C1E0D0E029
S11316C0D093DE02C093DD020E943D070E94A00772
S11316D00E944B07D0931D03C0931C034EC082E0AD
S11316E090E090931D0180931C01809118039091C8
S11316F01903019709F041C00E943D070E94940814
S11317000E944B0781E090E090931D0380931C039B
S113171034C083E090E090931D0180931C0180917C
S1131720180390911903019741F50E943D070E9407
S11317308E090E944B0781E090E090931D038093F3
S11317401C031BC084E090E090931D0180931C0156
S113175014C085E090E090931D0180931C010DC09E
S113176086E090E090931D0180931C0106C087E001
S113177090E090931D0180931C0160E080911C0116
S11317800E946307DF91CF91089580EB87BB81E5C9
S11317908DB988B3806188BB08958FB9779BFECFDC
S11317A008951FB8779BFECF8FB108952BB12D7F7D
S11317B02BB990BD89B988E18AB98EE880BD0895B6
S11317C05D9BFECF8CB980E090E008955D9BFECFD9
S11317D08CB190E008955058BB27AA270E94030CAF
S11317E00C94540D0E94460D38F00E944D0D20F0CB
S11317F039F49F3F19F426F40C94430D0EF4E0954C
S1131800E7FB0C943D0DE92F0E94650D58F3BA17C0
S1131810620773078407950720F079F4A6F50C9402
S1131820870D0EF4E0950B2EBA2FA02D0B01B901F4
S113183090010C01CA01A0011124FF27591B99F042
S1131840593F50F4503E68F11A16F040A22F232F4E
S1131850342F4427585FF3CF469537952795A7959E
S1131860F0405395C9F77EF41F16BA0B620B730B45
S1131870840BBAF09150A1F0FF0FBB1F661F771FB6
S1131880881FC2F70EC0BA0F621F731F841F48F46B
S1131890879577956795B795F7959E3F08F0B0CFF4
S11318A09395880F08F09927EE0F979587950895DB
S11318B00E946C0C0C94540D0E944D0D58F00E9423
S11318C0460D40F029F45F3F29F00C943D0D511171
S11318D00C94880D0C94430D0E94650D68F39923B4
S11318E0B1F3552391F3951B550BBB27AA27621718
S11318F07307840738F09F5F5F4F220F331F441F25
S1131900AA1FA9F335D00E2E3AF0E0E832D0915058
S11319105040E695001CCAF72BD0FE2F29D0660F45
S1131920771F881FBB1F261737074807AB07B0E888
S113193009F0BB0B802DBF01FF2793585F4F3AF08E
S11319409E3F510578F00C943D0D0C94880D5F3F3B
S1131950E4F3983ED4F3869577956795B795F79514
S11319609F5FC9F7880F911D9695879597F90895FC
S1131970E1E0660F771F881FBB1F62177307840798
S1131980BA0720F0621B730B840BBA0BEE1F88F7A7
S1131990E09508950E94D10C6894B1110C94880DBF
S11319A008950E946D0D88F09F5798F0B92F9927DC
S11319B0B751B0F0E1F0660F771F881F991F1AF036
S11319C0BA95C9F714C0B13091F00E94870DB1E007
S11319D008950C94870D672F782F8827B85F39F006
S11319E0B93FCCF3869577956795B395D9F73EF4CF
S11319F090958095709561957F4F8F4F9F4F089577
S1131A00E89409C097FB3EF4909580957095619594
S1131A107F4F8F4F9F4F9923A9F0F92F96E9BB274A
S1131A209395F695879577956795B795F111F8CFC6
S1131A30FAF4BB0F11F460FF1BC06F5F7F4F8F4F31
S1131A409F4F16C0882311F096E911C0772321F027
S1131A509EE8872F762F05C0662371F096E8862FBF
S1131A6070E060E02AF09A95660F771F881FDAF716
S1131A70880F9695879597F9089597F99F6780E859
S1131A8070E060E008959FEF80EC089500240A94CC
S1131A901616170618060906089500240A94121645
S1131AA01306140605060895092E0394000C11F478
S1131AB0882352F0BB0F40F4BF2B11F460FF04C025
S1131AC06F5F7F4F8F4F9F4F089557FD9058440F7E
S1131AD0551F59F05F3F71F04795880F97FB991F89
S1131AE061F09F3F79F08795089512161306140646
S1131AF0551FF2CF4695F1DF08C0161617061806D3
S1131B00991FF1CF86957105610508940895E894AD
S1131B10BB2766277727CB0197F908950E94A10D6B
S1131B200C94540D0E94460D38F00E944D0D20F087
S1131B30952311F00C943D0D0C94430D11240C9439
S1131B40880D0E94650D70F3959FC1F3950F50E0C9
S1131B50551F629FF001729FBB27F00DB11D639F5B
S1131B60AA27F00DB11DAA1F649F6627B00DA11D01
S1131B70661F829F2227B00DA11D621F739FB00DA7
S1131B80A11D621F839FA00D611D221F749F332717
S1131B90A00D611D231F849F600D211D822F762FB0
S1131BA06A2F11249F5750409AF0F1F088234AF08D
S1131BB0EE0FFF1FBB1F661F771F881F91505040F9
S1131BC0A9F79E3F510580F00C943D0D0C94880DAF
S1131BD05F3FE4F3983ED4F3869577956795B79580
S1131BE0F795E7959F5FC1F7FE2B880F911D96959A
S1131BF0879597F9089597FB072E16F4009407D05C
S1131C0077FD09D00E94150E07FC05D03EF490958F
S1131C1081959F4F0895709561957F4F0895EE0FBC
S1131C20FF1F0590F491E02D0994AA1BBB1B51E101
S1131C3007C0AA1FBB1FA617B70710F0A61BB70B38
S1131C40881F991F5A95A9F780959095BC01CD01DD
S1131C5008950F931F93CF93DF93009731F4611589
S1131C60710519F480E090E03AC08B01EC016EE05C
S1131C7070E081E090E00E949B10FC01892B91F3BD
S1131C8080E883830115110571F01387028781E8C9
S1131C90838380911E0390911F03892B21F4F09379
S1131CA01F03E0931E032097C9F0D187C087838167
S1131CB0826083838091200390912103892B71F4A6
S1131CC0F0932103E0932003809122039091230356
S1131CD0892B21F4F0932303E0932203CF01DF91B6
S1131CE0CF911F910F910895A0E0B0E0EAE7FEE0E4
S1131CF00C949F12AE014B5F5F4FFA016191719199
S1131D00AF0180912003909121030E94BA0EE2E07A
S1131D100C94BB120F931F93CF93DF93E091200396
S1131D20F0912103238121FF1BC08C01D0E0C0E08E
S1131D30F80181918F016091200370912103DB01EF
S1131D401896ED91FC911997882331F00995892B08
S1131D5079F3DFEFCFEFECCF8AE00995892B19F007
S1131D608FEF9FEF02C08D2F9C2FDF91CF911F919A
S1131D700F910895ABE0B0E0E0ECFEE00C948F121C
S1131D806C017B018A01FC0117821682838181FF29
S1131D90CCC1CE0101963C01F6019381F70193FD7C
S1131DA0859193FF81917F01882309F4BAC185321B
S1131DB039F493FD859193FF81917F01853229F454
S1131DC0B60190E00E94F511E7CF912C212C312C23
S1131DD0FFE1F315D8F08B3279F038F4803279F0E2
S1131DE08332A1F4232D20611DC08D3261F0803334
S1131DF069F4232D216016C0832D8260382EE32DD3
S1131E00E4603E2E2AC0F32DF8601DC037FC2DC0BF
S1131E1020ED280F2A3040F08E32B9F436FC81C10F
S1131E20232D2064322E19C036FE06C08AE0989E07
S1131E30200D1124922E11C0EAE02E9E200D1124B3
S1131E40222EF32DF0623F2E08C08C3621F4832D10
S1131E508068382E02C0883641F4F70193FD8591DD
S1131E6093FF81917F018111B3CF982F9F7D95546A
S1131E70933028F40C5F1F4F9FE399830DC0833682
S1131E8031F0833771F0833509F059C021C0F8016E
S1131E90808189830E5F1F4F88248394912C530182
S1131EA013C02801F2E04F0E511CF801A080B1804C
S1131EB036FE03C0692D70E002C06FEF7FEFC501ED
S1131EC00E94EA114C018201F32DFF773F2E16C0C8
S1131ED0280122E0420E511CF801A080B18036FE98
S1131EE003C0692D70E002C06FEF7FEFC5010E944F
S1131EF0D8114C01F32DF0683F2E820133FC1BC036
S1131F00822D90E088169906B0F4B60180E290E044
S1131F100E94F5112A94F4CFF50137FC859137FE20
S1131F2081915F01B60190E00E94F51121102A947D
S1131F3021E0821A91088114910471F7E8C0843673
S1131F4011F0893641F5F80137FE07C060817181CF
S1131F50828193810C5F1F4F08C060817181072EBD
S1131F60000C880B990B0E5F1F4FF32DFF763F2E4D
S1131F7097FF09C090958095709561957F4F8F4F1D
S1131F809F4FF0683F2E2AE030E0A3010E943112F7
S1131F90882E861845C0853731F4232D2F7EB22E26
S1131FA02AE030E025C0932D997FB92E8F36C1F0F9
S1131FB018F4883579F0B5C0803719F0883721F0E6
S1131FC0B0C0E92FE061BE2EB4FE0DC0FB2DF4605D
S1131FD0BF2E09C034FE0AC0292F2660B22E06C0C7
S1131FE028E030E005C020E130E002C020E132E02A
S1131FF0F801B7FE07C060817181828193810C5F13
S11320001F4F06C06081718180E090E00E5F1F4F1A
S1132010A3010E943112882E8618FB2DFF773F2ED4
S113202036FE0DC0232D2E7FA22E891458F434FEC3
S11320300BC032FC09C0832D8E7EA82E05C0B82C9F
S1132040A32C03C0B82C01C0B92CA4FE0FC0FE0100
S1132050E80DF11D8081803321F49A2D997EA92EFB
S113206009C0A2FE06C0B394B39404C08A2D867836
S113207009F0B394A3FC11C0A0FE06C0B21488F406
S1132080280C922C9B180EC0B21460F4B60180E2A6
S113209090E00E94F511B394F7CFB21418F42B1802
S11320A002C0982C212CA4FE10C0B60180E390E05D
S11320B00E94F511A2FE17C0A1FC03C088E790E0BE
S11320C002C088E590E0B6010CC08A2D867859F0EC
S11320D0A1FE02C08BE201C080E2A7FC8DE2B60142
S11320E090E00E94F511891438F4B60180E390E081
S11320F00E94F5119A94F7CF8A94F301E80DF11D2B
S11321008081B60190E00E94F5118110F5CF222064
S113211009F442CEB60180E290E00E94F5112A94BF
S1132120F6CFF6018681978102C08FEF9FEF2B9641
S1132130E2E10C94AB120F931F93CF93DF93869F2E
S11321408001879F100D969F100D1124C8010E94D5
S1132150B710EC01009729F0A80160E070E00E943C
S1132160E311CE01DF91CF911F910F9108950F9349
S11321701F93CF93DF938230910510F482E090E0B7
S1132180E0912603F091270320E030E0A0E0B0E0E6
S1132190309719F140815181028113814817590701
S11321A0C8F08417950769F4109731F012960C93D0
S11321B0129713961C9327C00093260310932703AA
S11321C022C02115310519F04217530718F49A015A
S11321D0BD01EF01DF01F801DBCF21153105F9F075
S11321E0281B390B2430310580F48A819B816115C9
S11321F0710521F0FB019383828304C0909327032C
S113220080932603FE01329644C0FE01E20FF31FC1
S11322108193919322503109398328833AC02091C4
S1132220240330912503232B41F4209102013091A2
S1132230030130932503209324032091000130915E
S113224001012115310541F42DB73EB74091040138
S113225050910501241B350BE0912403F0912503D3
S1132260E217F307A0F42E1B3F0B2817390778F069
S1132270AC014E5F5F4F2417350748F04E0F5F1FC8
S113228050932503409324038193919302C0E0E08B
S1132290F0E0CF01DF91CF911F910F910895CF937B
S11322A0DF93009709F481C0FC01329713821282F4
S11322B0A0912603B0912703109781F420813181E6
S11322C0820F931F20912403309125032817390787
S11322D051F5F0932503E093240367C0ED0120E05A
S11322E030E0CE17DF0740F44A815B819E0141153F
S11322F05105F1F0EA01F5CFD383C28340815181C6
S1132300840F951FC817D90759F488819981840FC0
S1132310951F0296918380838A819B819383828314
S11323202115310529F4F0932703E09326033DC0DA
S1132330E901FB83EA8349915991C40FD51FEC1736
S1132340FD0761F480819181840F951F0296E90154
S113235099838883828193819B838A83E0E0F0E080
S113236012968D919C911397009719F0FD01DC0151
S1132370F7CF8D919C9111979D012E5F3F4F820F56
S1132380931F20912403309125032817390769F4FA
S1132390309729F4109227031092260302C0138267
S11323A01282B0932503A0932403DF91CF91089563
S11323B0FC010590615070400110D8F7809590950C
S11323C08E0F9F1F0895DC0101C06D934150504052
S11323D0E0F70895FC016150704001900110D8F7B6
S11323E0809590958E0F9F1F08950F931F93CF9301
S11323F0DF93FB01238121FD03C08FEF9FEF2CC0EE
S113240022FF16C046815781248135814217530724
S113241044F4A081B1819D012F5F3F4F318320831C
S11324208C93268137812F5F3F4F3783268314C0D7
S11324308B01EC01FB010084F185E02D0995892BCA
S1132440E1F6D80116968D919C91179701961796EF
S11324509C938E931697CE01DF91CF911F910F918C
S11324600895FA01AA27283051F1203181F1E89426
S11324706F936E7F6E5F7F4F8F4F9F4FAF4FB1E073
S11324803ED0B4E03CD0670F781F891F9A1FA11D6E
S1132490680F791F8A1F911DA11D6A0F711D811D6F
S11324A0911DA11D20D009F468943F912AE0269F34
S11324B011243019305D3193DEF6CF010895462F93
S11324C04770405D4193B3E00FD0C9F7F6CF462F74
S11324D04F70405D4A3318F0495D31FD40524193DD
S11324E002D0A9F7EACFB4E0A6959795879577959A
S11324F06795BA95C9F700976105710508959B0121
S1132500AC010A2E06945795479537952795BA95A9
S1132510C9F7620F731F841F951FA01D08952F9282
S11325203F924F925F926F927F928F929F92AF925F
S1132530BF92CF92DF92EF92FF920F931F93CF93AC
S1132540DF93CDB7DEB7CA1BDB0B0FB6F894DEBF43
S11325500FBECDBF09942A88398848885F846E8469
S11325607D848C849B84AA84B984C884DF80EE80B3
S1132570FD800C811B81AA81B981CE0FD11D0FB6BC
S1132580F894DEBF0FBECDBFED010895F894FFCFE0
S113259000002803200000140000000200000000D6
S11325A09D060000000008000012001001000A0A45
S11325B00D202564202564200A00506F7320783A8A
S11325C02025642A78202B2025640A0D004E656797
S11325D020783A2025642A78202B2025640A0D00CF
S11325E0506F7320793A2025642A79202B202564A2
S11325F00A0D004E656720793A2025642A79202B3C
S11326002025640A0D004D4350323531352069735D
S1132610204E4F5420696E20436F6E666967757251
S11326206174696F6E206D6F646520616674657294
S1132630207265736574212049747320636F6E661C
S113264069672062697473206172652025780A0DB8
S1132650004D435032353135206973204E4F54209C
S1132660696E20636F7272656374206D6F64652098
S11326706166746572207265736574212049747390
S113268020636F6E66696720626974732061726586
S11326902025780A0D000A21004A6F7920593A2032
S11326A025642C09004A6F7920583A2025642C09A6
S11326B0004C65667420536C696465723A20256425
S11326C02C20200900526967687420536C69646582
S11326D0723A2025642C09004C6566742042757496
S11326E0746F6E3A2025642C20090052696768745F
S11326F020627574746F6E3A2025642C09004A6F49
S11327007920627574746F6E3A2025640A0D004C4A
S1132710696E65206F7574206F6620626F756E64D4
S11327207300436F6C756D6E206F7574206F662037
S1132730626F756E647300506C61790051756974D1
S113274000486967682073636F7265730044696643
S1132750666963756C7479004261636B004D6169ED
S10B27606E206D656E7500002A
S9030000FC
