:100000000C9438000C949A030C9483030C945500C0
:100010000C9455000C9455000C9455000C9455000C
:100020000C9455000C9455000C9455000C945500FC
:100030000C9455000C9455000C9455000C945700EA
:100040000C9455000C9455000C9455000C945500DC
:100050000C9455000C9455000C9455000C945500CC
:100060000C9455000C9455000C9455000C945500BC
:1000700011241FBECFEFD4E0DEBFCDBF12E0A0E061
:10008000B1E0EAEFF8E102C005900D92A039B107A6
:10009000D9F722E0A0E9B2E001C01D92A33DB2076A
:1000A000E1F70E9496040C947B0C0C9400001F92C4
:1000B0000F920FB60F9211242F933F934F935F939C
:1000C0006F937F938F939F93AF93BF93CF93DF9360
:1000D000EF93FF93E0910601F0910701108289EF01
:1000E00090E00197F1F700C00000E0910601F09167
:1000F0000701808190E09093A8028093A7028081FD
:1001000090E09093C7028093C602808190E0909324
:10011000960280939502808190E09093A402809350
:10012000A30280B382FB882780F98093C00280B34A
:1001300083FB882780F98093A90280B382958695F6
:10014000877091E0892781708093C8028091A7020F
:100150009091A802C0919B02D0919C028C179D07A0
:1001600054F56091A7027091A802072E000C880B2D
:10017000990B0E94BD062091B8023091B9024091BE
:10018000BA025091BB020E94490720E030E048ECDF
:1001900052E40E94130620919702309198024091F8
:1001A000990250919A020E94A7050E9485067093B9
:1001B000A6026093A5028091A7029091A8028C17D5
:1001C0009D0754F16091A7027091A802072E000CC0
:1001D000880B990B0E94BD062091AE023091AF02B0
:1001E0004091B0025091B1020E94490720E030E0F6
:1001F00048EC52E40E94130620919F023091A00225
:100200004091A1025091A2020E94A7050E9485067A
:100210007093A6026093A5028091C6029091C702D6
:10022000C091B602D091B7028C179D0754F560912A
:10023000C6027091C702072E000C880B990B0E9412
:10024000BD062091BC023091BD024091BE0250918A
:10025000BF020E94490720E030E048EC52E40E94CF
:1002600013062091B2023091B3024091B402509132
:10027000B5020E94A7050E94850670939E026093B6
:100280009D028091C6029091C7028C179D0754F180
:100290006091C6027091C702072E000C880B990B63
:1002A0000E94BD062091C2023091C3024091C40257
:1002B0005091C5020E94490720E030E048EC52E42A
:1002C0000E9413062091AA023091AB024091AC0229
:1002D0005091AD020E94A7050E94850670939E0270
:1002E00060939D0280919D0290919E028C3F9F4F52
:1002F00054F080919D0290919E02059724F41092F3
:100300009E0210929D028091A5029091A6028C3FC0
:100310009F4F54F08091A5029091A602059724F476
:100320001092A6021092A502FF91EF91DF91CF915A
:10033000BF91AF919F918F917F916F915F914F91FD
:100340003F912F910F900FBE0F901F9018956F92B5
:100350007F928F929F92AF92BF92CF92DF92EF9255
:10036000FF920F931F93CF93DF9383E480938B00CF
:1003700081E180938A0082E090E0909387008093EF
:10038000860081B3806181BB83EC99E00197F1F72E
:1003900000C0000020E030E0C0E0D0E030C0E091DC
:1003A0000601F0910701108289EF90E00197F1F7C3
:1003B00000C00000E0910601F091070140818091AA
:1003C000900290919102840F911D909391028093DD
:1003D000900240818091920290919302840F911D2E
:1003E00090939302809392028081808189EF90E0C4
:1003F0000197F1F700C0000021962F5F3F4F243690
:1004000031056CF28091900290919102BE010E94A0
:10041000B607262F372F6093B6027093B7028091EC
:10042000920290919302BE010E94B60760939B02D4
:1004300070939C027F936F933F932F938AE091E098
:100440009F938F930E9429080091B6021091B702E2
:1004500066246A94712C7301E01AF10AC0E1D7E2B4
:10046000CE01B7010E94B607072E000C880B990B2E
:100470000E94BD064B015C016093C2027093C302EF
:100480008093C4029093C5022CE920036001219F50
:10049000D00C1124C601B7010E94B6077B01072EBC
:1004A000000C880B990B0E94BD066093AA02709302
:1004B000AB028093AC029093AD02CE01B8010E94D2
:1004C000B607072E000C880B990B0E94BD0660939F
:1004D000BC027093BD028093BE029093BF02C6011E
:1004E000B8010E94B607072E000C880B990B0E94DA
:1004F000BD066093B2027093B3028093B4029093EE
:10050000B50200919B0210919C02601A710ACE0103
:10051000B3010E94B607072E000C880B990B0E94AE
:10052000BD066093AE027093AF028093B0029093C9
:10053000B1022CE920036001219FD00C1124C601D7
:10054000B3010E94B607072E000C880B990B0E947E
:10055000BD0660939F027093A0028093A1029093C6
:10056000A202CE01B8010E94B607072E000C880B2C
:10057000990B0E94BD066093B8027093B9028093F4
:10058000BA029093BB02C601B8010E94B607072EBB
:10059000000C880B990B0E94BD0660939702709324
:1005A00098028093990290939A0220E030E04AE703
:1005B00054E4C501B4010E944907FF92EF920E94E2
:1005C00085067F936F9386E191E09F938F930E94BE
:1005D000290820E030E04AE754E46091BC027091C1
:1005E000BD028091BE029091BF020E9449076B013B
:1005F0007C016091B2027091B3028091B40290913B
:10060000B5020E9485067F936F93C701B6010E94D1
:1006100085067F936F9389E291E09F938F930E9469
:10062000290820E030E04AE754E46091AE0270917E
:10063000AF028091B0029091B1020E9449076B0114
:100640007C0160919F027091A0028091A102909123
:10065000A2020E9485067F936F93C701B6010E9494
:1006600085067F936F938CE391E09F938F930E9415
:10067000290820E030E04AE754E46091B802709124
:10068000B9028091BA029091BB020E9449076B01A6
:100690007C016091970270919802809199029091EB
:1006A0009A020E9485067F936F93C701B6010E944C
:1006B00085067F936F938FE491E09F938F930E94C1
:1006C00029081FBC82E08EBD80E889BF7894E09144
:1006D0000601F091070110828DB79EB74E960FB6B6
:1006E000F8949EBF0FBE8DBFDF91CF911F910F91E8
:1006F000FF90EF90DF90CF90BF90AF909F908F9042
:100700007F906F9008951F920F920FB60F92112451
:100710008F93EF93FF93E0910601F09107018081A1
:100720008093C102FF91EF918F910F900FBE0F90B8
:100730001F9018951F920F920FB60F9211242F93AE
:100740003F934F935F936F937F938F939F93AF9359
:10075000BF93EF93FF9381E08093940282E691E050
:100760009F938F930E9429080F900F90FF91EF9114
:10077000BF91AF919F918F917F916F915F914F91B9
:100780003F912F910F900FBE0F901F9018950E94D0
:100790005604F89485B7836085BF80E48BBF789456
:1007A00060E88FE00E94340461E08BE20E94340430
:1007B00063E08AE20E94340461EB89E20E9434041F
:1007C00065E088E20E94340460E08FE00E94340417
:1007D00008950F931F93CF938C01FC01608181E3F7
:1007E0000E943404F80161816295660F607E82E3A5
:1007F0000E943404F801628185E30E943404C0E061
:1008000009C0F801EC0FF11D638186E38C0F0E9493
:100810003404CF5FC830A8F383EC99E00197F1F777
:1008200000C000000E941D0481E80E9488050E940B
:100830001F04CF911F910F91089518BA089580E178
:1008400088BB0895CF93C82F0E941D0483E00E94A7
:1008500088058C2F0E9488050E948C05C82F0E9455
:100860001F048C2FCF910895CF93DF93D82FC62FDD
:100870000E941D0482E00E9488058D2F0E94880539
:100880008C2F0E9488050E941F04DF91CF9108954C
:100890000E941D0480EC0E9488050E941F0483ECC6
:1008A00099E00197F1F700C000000895CF930E94EE
:1008B00080050E9448048EE00E942204807E8038D9
:1008C00061F01F928F9386E891E09F938F930E942F
:1008D00029080F900F900F900F9060E48FE00E9416
:1008E00034048EE00E942204C82F1F928F938CEC58
:1008F00091E09F938F930E942908C07E0F900F90E4
:100900000F900F90C03481F01F92CF9381ED91E052
:100910009F938F930E94290886E192E00E943F08EE
:100920000F900F900F900F90CF910895CF93DF937A
:10093000CDB7DEB72B970FB6F894DEBF0FBECDBF95
:1009400080E885BF8FE190E00E94910561EA75E043
:100950008BE995E00E94DE070E94A7010E943D05F9
:100960000E94C7038FEF89838A8387E08B838091FE
:10097000A5029091A6028C598C8380919D02909142
:100980009E028C598D838091A3029091A4028E8344
:1009900080919502909196028F838091C002888702
:1009A0008091C80289878091A9028A87CE01019629
:1009B0000E94E9032FE38DE093E0215080409040B6
:1009C000E1F700C000008091A5029091A6029F93DC
:1009D0008F9389E192E09F938F930E9429088091E1
:1009E0009D0290919E029F938F9385E292E09F9348
:1009F0008F930E9429088091A3029091A4029F9353
:100A00008F9381E392E09F938F930E9429088091B6
:100A10009502909196029F938F9385E492E09F9325
:100A20008F930E9429088091A9021F928F9388E5D5
:100A300092E09F938F930E9429088091C0021F9299
:100A40008F938BE692E09F938F930E942908809169
:100A5000C8021F928F938EE792E09F938F930E941C
:100A600029080FB6F894DEBF0FBECDBF7BCFE09153
:100A70000801F0910901808308958EEA0E943705EC
:100A800081EA0E9437058AED0E94370582E10E94C3
:100A9000370588EC0E94370588EA0E9437058FE306
:100AA0000E94370585ED0E94370580E80E943705D2
:100AB00081E80E94370580E50E94370589ED0E9494
:100AC000370581E20E94370580E20E94370582E007
:100AD0000E9437058BED0E94370580E30E943705A1
:100AE0008DEA0E94370580E00E94370584EA0E9463
:100AF000370586EA0E9437058FEA0E943705089578
:100B000080EB87BB81E58DB988B3806188BB089590
:100B10008FB9779BFECF08951FB8779BFECF8FB11B
:100B200008952BB12D7F2BB990BD89B988E18AB981
:100B30008EE880BD08955D9BFECF8CB980E090E08B
:100B400008955D9BFECF8CB190E008955058BB276F
:100B5000AA270E94BE050C940F070E94010738F0D7
:100B60000E94080720F039F49F3F19F426F40C94F2
:100B7000FE060EF4E095E7FB0C94F806E92F0E94C0
:100B8000200758F3BA17620773078407950720F008
:100B900079F4A6F50C9442070EF4E0950B2EBA2FCB
:100BA000A02D0B01B90190010C01CA01A001112473
:100BB000FF27591B99F0593F50F4503E68F11A161F
:100BC000F040A22F232F342F4427585FF3CF4695B0
:100BD00037952795A795F0405395C9F77EF41F16D2
:100BE000BA0B620B730B840BBAF09150A1F0FF0F9C
:100BF000BB1F661F771F881FC2F70EC0BA0F621F88
:100C0000731F841F48F4879577956795B795F79577
:100C10009E3F08F0B0CF9395880F08F09927EE0F0C
:100C20009795879508950E9427060C940F070E94B8
:100C3000080758F00E94010740F029F45F3F29F0AF
:100C40000C94F80651110C9443070C94FE060E9474
:100C5000200768F39923B1F3552391F3951B550BA6
:100C6000BB27AA2762177307840738F09F5F5F4F7F
:100C7000220F331F441FAA1FA9F335D00E2E3AF0BE
:100C8000E0E832D091505040E695001CCAF72BD0D6
:100C9000FE2F29D0660F771F881FBB1F2617370727
:100CA0004807AB07B0E809F0BB0B802DBF01FF2759
:100CB00093585F4F3AF09E3F510578F00C94F80638
:100CC0000C9443075F3FE4F3983ED4F38695779501
:100CD0006795B795F7959F5FC9F7880F911D969512
:100CE000879597F90895E1E0660F771F881FBB1F6E
:100CF000621773078407BA0720F0621B730B840B1B
:100D0000BA0BEE1F88F7E09508950E948C06689450
:100D1000B1110C94430708950E94280788F09F574B
:100D200098F0B92F9927B751B0F0E1F0660F771F0F
:100D3000881F991F1AF0BA95C9F714C0B13091F005
:100D40000E944207B1E008950C944207672F782F64
:100D50008827B85F39F0B93FCCF3869577956795CA
:100D6000B395D9F73EF490958095709561957F4F36
:100D70008F4F9F4F0895E89409C097FB3EF49095DC
:100D80008095709561957F4F8F4F9F4F9923A9F064
:100D9000F92F96E9BB279395F695879577956795F3
:100DA000B795F111F8CFFAF4BB0F11F460FF1BC037
:100DB0006F5F7F4F8F4F9F4F16C0882311F096E9CA
:100DC00011C0772321F09EE8872F762F05C0662378
:100DD00071F096E8862F70E060E02AF09A95660F31
:100DE000771F881FDAF7880F9695879597F90895EA
:100DF00097F99F6780E870E060E008959FEF80ECCE
:100E0000089500240A941616170618060906089570
:100E100000240A9412161306140605060895092ED6
:100E20000394000C11F4882352F0BB0F40F4BF2B45
:100E300011F460FF04C06F5F7F4F8F4F9F4F089585
:100E400057FD9058440F551F59F05F3F71F047957B
:100E5000880F97FB991F61F09F3F79F08795089560
:100E6000121613061406551FF2CF4695F1DF08C07F
:100E7000161617061806991FF1CF8695710561059C
:100E800008940895E894BB2766277727CB0197F944
:100E900008950E945C070C940F070E94010738F028
:100EA0000E94080720F0952311F00C94F8060C948A
:100EB000FE0611240C9443070E94200770F3959FAF
:100EC000C1F3950F50E0551F629FF001729FBB2741
:100ED000F00DB11D639FAA27F00DB11DAA1F649FDD
:100EE0006627B00DA11D661F829F2227B00DA11D90
:100EF000621F739FB00DA11D621F839FA00D611D16
:100F0000221F749F3327A00D611D231F849F600D36
:100F1000211D822F762F6A2F11249F5750409AF05F
:100F2000F1F088234AF0EE0FFF1FBB1F661F771FEB
:100F3000881F91505040A9F79E3F510580F00C94B6
:100F4000F8060C9443075F3FE4F3983ED4F386958C
:100F500077956795B795F795E7959F5FC1F7FE2B56
:100F6000880F911D9695879597F9089597FB072E01
:100F700016F4009407D077FD09D00E94CA0707FC39
:100F800005D03EF4909581959F4F08957095619599
:100F90007F4F0895AA1BBB1B51E107C0AA1FBB1FAF
:100FA000A617B70710F0A61BB70B881F991F5A95F5
:100FB000A9F780959095BC01CD0108950F931F93DB
:100FC000CF93DF93009731F46115710519F480E038
:100FD00090E03AC08B01EC016EE070E081E090E0BF
:100FE0000E94500AFC01892B91F380E8838301154C
:100FF000110571F01387028781E883838091C9020C
:101000009091CA02892B21F4F093CA02E093C9029D
:101010002097C9F0D187C0878381826083838091C4
:10102000CB029091CC02892B71F4F093CC02E09327
:10103000CB028091CD029091CE02892B21F4F093C6
:10104000CE02E093CD02CF01DF91CF911F910F919E
:101050000895A0E0B0E0EFE2F8E00C94540CAE018B
:101060004B5F5F4FFA0161917191AF018091CB02AB
:101070009091CC020E946F08E2E00C94700C0F93E8
:101080001F93CF93DF93E091CB02F091CC022381A9
:1010900021FF1BC08C01D0E0C0E0F80181918F01DD
:1010A0006091CB027091CC02DB011896ED91FC911E
:1010B0001997882331F00995892B79F3DFEFCFEF6A
:1010C000ECCF8AE00995892B19F08FEF9FEF02C0D2
:1010D0008D2F9C2FDF91CF911F910F910895ABE041
:1010E000B0E0E5E7F8E00C94440C6C017B018A0168
:1010F000FC0117821682838181FFCCC1CE0101964B
:101100003C01F6019381F70193FD859193FF819155
:101110007F01882309F4BAC1853239F493FD8591A2
:1011200093FF81917F01853229F4B60190E00E94FE
:10113000AA0BE7CF912C212C312CFFE1F315D8F02D
:101140008B3279F038F4803279F08332A1F4232D98
:1011500020611DC08D3261F0803369F4232D216040
:1011600016C0832D8260382EE32DE4603E2E2AC007
:10117000F32DF8601DC037FC2DC020ED280F2A305C
:1011800040F08E32B9F436FC81C1232D2064322E1A
:1011900019C036FE06C08AE0989E200D1124922EBA
:1011A00011C0EAE02E9E200D1124222EF32DF062B4
:1011B0003F2E08C08C3621F4832D8068382E02C063
:1011C000883641F4F70193FD859193FF81917F016A
:1011D0008111B3CF982F9F7D9554933028F40C5FE5
:1011E0001F4F9FE399830DC0833631F0833771F031
:1011F000833509F059C021C0F801808189830E5FD1
:101200001F4F88248394912C530113C02801F2E0CE
:101210004F0E511CF801A080B18036FE03C0692D2D
:1012200070E002C06FEF7FEFC5010E949F0B4C0181
:101230008201F32DFF773F2E16C0280122E0420ED7
:10124000511CF801A080B18036FE03C0692D70E00A
:1012500002C06FEF7FEFC5010E948D0B4C01F32D93
:10126000F0683F2E820133FC1BC0822D90E088166F
:101270009906B0F4B60180E290E00E94AA0B2A948D
:10128000F4CFF50137FC859137FE81915F01B601FE
:1012900090E00E94AA0B21102A9421E0821A910862
:1012A0008114910471F7E8C0843611F0893641F554
:1012B000F80137FE07C060817181828193810C5FE4
:1012C0001F4F08C060817181072E000C880B990B9D
:1012D0000E5F1F4FF32DFF763F2E97FF09C09095AD
:1012E0008095709561957F4F8F4F9F4FF0683F2E8F
:1012F0002AE030E0A3010E94E60B882E861845C044
:10130000853731F4232D2F7EB22E2AE030E025C020
:10131000932D997FB92E8F36C1F018F4883579F066
:10132000B5C0803719F0883721F0B0C0E92FE061EF
:10133000BE2EB4FE0DC0FB2DF460BF2E09C034FEDE
:101340000AC0292F2660B22E06C028E030E005C072
:1013500020E130E002C020E132E0F801B7FE07C032
:1013600060817181828193810C5F1F4F06C0608113
:10137000718180E090E00E5F1F4FA3010E94E60B99
:10138000882E8618FB2DFF773F2E36FE0DC0232DAD
:101390002E7FA22E891458F434FE0BC032FC09C0F3
:1013A000832D8E7EA82E05C0B82CA32C03C0B82C8C
:1013B00001C0B92CA4FE0FC0FE01E80DF11D808113
:1013C000803321F49A2D997EA92E09C0A2FE06C071
:1013D000B394B39404C08A2D867809F0B394A3FC27
:1013E00011C0A0FE06C0B21488F4280C922C9B18E1
:1013F0000EC0B21460F4B60180E290E00E94AA0B25
:10140000B394F7CFB21418F42B1802C0982C212CE7
:10141000A4FE10C0B60180E390E00E94AA0BA2FED9
:1014200017C0A1FC03C088E790E002C088E590E007
:10143000B6010CC08A2D867859F0A1FE02C08BE25D
:1014400001C080E2A7FC8DE2B60190E00E94AA0BE9
:10145000891438F4B60180E390E00E94AA0B9A94B4
:10146000F7CF8A94F301E80DF11D8081B60190E079
:101470000E94AA0B8110F5CF222009F442CEB601BA
:1014800080E290E00E94AA0B2A94F6CFF6018681B2
:10149000978102C08FEF9FEF2B96E2E10C94600CD6
:1014A0000F931F93CF93DF93869F8001879F100D2B
:1014B000969F100D1124C8010E946C0AEC01009740
:1014C00029F0A80160E070E00E94980BCE01DF9146
:1014D000CF911F910F9108950F931F93CF93DF9397
:1014E0008230910510F482E090E0E091D102F09119
:1014F000D20220E030E0A0E0B0E0309719F1408166
:1015000051810281138148175907C8F08417950744
:1015100069F4109731F012960C93129713961C935E
:1015200027C00093D1021093D20222C021153105A9
:1015300019F04217530718F49A01BD01EF01DF01BA
:10154000F801DBCF21153105F9F0281B390B2430C8
:10155000310580F48A819B816115710521F0FB01C1
:101560009383828304C09093D2028093D102FE01C0
:10157000329644C0FE01E20FF31F819391932250F3
:101580003109398328833AC02091CF023091D002AB
:10159000232B41F420910201309103013093D002BA
:1015A0002093CF02209100013091010121153105D6
:1015B00041F42DB73EB74091040150910501241B21
:1015C000350BE091CF02F091D002E217F307A0F4BF
:1015D0002E1B3F0B2817390778F0AC014E5F5F4F89
:1015E0002417350748F04E0F5F1F5093D0024093E9
:1015F000CF028193919302C0E0E0F0E0CF01DF9150
:10160000CF911F910F910895CF93DF93009709F425
:1016100081C0FC01329713821282A091D102B09155
:10162000D202109781F420813181820F931F209183
:10163000CF023091D0022817390751F5F093D0022C
:10164000E093CF0267C0ED0120E030E0CE17DF0766
:1016500040F44A815B819E0141155105F1F0EA0198
:10166000F5CFD383C28340815181840F951FC81762
:10167000D90759F488819981840F951F0296918327
:1016800080838A819B81938382832115310529F48C
:10169000F093D202E093D1023DC0E901FB83EA83DB
:1016A00049915991C40FD51FEC17FD0761F4808152
:1016B0009181840F951F0296E90199838883828125
:1016C00093819B838A83E0E0F0E012968D919C9158
:1016D0001397009719F0FD01DC01F7CF8D919C91D4
:1016E00011979D012E5F3F4F820F931F2091CF02D4
:1016F0003091D0022817390769F4309729F41092F5
:10170000D2021092D10202C013821282B093D00290
:10171000A093CF02DF91CF910895FC010590615015
:1017200070400110D8F7809590958E0F9F1F0895F7
:10173000DC0101C06D9341505040E0F70895FC0179
:101740006150704001900110D8F7809590958E0FF0
:101750009F1F08950F931F93CF93DF93FB01238166
:1017600021FD03C08FEF9FEF2CC022FF16C04681E2
:101770005781248135814217530744F4A081B181F8
:101780009D012F5F3F4F318320838C9326813781CA
:101790002F5F3F4F3783268314C08B01EC01FB0181
:1017A0000084F185E02D0995892BE1F6D801169684
:1017B0008D919C911797019617969C938E931697EF
:1017C000CE01DF91CF911F910F910895FA01AA27C1
:1017D000283051F1203181F1E8946F936E7F6E5F74
:1017E0007F4F8F4F9F4FAF4FB1E03ED0B4E03CD022
:1017F000670F781F891F9A1FA11D680F791F8A1F05
:10180000911DA11D6A0F711D811D911DA11D20D06B
:1018100009F468943F912AE0269F11243019305D25
:101820003193DEF6CF010895462F4770405D419316
:10183000B3E00FD0C9F7F6CF462F4F70405D4A3363
:1018400018F0495D31FD4052419302D0A9F7EACF2B
:10185000B4E0A6959795879577956795BA95C9F75A
:1018600000976105710508959B01AC010A2E06944D
:101870005795479537952795BA95C9F7620F731F06
:10188000841F951FA01D08952F923F924F925F9243
:101890006F927F928F929F92AF92BF92CF92DF9280
:1018A000EF92FF920F931F93CF93DF93CDB7DEB7E5
:1018B000CA1BDB0B0FB6F894DEBF0FBECDBF099479
:1018C0002A88398848885F846E847D848C849B84D0
:1018D000AA84B984C884DF80EE80FD800C811B81DE
:1018E000AA81B981CE0FD11D0FB6F894DEBF0FBE0D
:0A18F000CDBFED010895F894FFCF7D
:1018FA000000D3022000001400100A0A0D202564FB
:10190A00202564200A00506F7320783A2025642A23
:10191A0078202B2025640A0D004E656720783A202E
:10192A0025642A78202B2025640A0D00506F732025
:10193A00793A2025642A79202B2025640A0D004E45
:10194A00656720793A2025642A79202B2025640AA4
:10195A000D00466C61670049443A20257825782CA9
:10196A0020444C433A2025782C20446174615B382A
:10197A005D3A202578004D43503235313520697360
:10198A00204E4F5420696E20436F6E6669677572E8
:10199A006174696F6E206D6F64652061667465722B
:1019AA00207265736574212049747320636F6E66B3
:1019BA0069672062697473206172652025780A0D4F
:1019CA00004D435032353135206973204E4F542033
:1019DA00696E20636F7272656374206D6F6465202F
:1019EA006166746572207265736574212049747327
:1019FA0020636F6E6669672062697473206172651D
:101A0A002025780A0D000A21004A6F7920593A20C8
:101A1A0025642C09004A6F7920583A2025642C093C
:101A2A00004C65667420536C696465723A202564BB
:101A3A002C20200900526967687420536C69646518
:101A4A00723A2025642C09004C656674204275742C
:101A5A00746F6E3A2025642C2009005269676874F5
:101A6A0020627574746F6E3A2025642C09004A6FDF
:101A7A007920627574746F6E3A2025640A0D00002D
:00000001FF
