S01600004279676765726E5F736F757263652E7372656350
S11300000C94B4010C94D1010C941D020C94D101F4
S11300100C94D1010C94D1010C94D1010C94D10114
S11300200C94D1010C94D1010C94D1010C94D10104
S11300300C94D1010C94D1010C94D1010C94D301F2
S11300400C94D1010C94D1010C94D1010C94D101E4
S11300500C94D1010C94D1010C94D1010C94D101D4
S11300600C94D1010C94D1010C94D1010C94D101C4
S1130070000000000000000000065F5F06000000B2
S11300800007070007070000147F7F147F7F140018
S1130090242E6B6B3A120000466630180C66620020
S11300A0307A4F5D377A48000407030000000000EF
S11300B0001C3E63410000000041633E1C00000040
S11300C0082A3E1C1C3E2A0808083E3E0808000078
S11300D000A0E0600000000008080808080800000C
S11300E000006060000000006030180C060301008E
S11300F03E7F594D7F3E000042427F7F40400000DA
S1130100627359496F660000226349497F360000D3
S1130110181C16137F7F1000276745457D390000A2
S11301203C7E4B4979300000036371190F070000CE
S1130130367F49497F360000064F49693F1E00005B
S113014000006C6C0000000000A0EC6C00000000DB
S1130150081C366341000000141414141414000025
S1130160004163361C080000020351590F060000C9
S11301703E7F415D5D1F1E007C7E13137E7C00006C
S1130180417F7F49497F36001C3E63414163220021
S1130190417F7F41637F1C00417F7F495D41630054
S11301A0417F7F491D0103001C3E6341517372006E
S11301B07F7F08087F7F000000417F7F41000000AF
S11301C0307040417F3F0100417F7F081C7763000E
S11301D0417F7F41406070007F7F060C067F7F0077
S11301E07F7F060C187F7F001C3E6341633E1C002A
S11301F0417F7F49090F06001E3F21717F5E000089
S1130200417F7F19396F460026674D597B320000C4
S113021003417F7F410300007F7F40407F7F0000D8
S11302201F3F60603F1F00007F7F3018307F7F00DA
S113023063771C081C776300074F78784F0700002A
S11302406773594D47637100007F7F41410000008F
S11302500103060C183060000041417F7F0000005C
S1130260080C0603060C0800808080808080808053
S11302700000030704000000207454543C7840003C
S1130280413F7F44447C3800387C44446C2800005F
S1130290307848493F7F4000387C54545C18000053
S11302A0487E7F490302000098BCA4A4F87C0400A3
S11302B0417F7F08047C780000447D7D400000007D
S11302C040C484FD7D000000417F7F10386C4400F1
S11302D000417F7F400000007C7C0C180C7C78007F
S11302E07C7C04047C780000387C44447C38000026
S11302F084FCF8A4243C1800183C24A4F8FC8400D2
S1130300447C78441C180000485C54547424000055
S113031000043E7F442400003C7C40403C7C400080
S11303201C3C60603C1C00003C7C6030607C3C00F9
S1130330446C3810386C44009CBCA0A0FC7C0000C9
S11303404C64745C4C64000008083E774141000032
S113035000000077770000004141773E0808000064
S1130360020301030203010011241FBECFEFD4E0F6
S1130370DEBFCDBF11E0A0E0B1E0E4E1F1E102C0F5
S113038005900D92A03EB107D9F721E0A0EEB1E0AF
S113039001C01D92A53FB207E1F70E9434020C94FC
S11303A088080C9400001F920F920FB60F9211242C
S11303B08F939F93EF93FF93E0910601F0910701D0
S11303C0808190E09093E5018093E401808190E046
S11303D09093E8018093E701808190E09093E1019C
S11303E08093E001808190E09093E3018093E201A7
S11303F01082FF91EF919F918F910F900FBE0F90FC
S11304001F90189583E480938B0081E180938A0088
S113041082E090E0909387008093860081B38061AE
S113042081BB1FBC82E08EBD80E889BF7894E091D7
S11304300601F0910701108208951F920F920FB6E2
S11304400F9211248F93EF93FF93E0910601F091A3
S1130450070180818093E601FF91EF918F910F90C6
S11304600FBE0F901F90189580E885BF8FE190E034
S11304700E94D60366EE73E080EE93E00E94EB03E5
S113048080E090E00E9402020E94C302829B03C0AB
S113049011E000E002C010E000E0839B04C0FF24F0
S11304A0F394E12C02C0F12CE12C859B03C0C0E045
S11304B0D0E002C0C1E0D0E08091E4019091E50178
S11304C09F938F938CE191E09F938F930E943604C6
S11304D08091E7019091E8019F938F9388E291E0E6
S11304E09F938F930E9436048091E2019091E301DF
S11304F09F938F9384E391E09F938F930E9436049C
S11305008091E0019091E1019F938F9388E491E0C1
S11305109F938F930E943604EF92FF928BE591E0B4
S11305209F938F930E9436040F931F938EE691E05E
S11305309F938F930E943604DF93CF9381E891E0D9
S11305409F938F930E9436040E94B6030E949903DE
S113055082E991E09F938F930E94C4038DB79EB765
S11305604E960FB6F8949EBF0FBE8DBF8FCFE0910D
S11305701A01F0911B0180830895E0911801F09114
S11305801901808308958EEA0E94B70281EA0E94CD
S1130590B7028AED0E94B70282E10E94B70288EC9A
S11305A00E94B70288EA0E94B7028FE30E94B70252
S11305B085ED0E94B70280E80E94B70281E80E949C
S11305C0B70280E50E94B70289ED0E94B70281E27A
S11305D00E94B70280E20E94B70282E00E94B70242
S11305E08BED0E94B70280E30E94B7028DEA0E945D
S11305F0B70280E00E94B70284EA0E94B70286EA4A
S11306000E94B7028FEA0E94B70208958091EA011E
S113061088235CF4E9EEF1E08058818380818F5F68
S11306208083883010F01092E90108951F93CF93CE
S1130630DF9310EE180FC0E0D0E01CC0E12FF0E013
S1130640EE0FFF1FEE0FFF1FEE0FFF1FEC0FFD1F3E
S1130650E059FF4F859194910E94BD02809116014B
S113066090911701E9EEF1E09181890F81830E9455
S1130670060321968091160190911701C817D90796
S1130680ECF280E090E0DF91CF911F910895CF9339
S1130690C82F80E20E94B7028C2F0E94B702CF912C
S11306A00895CF93C82F883078F48093E90182E0CD
S11306B090E00E94470380EB8C0F0E94B70280E019
S11306C090E00E94470306C087EB91E00E944C042F
S11306D080E090E0CF910895CF93DF93C82F8823D3
S11306E0B4F08093EA0182E090E00E944703DC2F9B
S11306F0D295DF708C2F8F700E94B70280E18D0F2E
S11307000E94B70280E090E00E94470306C08AEC92
S113071091E00E944C0480E090E0DF91CF91089535
S1130720CF93C62F0E9451038C2F0E946C03CF914C
S1130730089560E070E080E090E00E9490030895E6
S1130740CF93DF93D82F60E070E090E00E94900395
S1130750C0E004C080E00E94BD02CF5FCC23D4F788
S11307608D2F0E945103DF91CF910895CF93C0E064
S113077005C08C2F90E00E94A003CF5FC830C8F35F
S11307800E949903CF910895CF93DF93CDB7DEB73D
S1130790AE014B5F5F4FFA0161917191AF0188E047
S11307A091E00E947C04DF91CF9108952BB12D7FBD
S11307B02BB990BD89B988E18AB98EE880BD0895C6
S11307C05D9BFECF8CB980E090E008955D9BFECFE9
S11307D08CB190E008950F931F93CF93DF9300970C
S11307E031F46115710519F480E090E03AC08B0191
S11307F0EC016EE070E081E090E00E945D06FC0197
S1130800892B91F380E883830115110571F0138717
S1130810028781E883838091EB019091EC01892B1D
S113082021F4F093EC01E093EB012097C9F0D18718
S1130830C0878381826083838091ED019091EE0172
S1130840892B71F4F093EE01E093ED018091EF01B7
S11308509091F001892B21F4F093F001E093EF01E2
S1130860CF01DF91CF911F910F910895A0E0B0E0E7
S1130870ECE3F4E00C946108AE014B5F5F4FFA01C6
S113088061917191AF018091ED019091EE010E940F
S11308907C04E2E00C947D080F931F93CF93DF93C5
S11308A0E091ED01F091EE01238121FF1BC08C0149
S11308B0D0E0C0E0F80181918F016091ED01709169
S11308C0EE01DB011896ED91FC911997882331F024
S11308D00995892B79F3DFEFCFEFECCF8AE0099507
S11308E0892B19F08FEF9FEF02C08D2F9C2FDF9182
S11308F0CF911F910F910895ABE0B0E0E2E8F4E0EE
S11309000C9451086C017B018A01FC011782168248
S1130910838181FFCCC1CE0101963C01F601938114
S1130920F70193FD859193FF81917F01882309F459
S1130930BAC1853239F493FD859193FF81917F018A
S1130940853229F4B60190E00E94B707E7CF912CD5
S1130950212C312CFFE1F315D8F08B3279F038F4E7
S1130960803279F08332A1F4232D20611DC08D32B1
S113097061F0803369F4232D216016C0832D8260D9
S1130980382EE32DE4603E2E2AC0F32DF8601DC0FE
S113099037FC2DC020ED280F2A3040F08E32B9F4F8
S11309A036FC81C1232D2064322E19C036FE06C0C8
S11309B08AE0989E200D1124922E11C0EAE02E9E0A
S11309C0200D1124222EF32DF0623F2E08C08C3608
S11309D021F4832D8068382E02C0883641F4F70153
S11309E093FD859193FF81917F018111B3CF982F5E
S11309F09F7D9554933028F40C5F1F4F9FE3998398
S1130A000DC0833631F0833771F0833509F059C056
S1130A1021C0F801808189830E5F1F4F882483944D
S1130A20912C530113C02801F2E04F0E511CF80120
S1130A30A080B18036FE03C0692D70E002C06FEF64
S1130A407FEFC5010E94AC074C018201F32DFF77B3
S1130A503F2E16C0280122E0420E511CF801A0804E
S1130A60B18036FE03C0692D70E002C06FEF7FEFE6
S1130A70C5010E949A074C01F32DF0683F2E8201B4
S1130A8033FC1BC0822D90E088169906B0F4B601A1
S1130A9080E290E00E94B7072A94F4CFF50137FC76
S1130AA0859137FE81915F01B60190E00E94B707FE
S1130AB021102A9421E0821A91088114910471F77B
S1130AC0E8C0843611F0893641F5F80137FE07C0D5
S1130AD060817181828193810C5F1F4F08C06081A6
S1130AE07181072E000C880B990B0E5F1F4FF32D9D
S1130AF0FF763F2E97FF09C090958095709561957C
S1130B007F4F8F4F9F4FF0683F2E2AE030E0A301C4
S1130B100E94F307882E861845C0853731F4232DAB
S1130B202F7EB22E2AE030E025C0932D997FB92E76
S1130B308F36C1F018F4883579F0B5C0803719F0D4
S1130B40883721F0B0C0E92FE061BE2EB4FE0DC09D
S1130B50FB2DF460BF2E09C034FE0AC0292F266085
S1130B60B22E06C028E030E005C020E130E002C02B
S1130B7020E132E0F801B7FE07C060817181828113
S1130B8093810C5F1F4F06C06081718180E090E00B
S1130B900E5F1F4FA3010E94F307882E8618FB2DBA
S1130BA0FF773F2E36FE0DC0232D2E7FA22E8914F3
S1130BB058F434FE0BC032FC09C0832D8E7EA82E5F
S1130BC005C0B82CA32C03C0B82C01C0B92CA4FEBA
S1130BD00FC0FE01E80DF11D8081803321F49A2DB0
S1130BE0997EA92E09C0A2FE06C0B394B39404C092
S1130BF08A2D867809F0B394A3FC11C0A0FE06C028
S1130C00B21488F4280C922C9B180EC0B21460F411
S1130C10B60180E290E00E94B707B394F7CFB21414
S1130C2018F42B1802C0982C212CA4FE10C0B60175
S1130C3080E390E00E94B707A2FE17C0A1FC03C0A6
S1130C4088E790E002C088E590E0B6010CC08A2DE8
S1130C50867859F0A1FE02C08BE201C080E2A7FCB5
S1130C608DE2B60190E00E94B707891438F4B6010A
S1130C7080E390E00E94B7079A94F7CF8A94F30137
S1130C80E80DF11D8081B60190E00E94B707811044
S1130C90F5CF222009F442CEB60180E290E00E9412
S1130CA0B7072A94F6CFF6018681978102C08FEFA9
S1130CB09FEF2B96E2E10C946D080F931F93CF9353
S1130CC0DF93869F8001879F100D969F100D11243E
S1130CD0C8010E947906EC01009729F0A80160E0A0
S1130CE070E00E94A507CE01DF91CF911F910F9173
S1130CF008950F931F93CF93DF938230910510F4DF
S1130D0082E090E0E091F301F091F40120E030E022
S1130D10A0E0B0E0309719F1408151810281138144
S1130D2048175907C8F08417950769F4109731F0EC
S1130D3012960C93129713961C9327C00093F301F9
S1130D401093F40122C02115310519F042175307FD
S1130D5018F49A01BD01EF01DF01F801DBCF211581
S1130D603105F9F0281B390B2430310580F48A81D0
S1130D709B816115710521F0FB019383828304C07B
S1130D809093F4018093F301FE01329644C0FE0176
S1130D90E20FF31F81939193225031093983288301
S1130DA03AC02091F1013091F201232B41F42091BA
S1130DB00201309103013093F2012093F10120915B
S1130DC00001309101012115310541F42DB73EB7E1
S1130DD04091040150910501241B350BE091F10170
S1130DE0F091F201E217F307A0F42E1B3F0B281732
S1130DF0390778F0AC014E5F5F4F2417350748F090
S1130E004E0F5F1F5093F2014093F1018193919330
S1130E1002C0E0E0F0E0CF01DF91CF911F910F918C
S1130E200895CF93DF93009709F481C0FC013297B2
S1130E3013821282A091F301B091F401109781F40E
S1130E4020813181820F931F2091F1013091F201B1
S1130E502817390751F5F093F201E093F10167C0C7
S1130E60ED0120E030E0CE17DF0740F44A815B81DA
S1130E709E0141155105F1F0EA01F5CFD383C283F8
S1130E8040815181840F951FC817D90759F488816F
S1130E909981840F951F0296918380838A819B8117
S1130EA0938382832115310529F4F093F401E093AF
S1130EB0F3013DC0E901FB83EA8349915991C40FD1
S1130EC0D51FEC17FD0761F480819181840F951F74
S1130ED00296E90199838883828193819B838A8323
S1130EE0E0E0F0E012968D919C911397009719F031
S1130EF0FD01DC01F7CF8D919C9111979D012E5F2F
S1130F003F4F820F931F2091F1013091F201281776
S1130F10390769F4309729F41092F4011092F3011F
S1130F2002C013821282B093F201A093F101DF9107
S1130F30CF910895FC010590615070400110D8F7DD
S1130F40809590958E0F9F1F0895DC0101C06D93CD
S1130F5041505040E0F70895FC0161507040019009
S1130F600110D8F7809590958E0F9F1F08950F93C9
S1130F701F93CF93DF93FB01238121FD03C08FEFE8
S1130F809FEF2CC022FF16C04681578124813581F2
S1130F904217530744F4A081B1819D012F5F3F4F55
S1130FA0318320838C93268137812F5F3F4F378392
S1130FB0268314C08B01EC01FB010084F185E02D34
S1130FC00995892BE1F6D80116968D919C91179776
S1130FD0019617969C938E931697CE01DF91CF912D
S1130FE01F910F910895FA01AA27283051F1203159
S1130FF081F1E8946F936E7F6E5F7F4F8F4F9F4FA9
S1131000AF4FB1E03ED0B4E03CD0670F781F891FEA
S11310109A1FA11D680F791F8A1F911DA11D6A0FB8
S1131020711D811D911DA11D20D009F468943F916B
S11310302AE0269F11243019305D3193DEF6CF016A
S11310400895462F4770405D4193B3E00FD0C9F730
S1131050F6CF462F4F70405D4A3318F0495D31FD9D
S11310604052419302D0A9F7EACFB4E0A6959795F0
S1131070879577956795BA95C9F7009761057105C6
S113108008959B01AC010A2E069457954795379510
S11310902795BA95C9F7620F731F841F951FA01D6A
S11310A008952F923F924F925F926F927F928F9208
S11310B09F92AF92BF92CF92DF92EF92FF920F93E3
S11310C01F93CF93DF93CDB7DEB7CA1BDB0B0FB6ED
S11310D0F894DEBF0FBECDBF09942A8839884888AA
S11310E05F846E847D848C849B84AA84B984C88440
S11310F0DF80EE80FD800C811B81AA81B981CE0F37
S1131100D11D0FB6F894DEBF0FBECDBFED0108951B
S1071110F894FFCF7D
S11311140000F5012000001400000002000000009B
S11311241603000000000800001200104A6F792022
S1131134593A2025642C09004A6F7920583A20250D
S1131144642C09004C65667420536C696465723AB6
S11311542025642C20200900526967687420536C8C
S1131164696465723A2025642C09004C6566742010
S1131174427574746F6E3A2025642C2009005269F8
S113118467687420627574746F6E3A2025642C0940
S1131194004A6F7920627574746F6E3A2025640A6C
S11311A40D004920444F4E542057414E5420544F6F
S11311B4204D414B4520544845204655434B494E08
S11311C447204D454E55004C696E65206F7574205B
S11311D46F6620626F756E647300436F6C756D6E19
S11311E4206F7574206F6620626F756E64730000DF
S9030000FC
