:100000000C94C2010C94DF010C941A050C94DF01CE
:100010000C94DF010C94DF010C94DF010C94DF01E0
:100020000C94DF010C94DF010C94DF010C94DF01D0
:100030000C94DF010C94DF010C94DF010C94E101BE
:100040000C94DF010C94DF010C94DF010C94DF01B0
:100050000C94DF010C94DF010C94DF010C94DF01A0
:100060000C94DF010C94DF010C94DF010C94DF0190
:10007000A207A907B007B707BE07C507CC07A608A0
:10008000C008CF08DE08E508EC08F308000000000F
:100090000000000000065F5F060000000007070088
:1000A00007070000147F7F147F7F1400242E6B6BE2
:1000B0003A120000466630180C666200307A4F5DD6
:1000C000377A48000407030000000000001C3E636C
:1000D000410000000041633E1C000000082A3E1C55
:1000E0001C3E2A0808083E3E0808000000A0E06008
:1000F0000000000008080808080800000000606010
:10010000000000006030180C060301003E7F594DCE
:100110007F3E000042427F7F4040000062735949A9
:100120006F660000226349497F360000181C1613D1
:100130007F7F1000276745457D3900003C7E4B4995
:1001400079300000036371190F070000367F4949B9
:100150007F360000064F49693F1E000000006C6CAE
:100160000000000000A0EC6C00000000081C3663DA
:1001700041000000141414141414000000416336EC
:100180001C080000020351590F0600003E7F415D2C
:100190005D1F1E007C7E13137E7C0000417F7F4923
:1001A000497F36001C3E634141632200417F7F410D
:1001B000637F1C00417F7F495D416300417F7F4930
:1001C0001D0103001C3E6341517372007F7F0808CC
:1001D0007F7F000000417F7F410000003070404180
:1001E0007F3F0100417F7F081C776300417F7F4193
:1001F000406070007F7F060C067F7F007F7F060CCB
:10020000187F7F001C3E6341633E1C00417F7F4995
:10021000090F06001E3F21717F5E0000417F7F199C
:10022000396F460026674D597B32000003417F7FBE
:10023000410300007F7F40407F7F00001F3F6060E0
:100240003F1F00007F7F3018307F7F0063771C08DE
:100250001C776300074F78784F0700006773594D8C
:1002600047637100007F7F41410000000103060CDD
:10027000183060000041417F7F000000080C060339
:10028000060C08008080808080808080000003074A
:1002900004000000207454543C784000413F7F44E7
:1002A000447C3800387C44446C280000307848494D
:1002B0003F7F4000387C54545C180000487E7F49E2
:1002C0000302000098BCA4A4F87C0400417F7F08CE
:1002D000047C780000447D7D4000000040C484FD23
:1002E0007D000000417F7F10386C440000417F7F1B
:1002F000400000007C7C0C180C7C78007C7C0404A2
:100300007C780000387C44447C38000084FCF8A4ED
:10031000243C1800183C24A4F8FC8400447C784455
:100320001C180000485C54547424000000043E7FF4
:10033000442400003C7C40403C7C40001C3C60600D
:100340003C1C00003C7C6030607C3C00446C3810FD
:10035000386C44009CBCA0A0FC7C00004C64745C25
:100360004C64000008083E7741410000000000771F
:10037000770000004141773E0808000002030103B6
:100380000203010011241FBECFEFD4E0DEBFCDBFBA
:1003900012E0A0E0B1E0E2EEFFE102C005900D92B4
:1003A000A034B107D9F722E0A0E4B2E001C01D9269
:1003B000AD38B207E1F70E9431050C94EF0F0C94B1
:1003C00000001F920F920FB60F9211242F933F93AC
:1003D0004F935F936F937F938F939F93AF93BF934D
:1003E000CF93DF93EF93FF93E0910601F091070124
:1003F000108289EF90E00197F1F700C00000E091D2
:100400000601F0910701808190E090935B02809358
:100410005A02808190E090937C0280937B028081DD
:1004200090E09093490280934802808190E09093FD
:1004300057028093560280B382FB662760F970E012
:10044000709375026093740280B383FB442740F974
:1004500050E050935D0240935C0280B38295869594
:10046000877091E08927282F217030E030937E0239
:1004700020937D0280915A0290915B02C0914E02BE
:10048000D0914F028C179D0754F560915A027091DC
:100490005B02072E000C880B990B0E942B0A2091FF
:1004A0006C0230916D0240916E0250916F020E9479
:1004B000B70A20E030E048EC52E40E948109209124
:1004C0004A0230914B0240914C0250914D020E94E1
:1004D00015090E94F30970935902609358028091A4
:1004E0005A0290915B028C179D0754F160915A0259
:1004F00070915B02072E000C880B990B0E942B0A4F
:100500002091620230916302409164025091650231
:100510000E94B70A20E030E048EC52E40E948109D2
:100520002091520230915302409154025091550251
:100530000E9415090E94F3097093590260935802B2
:1005400080917B0290917C02C0916A02D0916B02F3
:100550008C179D0754F560917B0270917C02072EE9
:10056000000C880B990B0E942B0A2091700230918D
:10057000710240917202509173020E94B70A20E00A
:1005800030E048EC52E40E948109209166023091EB
:10059000670240916802509169020E9415090E9409
:1005A000F309709351026093500280917B02909105
:1005B0007C028C179D0754F160917B0270917C0244
:1005C000072E000C880B990B0E942B0A20917702B2
:1005D000309178024091790250917A020E94B70AD4
:1005E00020E030E048EC52E40E94810920915E0254
:1005F00030915F0240916002509161020E941509A2
:100600000E94F3097093510260935002809150024E
:10061000909151028C3F9F4F54F0809150029091E5
:100620005102059724F410925102109250028091C9
:100630005802909159028C3F9F4F54F0809158027C
:1006400090915902059724F4109259021092580281
:10065000FF91EF91DF91CF91BF91AF919F918F91DA
:100660007F916F915F914F913F912F910F900FBEAE
:100670000F901F9018956F927F928F929F92AF92DA
:10068000BF92CF92DF92EF92FF920F931F93CF937F
:10069000DF9383E480938B0081E180938A0082E082
:1006A00090E0909387008093860081B3806181BB46
:1006B0002FE38DE093E0215080409040E1F700C0AF
:1006C000000020E030E0C0E0D0E030C0E091060162
:1006D000F0910701108289EF90E00197F1F700C0D7
:1006E0000000E0910601F0910701408180914002F5
:1006F00090914102840F911D90934102809340029A
:1007000040818091420290914302840F911D909309
:100710004302809342028081808189EF90E00197BB
:10072000F1F700C0000021962F5F3F4F24363105BE
:100730006CF28091400290914102BE010E94240B14
:10074000262F372F60936A0270936B0280914202CA
:1007500090914302BE010E94240B60934E0270935D
:100760004F027F936F933F932F938EE191E09F937E
:100770008F930E949D0B00916A0210916B02662478
:100780006A94712C7301E01AF10AC0E1D7E2CE013C
:10079000B7010E94240B072E000C880B990B0E94B6
:1007A0002B0A4B015C01609377027093780280936F
:1007B000790290937A022CE920036001219FD00CEA
:1007C0001124C601B7010E94240B7B01072E000CE7
:1007D000880B990B0E942B0A60935E0270935F0254
:1007E0008093600290936102CE01B8010E94240BB5
:1007F000072E000C880B990B0E942B0A6093700245
:10080000709371028093720290937302C601B801D3
:100810000E94240B072E000C880B990B0E942B0AB8
:1008200060936602709367028093680290936902F6
:1008300000914E0210914F02601A710ACE01B3016D
:100840000E94240B072E000C880B990B0E942B0A88
:1008500060936202709363028093640290936502D6
:100860002CE920036001219FD00C1124C601B301A3
:100870000E94240B072E000C880B990B0E942B0A58
:1008800060935202709353028093540290935502E6
:10089000CE01B8010E94240B072E000C880B990B87
:1008A0000E942B0A60936C0270936D0280936E021B
:1008B00090936F02C601B8010E94240B072E000C12
:1008C000880B990B0E942B0A60934A0270934B028B
:1008D00080934C0290934D0220E030E04AE754E4CC
:1008E000C501B4010E94B70AFF92EF920E94F3097A
:1008F0007F936F938AE291E09F938F930E949D0B69
:1009000020E030E04AE754E4609170027091710297
:1009100080917202909173020E94B70A6B017C0170
:1009200060916602709167028091680290916902FD
:100930000E94F3097F936F93C701B6010E94F309E8
:100940007F936F938DE391E09F938F930E949D0B14
:1009500020E030E04AE754E4609162027091630263
:1009600080916402909165020E94B70A6B017C013C
:1009700060915202709153028091540290915502FD
:100980000E94F3097F936F93C701B6010E94F30998
:100990007F936F9380E591E09F938F930E949D0BCF
:1009A00020E030E04AE754E460916C0270916D02FF
:1009B00080916E0290916F020E94B70A6B017C01D8
:1009C00060914A0270914B0280914C0290914D02CD
:1009D0000E94F3097F936F93C701B6010E94F30948
:1009E0007F936F9383E691E09F938F930E949D0B7B
:1009F0001FBC82E08EBD80E889BF7894E09106013B
:100A0000F091070110828DB79EB74E960FB6F894FD
:100A10009EBF0FBE8DBFDF91CF911F910F91FF90B1
:100A2000EF90DF90CF90BF90AF909F908F907F908E
:100A30006F9008951F920F920FB60F9211248F930B
:100A4000EF93FF93E0910601F0910701808180937D
:100A50007602FF91EF918F910F900FBE0F901F9034
:100A6000189580E885BF8FE190E00E94FF086FE055
:100A700079E089E099E00E94520B80E090E00E94CA
:100A80003B030E94B0050E94A306809158029091FA
:100A900059029F938F9386E791E09F938F930E94D3
:100AA0009D0B80915002909151029F938F9382E809
:100AB00091E09F938F930E949D0B8091560290919D
:100AC00057029F938F938EE891E09F938F930E949C
:100AD0009D0B80914802909149029F938F9382EAE7
:100AE00091E09F938F930E949D0B80915C02909167
:100AF0005D029F938F9385EB91E09F938F930E946C
:100B00009D0B80917402909175029F938F9388EC56
:100B100091E09F938F930E949D0B80917D02909115
:100B20007E029F938F938BED91E09F938F930E9412
:100B30009D0B0E94F0078DB79EB74C960FB6F894A8
:100B40009EBF0FBE8DBFA1CFE0911A01F0911B0196
:100B500080830895E0911801F09119018083089530
:100B60008EEA0E94A40581EA0E94A4058AED0E94F3
:100B7000A40582E10E94A40588EC0E94A40588EAED
:100B80000E94A4058FE30E94A40585ED0E94A405A0
:100B900080E80E94A40581E80E94A40580E50E94E7
:100BA000A40589ED0E94A40581E20E94A40580E2CB
:100BB0000E94A40582E00E94A4058BED0E94A4057A
:100BC00080E30E94A4058DEA0E94A40580E00E94B3
:100BD000A40584EA0E94A40586EA0E94A4058FEA7F
:100BE0000E94A40508958091800288235CF4EFE7B9
:100BF000F2E08058818380818F5F8083883010F09D
:100C000010927F0208951F93CF93DF9310EE180F79
:100C1000C0E0D0E01CC0E12FF0E0EE0FFF1FEE0FB0
:100C2000FF1FEE0FFF1FEC0FFD1FE457FF4F8591D5
:100C300094910E94AA058091160190911701EFE707
:100C4000F2E09181890F81830E94F30521968091C2
:100C5000160190911701C817D907ECF280E090E0D7
:100C6000DF91CF911F910895CF93C82F80E20E940A
:100C7000A4058C2F0E94A405CF910895CF93C82F6F
:100C8000883078F480937F0282E090E00E943406FE
:100C900080EB8C0F0E94A40580E090E00E94340657
:100CA00006C08CEE91E00E94B30B80E090E0CF9103
:100CB0000895CF93DF93C82F8823B4F080938002E8
:100CC00082E090E00E943406DC2FD295DF708C2FFA
:100CD0008F700E94A40580E18D0F0E94A40580E022
:100CE00090E00E94340606C08FEF91E00E94B30BA3
:100CF00080E090E0DF91CF910895CF93C62F0E94BE
:100D00003E068C2F0E945906CF91089560E070E056
:100D100080E090E00E947D060895CF93DF93D82F66
:100D200060E070E090E00E947D06C0E004C080E0DA
:100D30000E94AA05CF5FCC23D4F78D2F0E943E06D8
:100D4000DF91CF910895CF93C0E005C08C2F90E044
:100D50000E948D06CF5FC830C8F30E948606CF91EF
:100D60000895CF93DF93D0E00FC060E070E08D2F47
:100D700090E00E947D06C0E004C080E00E94AA05C9
:100D8000CF5FC830D0F3DF5FD83078F3DF91CF91F9
:100D900008950E947D0688E10E94AA0588E10E94CC
:100DA000AA058EE70E94AA058CE30E94AA0588E1A5
:100DB0000E94AA050895CF93DF93CDB7DEB7AE01A9
:100DC0004B5F5F4FFA0161917191AF0188E091E053
:100DD0000E94E30BDF91CF910895FC010190002068
:100DE000E9F73197E81BF90B8091160190911701F3
:100DF0008E9F90018F9F300D9E9F300D1124369550
:100E0000279580E4821B0E94590608950E94860659
:100E100084E192E00E94ED0684E192E09F938F933B
:100E20000E94DB0669E087E00E947D0689E192E08E
:100E30009F938F930E94DB0680915A0290915B02F0
:100E40000F900F900F900F90883C9105DCF48091EB
:100E5000440290914502019731F0809146029091B1
:100E60004702019779F480915A0290915B0285368E
:100E7000910544F0109245021092440210924702EC
:100E80001092460280915A0290915B02883C910533
:100E90001CF18091460290914702892BE9F48091E0
:100EA0008102909182020197909382028093810245
:100EB00081E090E090934702809346020E94B10641
:100EC0008091810290918202892B31F487E090E039
:100ED000909382028093810280915A0290915B02EA
:100EE000853691051CF58091440290914502892B2D
:100EF000E9F480918102909182020196909382029E
:100F00008093810281E090E09093450280934402B7
:100F10000E94B1068091810290918202089731F47B
:100F200081E090E09093820280938102E0918102BF
:100F3000F09182023197E730F105A0F5E85CFF4FB0
:100F40000C94380B81E090E090931D0180931C017C
:100F500029C082E090E090931D0180931C0122C083
:100F600083E090E090931D0180931C011BC084E0FE
:100F700090E090931D0180931C0114C085E090E0E7
:100F800090931D0180931C010DC086E090E090932A
:100F90001D0180931C0106C087E090E090931D0125
:100FA00080931C0160E080911C010E94C906809121
:100FB0007D0290917E02019709F028CF80911C015B
:100FC00090911D01079709F021CF81E090E0909367
:100FD0001D0180931C010E94A3060E94B106089582
:100FE0000E9486068EE192E00E94ED068EE192E07C
:100FF0009F938F930E94DB0669E081E00E947D064B
:1010000084E192E09F938F930E94DB0669E082E087
:101010000E947D0688E292E09F938F930E94DB06F8
:1010200069E083E00E947D0684E392E09F938F93C2
:101030000E94DB0680915A0290915B022DB73EB769
:10104000285F3F4F0FB6F8943EBF0FBE2DBF883CC0
:101050009105DCF48091440290914502019731F0B2
:101060008091460290914702019779F480915A024B
:1010700090915B028536910544F0109245021092E2
:101080004402109247021092460280915A029091B7
:101090005B02883C91051CF18091460290914702C9
:1010A000892BE9F4809181029091820201979093BB
:1010B00082028093810281E090E0909347028093C6
:1010C00046020E94B1068091810290918202892B92
:1010D00031F487E090E090938202809381028091C6
:1010E0005A0290915B02853691051CF5809144026D
:1010F00090914502892BE9F48091810290918202BE
:101100000196909382028093810281E090E0909317
:101110004502809344020E94B10680918102909121
:101120008202089731F481E090E0909382028093EC
:101130008102E0918102F09182023197E730F1055E
:1011400008F057C0E15CFF4F0C94380B81E090E051
:1011500090931D0180931C0180917D0290917E02ED
:10116000019709F046C00E94A3060E9406070E944C
:10117000B10681E090E0909382028093810239C0B1
:1011800082E090E090931D0180931C0180917D028C
:1011900090917E02019769F50E94A306FFCF83E03C
:1011A00090E090931D0180931C0180917D029091AD
:1011B0007E020197F1F40E94A306FFCF84E090E045
:1011C00090931D0180931C0114C085E090E09093E2
:1011D0001D0180931C010DC086E090E090931D01DD
:1011E00080931C0106C087E090E090931D018093DE
:1011F0001C0160E080911C010E94C90608952BB17A
:101200002D7F2BB990BD89B988E18AB98EE880BD60
:1012100008955D9BFECF8CB980E090E008955D9BC2
:10122000FECF8CB190E008955058BB27AA270E94AA
:101230002C090C947D0A0E946F0A38F00E94760AED
:1012400020F039F49F3F19F426F40C946C0A0EF444
:10125000E095E7FB0C94660AE92F0E948E0A58F38A
:10126000BA17620773078407950720F079F4A6F58B
:101270000C94B00A0EF4E0950B2EBA2FA02D0B01A2
:10128000B90190010C01CA01A0011124FF27591BCB
:1012900099F0593F50F4503E68F11A16F040A22FD1
:1012A000232F342F4427585FF3CF46953795279542
:1012B000A795F0405395C9F77EF41F16BA0B620B41
:1012C000730B840BBAF09150A1F0FF0FBB1F661F88
:1012D000771F881FC2F70EC0BA0F621F731F841FCB
:1012E00048F4879577956795B795F7959E3F08F0F1
:1012F000B0CF9395880F08F09927EE0F97958795B3
:1013000008950E9495090C947D0A0E94760A58F06F
:101310000E946F0A40F029F45F3F29F00C94660A9E
:1013200051110C94B10A0C946C0A0E948E0A68F355
:101330009923B1F3552391F3951B550BBB27AA278E
:1013400062177307840738F09F5F5F4F220F331FC8
:10135000441FAA1FA9F335D00E2E3AF0E0E832D090
:1013600091505040E695001CCAF72BD0FE2F29D093
:10137000660F771F881FBB1F261737074807AB0765
:10138000B0E809F0BB0B802DBF01FF2793585F4FDA
:101390003AF09E3F510578F00C94660A0C94B10A1D
:1013A0005F3FE4F3983ED4F3869577956795B795BC
:1013B000F7959F5FC9F7880F911D9695879597F9C7
:1013C0000895E1E0660F771F881FBB1F6217730740
:1013D0008407BA0720F0621B730B840BBA0BEE1F55
:1013E00088F7E09508950E94FA096894B1110C9469
:1013F000B10A08950E94960A88F09F5798F0B92F75
:101400009927B751B0F0E1F0660F771F881F991F39
:101410001AF0BA95C9F714C0B13091F00E94B00A21
:10142000B1E008950C94B00A672F782F8827B85F31
:1014300039F0B93FCCF3869577956795B395D9F791
:101440003EF490958095709561957F4F8F4F9F4F9B
:101450000895E89409C097FB3EF4909580957095A7
:1014600061957F4F8F4F9F4F9923A9F0F92F96E9F0
:10147000BB279395F695879577956795B795F11165
:10148000F8CFFAF4BB0F11F460FF1BC06F5F7F4F02
:101490008F4F9F4F16C0882311F096E911C0772314
:1014A00021F09EE8872F762F05C0662371F096E81D
:1014B000862F70E060E02AF09A95660F771F881FEC
:1014C000DAF7880F9695879597F9089597F99F67AA
:1014D00080E870E060E008959FEF80EC08950024BC
:1014E0000A941616170618060906089500240A9489
:1014F00012161306140605060895092E0394000C0F
:1015000011F4882352F0BB0F40F4BF2B11F460FF9D
:1015100004C06F5F7F4F8F4F9F4F089557FD9058C6
:10152000440F551F59F05F3F71F04795880F97FBA7
:10153000991F61F09F3F79F0879508951216130661
:101540001406551FF2CF4695F1DF08C01616170690
:101550001806991FF1CF86957105610508940895C5
:10156000E894BB2766277727CB0197F908950E9457
:10157000CA0A0C947D0A0E946F0A38F00E94760A0B
:1015800020F0952311F00C94660A0C946C0A112437
:101590000C94B10A0E948E0A70F3959FC1F3950FC7
:1015A00050E0551F629FF001729FBB27F00DB11DE7
:1015B000639FAA27F00DB11DAA1F649F6627B00D77
:1015C000A11D661F829F2227B00DA11D621F739F60
:1015D000B00DA11D621F839FA00D611D221F749F6E
:1015E0003327A00D611D231F849F600D211D822FB5
:1015F000762F6A2F11249F5750409AF0F1F08823DC
:101600004AF0EE0FFF1FBB1F661F771F881F915008
:101610005040A9F79E3F510580F00C94660A0C9447
:10162000B10A5F3FE4F3983ED4F3869577956795CA
:10163000B795F795E7959F5FC1F7FE2B880F911D32
:101640009695879597F9089597FB072E16F40094C1
:1016500007D077FD09D00E943E0B07FC05D03EF471
:10166000909581959F4F0895709561957F4F08954E
:10167000EE0FFF1F0590F491E02D0994AA1BBB1BF0
:1016800051E107C0AA1FBB1FA617B70710F0A61B82
:10169000B70B881F991F5A95A9F780959095BC01A3
:1016A000CD0108950F931F93CF93DF93009731F4EB
:1016B0006115710519F480E090E03AC08B01EC01EE
:1016C0006EE070E081E090E00E94C40DFC01892B87
:1016D00091F380E883830115110571F01387028768
:1016E00081E883838091830290918402892B21F485
:1016F000F0938402E09383022097C9F0D187C087DA
:101700008381826083838091850290918602892BF8
:1017100071F4F0938602E0938502809187029091A4
:101720008802892B21F4F0938802E0938702CF018D
:10173000DF91CF911F910F910895A0E0B0E0E3EA0F
:10174000FBE00C94C80FAE014B5F5F4FFA01619153
:101750007191AF0180918502909186020E94E30B06
:10176000E2E00C94E40F0F931F93CF93DF93E0918B
:101770008502F0918602238121FF1BC08C01D0E0FD
:10178000C0E0F80181918F0160918502709186021D
:10179000DB011896ED91FC911997882331F009959A
:1017A000892B79F3DFEFCFEFECCF8AE00995892B16
:1017B00019F08FEF9FEF02C08D2F9C2FDF91CF91FB
:1017C0001F910F910895ABE0B0E0E9EEFBE00C94BF
:1017D000B80F6C017B018A01FC011782168283819C
:1017E00081FFCCC1CE0101963C01F6019381F70146
:1017F00093FD859193FF81917F01882309F4BAC1FC
:10180000853239F493FD859193FF81917F01853273
:1018100029F4B60190E00E941E0FE7CF912C212CF5
:10182000312CFFE1F315D8F08B3279F038F48032A7
:1018300079F08332A1F4232D20611DC08D3261F037
:10184000803369F4232D216016C0832D8260382EE9
:10185000E32DE4603E2E2AC0F32DF8601DC037FC56
:101860002DC020ED280F2A3040F08E32B9F436FC1E
:1018700081C1232D2064322E19C036FE06C08AE0B5
:10188000989E200D1124922E11C0EAE02E9E200D6C
:101890001124222EF32DF0623F2E08C08C3621F445
:1018A000832D8068382E02C0883641F4F70193FDFD
:1018B000859193FF81917F018111B3CF982F9F7DF7
:1018C0009554933028F40C5F1F4F9FE399830DC00C
:1018D000833631F0833771F0833509F059C021C068
:1018E000F801808189830E5F1F4F88248394912C97
:1018F000530113C02801F2E04F0E511CF801A080E3
:10190000B18036FE03C0692D70E002C06FEF7FEF3B
:10191000C5010E94130F4C018201F32DFF773F2E6A
:1019200016C0280122E0420E511CF801A080B180AF
:1019300036FE03C0692D70E002C06FEF7FEFC50176
:101940000E94010F4C01F32DF0683F2E820133FC01
:101950001BC0822D90E088169906B0F4B60180E293
:1019600090E00E941E0F2A94F4CFF50137FC859178
:1019700037FE81915F01B60190E00E941E0F211099
:101980002A9421E0821A91088114910471F7E8C029
:10199000843611F0893641F5F80137FE07C06081C1
:1019A0007181828193810C5F1F4F08C060817181BA
:1019B000072E000C880B990B0E5F1F4FF32DFF763F
:1019C0003F2E97FF09C090958095709561957F4F48
:1019D0008F4F9F4FF0683F2E2AE030E0A3010E9416
:1019E0005A0F882E861845C0853731F4232D2F7E57
:1019F000B22E2AE030E025C0932D997FB92E8F3684
:101A0000C1F018F4883579F0B5C0803719F08837FF
:101A100021F0B0C0E92FE061BE2EB4FE0DC0FB2D59
:101A2000F460BF2E09C034FE0AC0292F2660B22EF2
:101A300006C028E030E005C020E130E002C020E12F
:101A400032E0F801B7FE07C0608171818281938125
:101A50000C5F1F4F06C06081718180E090E00E5FD7
:101A60001F4FA3010E945A0F882E8618FB2DFF7767
:101A70003F2E36FE0DC0232D2E7FA22E891458F442
:101A800034FE0BC032FC09C0832D8E7EA82E05C00B
:101A9000B82CA32C03C0B82C01C0B92CA4FE0FC0D5
:101AA000FE01E80DF11D8081803321F49A2D997E8D
:101AB000A92E09C0A2FE06C0B394B39404C08A2D17
:101AC000867809F0B394A3FC11C0A0FE06C0B2143E
:101AD00088F4280C922C9B180EC0B21460F4B60146
:101AE00080E290E00E941E0FB394F7CFB21418F476
:101AF0002B1802C0982C212CA4FE10C0B60180E344
:101B000090E00E941E0FA2FE17C0A1FC03C088E750
:101B100090E002C088E590E0B6010CC08A2D86787E
:101B200059F0A1FE02C08BE201C080E2A7FC8DE269
:101B3000B60190E00E941E0F891438F4B60180E3CC
:101B400090E00E941E0F9A94F7CF8A94F301E80D5B
:101B5000F11D8081B60190E00E941E0F8110F5CF2B
:101B6000222009F442CEB60180E290E00E941E0FCE
:101B70002A94F6CFF6018681978102C08FEF9FEFFE
:101B80002B96E2E10C94D40F0F931F93CF93DF9326
:101B9000869F8001879F100D969F100D1124C8010C
:101BA0000E94E00DEC01009729F0A80160E070E0D0
:101BB0000E940C0FCE01DF91CF911F910F910895DC
:101BC0000F931F93CF93DF938230910510F482E03F
:101BD00090E0E0918B02F0918C0220E030E0A0E0F8
:101BE000B0E0309719F1408151810281138148178B
:101BF0005907C8F08417950769F4109731F01296C9
:101C00000C93129713961C9327C000938B0210938A
:101C10008C0222C02115310519F04217530718F420
:101C20009A01BD01EF01DF01F801DBCF211531057C
:101C3000F9F0281B390B2430310580F48A819B810F
:101C40006115710521F0FB019383828304C0909399
:101C50008C0280938B02FE01329644C0FE01E20F9B
:101C6000F31F8193919322503109398328833AC01D
:101C70002091890230918A02232B41F420910201A4
:101C80003091030130938A02209389022091000150
:101C9000309101012115310541F42DB73EB7409136
:101CA000040150910501241B350BE0918902F0914C
:101CB0008A02E217F307A0F42E1B3F0B28173907FF
:101CC00078F0AC014E5F5F4F2417350748F04E0F98
:101CD0005F1F50938A02409389028193919302C0BF
:101CE000E0E0F0E0CF01DF91CF911F910F910895D7
:101CF000CF93DF93009709F481C0FC0132971382E0
:101D00001282A0918B02B0918C02109781F42081F5
:101D10003181820F931F2091890230918A02281706
:101D2000390751F5F0938A02E093890267C0ED010B
:101D300020E030E0CE17DF0740F44A815B819E014E
:101D400041155105F1F0EA01F5CFD383C2834081FB
:101D50005181840F951FC817D90759F4888199813B
:101D6000840F951F0296918380838A819B81938340
:101D700082832115310529F4F0938C02E0938B02C4
:101D80003DC0E901FB83EA8349915991C40FD51FF6
:101D9000EC17FD0761F480819181840F951F0296F5
:101DA000E90199838883828193819B838A83E0E020
:101DB000F0E012968D919C911397009719F0FD0118
:101DC000DC01F7CF8D919C9111979D012E5F3F4FC4
:101DD000820F931F2091890230918A0228173907B8
:101DE00069F4309729F410928C0210928B0202C091
:101DF00013821282B0938A02A0938902DF91CF915D
:101E00000895FC010590615070400110D8F780954D
:101E100090958E0F9F1F0895DC0101C06D93415076
:101E20005040E0F70895FC016150704001900110AE
:101E3000D8F7809590958E0F9F1F08950F931F934D
:101E4000CF93DF93FB01238121FD03C08FEF9FEF31
:101E50002CC022FF16C0468157812481358142174C
:101E6000530744F4A081B1819D012F5F3F4F31831F
:101E700020838C93268137812F5F3F4F37832683C2
:101E800014C08B01EC01FB010084F185E02D099564
:101E9000892BE1F6D80116968D919C9117970196A2
:101EA00017969C938E931697CE01DF91CF911F9139
:101EB0000F910895FA01AA27283051F1203181F1BC
:101EC000E8946F936E7F6E5F7F4F8F4F9F4FAF4F42
:101ED000B1E03ED0B4E03CD0670F781F891F9A1F55
:101EE000A11D680F791F8A1F911DA11D6A0F711D09
:101EF000811D911DA11D20D009F468943F912AE015
:101F0000269F11243019305D3193DEF6CF010895FC
:101F1000462F4770405D4193B3E00FD0C9F7F6CF2D
:101F2000462F4F70405D4A3318F0495D31FD4052F5
:101F3000419302D0A9F7EACFB4E0A695979587958B
:101F400077956795BA95C9F700976105710508956A
:101F50009B01AC010A2E0694579547953795279516
:101F6000BA95C9F7620F731F841F951FA01D0895AE
:101F70002F923F924F925F926F927F928F929F9299
:101F8000AF92BF92CF92DF92EF92FF920F931F9387
:101F9000CF93DF93CDB7DEB7CA1BDB0B0FB6F89438
:101FA000DEBF0FBECDBF09942A88398848885F8478
:101FB0006E847D848C849B84AA84B984C884DF80E9
:101FC000EE80FD800C811B81AA81B981CE0FD11DCD
:101FD0000FB6F894DEBF0FBECDBFED010895F894A3
:021FE000FFCF31
:101FE20000008D022000001400000002000000002A
:101FF20003060000000008000012001001000A0A97
:102002000D202564202564200A00506F7320783A41
:102012002025642A78202B2025640A0D004E65674E
:1020220020783A2025642A78202B2025640A0D0086
:10203200506F7320793A2025642A79202B20256459
:102042000A0D004E656720793A2025642A79202BF3
:102052002025640A0D004A6F7920593A2025642C04
:1020620009004A6F7920583A2025642C09004C65F2
:10207200667420536C696465723A2025642C2020B2
:102082000900526967687420536C696465723A206A
:1020920025642C09004C65667420427574746F6E59
:1020A2003A2025642C200900526967687420627501
:1020B20074746F6E3A2025642C09004A6F7920628D
:1020C2007574746F6E3A2025640A0D004C696E6552
:1020D200206F7574206F6620626F756E64730043A3
:1020E2006F6C756D6E206F7574206F6620626F75F0
:1020F2006E647300506C61790051756974004D61B2
:10210200696E206D656E7500486967682073636F3C
:1021120072657300446966666963756C7479000060
:00000001FF
