:100000000C94BB010C94D8010C9413050C94D801EA
:100010000C94D8010C94D8010C94D8010C94D801FC
:100020000C94D8010C94D8010C94D8010C94D801EC
:100030000C94D8010C94D8010C94D8010C94DA01DA
:100040000C94D8010C94D8010C94D8010C94D801CC
:100050000C94D8010C94D8010C94D8010C94D801BC
:100060000C94D8010C94D8010C94D8010C94D801AC
:10007000F707FE0705080C0813081A0821080000F6
:1000800000000000000000065F5F0600000000079F
:10009000070007070000147F7F147F7F1400242EC1
:1000A0006B6B3A120000466630180C666200307ABC
:1000B0004F5D377A48000407030000000000001C71
:1000C0003E63410000000041633E1C000000082A1E
:1000D0003E1C1C3E2A0808083E3E0808000000A0FE
:1000E000E0600000000008080808080800000000A0
:1000F0006060000000006030180C060301003E7FC5
:10010000594D7F3E000042427F7F404000006273B5
:1001100059496F660000226349497F360000181C68
:1001200016137F7F1000276745457D3900003C7E10
:100130004B4979300000036371190F070000367FC7
:1001400049497F360000064F49693F1E0000000004
:100150006C6C0000000000A0EC6C00000000081CAB
:1001600036634100000014141414141400000041FC
:1001700063361C080000020351590F0600003E7F41
:10018000415D5D1F1E007C7E13137E7C0000417F5D
:100190007F49497F36001C3E634141632200417F15
:1001A0007F41637F1C00417F7F495D416300417F48
:1001B0007F491D0103001C3E6341517372007F7F24
:1001C00008087F7F000000417F7F41000000307001
:1001D00040417F3F0100417F7F081C776300417FE2
:1001E0007F41406070007F7F060C067F7F007F7F2D
:1001F000060C187F7F001C3E6341633E1C00417F5C
:100200007F49090F06001E3F21717F5E0000417F7C
:100210007F19396F460026674D597B320000034134
:100220007F7F410300007F7F40407F7F00001F3FB2
:1002300060603F1F00007F7F3018307F7F00637752
:100240001C081C776300074F78784F07000067731E
:10025000594D47637100007F7F4141000000010359
:10026000060C183060000041417F7F000000080C40
:100270000603060C0800808080808080808000005B
:10028000030704000000207454543C784000413FB0
:100290007F44447C3800387C44446C28000030782B
:1002A00048493F7F4000387C54545C180000487E29
:1002B0007F490302000098BCA4A4F87C0400417F9D
:1002C0007F08047C780000447D7D4000000040C42D
:1002D00084FD7D000000417F7F10386C44000041A8
:1002E0007F7F400000007C7C0C180C7C78007C7CBC
:1002F00004047C780000387C44447C38000084FC92
:10030000F8A4243C1800183C24A4F8FC8400447C85
:1003100078441C180000485C545474240000000405
:100320003E7F442400003C7C40403C7C40001C3C20
:1003300060603C1C00003C7C6030607C3C00446C95
:100340003810386C44009CBCA0A0FC7C00004C64BD
:10035000745C4C64000008083E77414100000000D6
:100360000077770000004141773E08080000020353
:1003700001030203010011241FBECFEFD4E0DEBF52
:10038000CDBF12E0A0E0B1E0E0E6FFE102C00590E1
:100390000D92A83EB107D9F723E0A8EEB2E001C064
:1003A0001D92A933B207E1F70E94A6050C94AE0F87
:1003B0000C9400001F920F920FB60F9211242F93EE
:1003C0003F934F935F936F937F938F939F93AF93DD
:1003D000BF93CF93DF93EF93FF93E0910601F091EA
:1003E0000701108289EF90E00197F1F700C000004B
:1003F000E0910601F0910701808190E09093050360
:1004000080930403808190E09093260380932503DA
:10041000808190E09093F3028093F202808190E0DB
:10042000909301038093000380B382FB662760F9F9
:1004300070E070931F0360931E0380B383FB442717
:1004400040F950E0509307034093060380B3829530
:100450008695877091E08927282F217030E03093AE
:100460002803209327038091040390910503C091F2
:10047000F802D091F9028C179D0754F5609104039E
:1004800070910503072E000C880B990B0E94EA0956
:1004900020911603309117034091180350911903CE
:1004A0000E94760A20E030E048EC52E40E944009C5
:1004B0002091F4023091F5024091F6025091F7023A
:1004C0000E94D4080E94B209709303036093020350
:1004D00080910403909105038C179D0754F160915E
:1004E000040370910503072E000C880B990B0E94E2
:1004F000EA0920910C0330910D0340910E035091B5
:100500000F030E94760A20E030E048EC52E40E949B
:1005100040092091FC023091FD024091FE02509171
:10052000FF020E94D4080E94B209709303036093F3
:1005300002038091250390912603C0911403D0916A
:1005400015038C179D0754F56091250370912603C0
:10055000072E000C880B990B0E94EA0920911A03C0
:1005600030911B0340911C0350911D030E94760A99
:1005700020E030E048EC52E40E9440092091100352
:100580003091110340911203509113030E94D4083B
:100590000E94B2097093FB026093FA0280912503D6
:1005A000909126038C179D0754F16091250370915B
:1005B0002603072E000C880B990B0E94EA09209154
:1005C00021033091220340912303509124030E9480
:1005D000760A20E030E048EC52E40E944009209185
:1005E00008033091090340910A0350910B030E94C4
:1005F000D4080E94B2097093FB026093FA028091C2
:10060000FA029091FB028C3F9F4F54F08091FA02C6
:100610009091FB02059724F41092FB021092FA02CB
:1006200080910203909103038C3F9F4F54F080917F
:10063000020390910303059724F410920303109290
:100640000203FF91EF91DF91CF91BF91AF919F9105
:100650008F917F916F915F914F913F912F910F906B
:100660000FBE0F901F9018956F927F928F929F925E
:10067000AF92BF92CF92DF92EF92FF920F931F93B0
:10068000CF93DF9383E480938B0081E180938A0092
:1006900082E090E0909387008093860081B3806130
:1006A00081BB2FE38DE093E0215080409040E1F743
:1006B00000C0000020E030E0C0E0D0E030C0E091B9
:1006C0000601F0910701108289EF90E00197F1F7A0
:1006D00000C00000E0910601F09107014081809187
:1006E000E8029091E902840F911D9093E9028093B2
:1006F000E80240818091EA029091EB02840F911D03
:100700009093EB028093EA028081808189EF90E0F0
:100710000197F1F700C0000021962F5F3F4F24366C
:1007200031056CF28091E8029091E902BE010E94CD
:10073000E30A262F372F60931403709315038091DB
:10074000EA029091EB02BE010E94E30A6093F80274
:100750007093F9027F936F933F932F938EE191E013
:100760009F938F930E945C0B0091140310911503CB
:1007700066246A94712C7301E01AF10AC0E1D7E291
:10078000CE01B7010E94E30A072E000C880B990BDB
:100790000E94EA094B015C016093210370932203DC
:1007A00080932303909324032CE920036001219F6D
:1007B000D00C1124C601B7010E94E30A7B01072E69
:1007C000000C880B990B0E94EA0960930803709350
:1007D000090380930A0390930B03CE01B8010E9492
:1007E000E30A072E000C880B990B0E94EA0960931C
:1007F0001A0370931B0380931C0390931D03C6017F
:10080000B8010E94E30A072E000C880B990B0E9486
:10081000EA0960931003709311038093120390937D
:1008200013030091F8021091F902601A710ACE01C7
:10083000B3010E94E30A072E000C880B990B0E945B
:10084000EA0960930C0370930D0380930E03909359
:100850000F032CE920036001219FD00C1124C60155
:10086000B3010E94E30A072E000C880B990B0E942B
:10087000EA096093FC027093FD028093FE0290935C
:10088000FF02CE01B8010E94E30A072E000C880B7C
:10089000990B0E94EA0960931603709317038093E3
:1008A000180390931903C601B8010E94E30A072EAA
:1008B000000C880B990B0E94EA096093F402709374
:1008C000F5028093F6029093F70220E030E04AE7C9
:1008D00054E4C501B4010E94760AFF92EF920E948F
:1008E000B2097F936F938AE291E09F938F930E9466
:1008F0005C0B20E030E04AE754E460911A03709109
:100900001B0380911C0390911D030E94760A6B01CA
:100910007C016091100370911103809112039091FA
:1009200013030E94B2097F936F93C701B6010E941F
:10093000B2097F936F938DE391E09F938F930E9411
:100940005C0B20E030E04AE754E460910C037091C6
:100950000D0380910E0390910F030E94760A6B01A4
:100960007C016091FC027091FD028091FE029091E9
:10097000FF020E94B2097F936F93C701B6010E94E4
:10098000B2097F936F9380E591E09F938F930E94CC
:100990005C0B20E030E04AE754E46091160370916C
:1009A000170380911803909119030E94760A6B0136
:1009B0007C016091F4027091F5028091F6029091B1
:1009C000F7020E94B2097F936F93C701B6010E949C
:1009D000B2097F936F9383E691E09F938F930E9478
:1009E0005C0B1FBC82E08EBD80E889BF7894E091EB
:1009F0000601F091070110828DB79EB74E960FB693
:100A0000F8949EBF0FBE8DBFDF91CF911F910F91C4
:100A1000FF90EF90DF90CF90BF90AF909F908F901E
:100A20007F906F9008951F920F920FB60F9211242E
:100A30008F93EF93FF93E0910601F091070180817E
:100A400080932003FF91EF918F910F900FBE0F9035
:100A50001F90189518BA089580E188BB0895CF9328
:100A6000C82F0E942A0583E00E94B5088C2F0E949F
:100A7000B5080E94B908C82F0E942C058C2FCF9171
:100A80000895CF93DF93D82FC62F0E942A0582E0C6
:100A90000E94B5088D2F0E94B5088C2F0E94B508C2
:100AA0000E942C05DF91CF9108950E942A0580ECC9
:100AB0000E94B5080E942C0583EC99E00197F1F79C
:100AC00000C000000895CF93DF93D82F0E94AD0897
:100AD0000E9455058EE00E942F05807E803861F0CF
:100AE0001F928F9386E791E09F938F930E945C0BF8
:100AF0000F900F900F900F906D2F8FE00E94410587
:100B00008EE00E942F05C82F1F928F938CEB91E0EF
:100B10009F938F930E945C0BC07E0F900F900F905D
:100B20000F90DC1781F01F92CF9381EC91E09F939F
:100B30008F930E945C0B86E092E00E94720B0F90F4
:100B40000F900F900F90DF91CF91089580E885BFAF
:100B50008FE190E00E94BE086EEC78E088EC98E0AF
:100B60000E94110B80E090E00E9434030E9427064F
:100B700080E490E00E94630580910203909103035A
:100B80009F938F9389E092E09F938F930E945C0BD9
:100B90008091FA029091FB029F938F9385E192E0FE
:100BA0009F938F930E945C0B8091000390910103AF
:100BB0009F938F9381E292E09F938F930E945C0BAF
:100BC0008091F2029091F3029F938F9385E392E0DC
:100BD0009F938F930E945C0B809106039091070373
:100BE0009F938F9388E492E09F938F930E945C0B76
:100BF00080911E0390911F039F938F938BE592E04A
:100C00009F938F930E945C0B809127039091280300
:100C10009F938F938EE692E09F938F930E945C0B3D
:100C20000E9465078DB79EB74C960FB6F8949EBF8D
:100C30000FBE8DBF9DCFE0911A01F0911B01808303
:100C40000895E0911801F0911901808308958EEACA
:100C50000E941B0681EA0E941B068AED0E941B0669
:100C600082E10E941B0688EC0E941B0688EA0E9413
:100C70001B068FE30E941B0685ED0E941B0680E881
:100C80000E941B0681E80E941B0680E50E941B064D
:100C900089ED0E941B0681E20E941B0680E20E94F1
:100CA0001B0682E00E941B068BED0E941B0680E360
:100CB0000E941B068DEA0E941B0680E00E941B0614
:100CC00084EA0E941B0686EA0E941B068FEA0E94A5
:100CD0001B06089580912A0388235CF4E9E2F3E07F
:100CE0008058818380818F5F8083883010F01092DC
:100CF000290308951F93CF93DF9310EE180FC0E0E0
:100D0000D0E01CC0E12FF0E0EE0FFF1FEE0FFF1F41
:100D1000EE0FFF1FEC0FFD1FE258FF4F85919491DE
:100D20000E9421068091160190911701E9E2F3E0FB
:100D30009181890F81830E946A0621968091160114
:100D400090911701C817D907ECF280E090E0DF918D
:100D5000CF911F910895CF93C82F80E20E941B0668
:100D60008C2F0E941B06CF910895CF93C82F8830F7
:100D700078F48093290382E090E00E94AB0680EB38
:100D80008C0F0E941B0680E090E00E94AB0606C01C
:100D90008FE792E00E94720B80E090E0CF9108957F
:100DA000CF93DF93C82F8823B4F080932A0382E087
:100DB00090E00E94AB06DC2FD295DF708C2F8F70F5
:100DC0000E941B0680E18D0F0E941B0680E090E0D0
:100DD0000E94AB0606C082E992E00E94720B80E09E
:100DE00090E0DF91CF910895CF93C62F0E94B50672
:100DF0008C2F0E94D006CF91089560E070E080E0D3
:100E000090E00E94F4060895CF93DF93D82F60E01E
:100E100070E090E00E94F406C0E004C080E00E9410
:100E20002106CF5FCC23D4F78D2F0E94B506DF912A
:100E3000CF910895CF93C0E005C08C2F90E00E9421
:100E40000407CF5FC830C8F30E94FD06CF91089514
:100E50000E94F40688E10E94210688E10E94210692
:100E60008EE70E9421068CE30E94210688E10E9401
:100E700021060895CF93DF93CDB7DEB7AE014B5F68
:100E80005F4FFA0161917191AF0188E091E00E949A
:100E9000A20BDF91CF910895FC0101900020E9F7AA
:100EA0003197E81BF90B80911601909117018E9FE5
:100EB00090018F9F300D9E9F300D11243695279500
:100EC00080E4821B0E94D0060895CF93DF93CDB7B4
:100ED000DEB728970FB6F894DEBF0FBECDBF00E097
:100EE00010E032C18091EC029091ED02019731F057
:100EF0008091EE029091EF02019779F480910403C2
:100F0000909105038536910524F01092ED02109220
:100F1000EC021092EF021092EE0280910403909185
:100F20000503883C910544F18091EE029091EF0217
:100F3000892B11F580912D0390912E0301979093A9
:100F40002E0380932D03EE24E394F12CF092EF0214
:100F5000E092EE020E941A07F0921D01E0921C013D
:100F600080912D0390912E03892B31F487E090E03E
:100F700090932E0380932D03809104039091050399
:100F80008536910544F58091EC029091ED02892B14
:100F900011F580912D0390912E03019690932E03CD
:100FA00080932D03EE24E394F12CF092ED02E09275
:100FB000EC020E941A07F0921D01E0921C01809140
:100FC0002D0390912E03089731F481E090E09093E7
:100FD0002E0380932D03E0912D03F0912E03319782
:100FE000E730F105A0F5E85CFF4F0C94F70A81E0CB
:100FF00090E09093F1028093F00229C082E090E0AB
:101000009093F1028093F00222C083E090E09093ED
:10101000F1028093F0021BC084E090E09093F10213
:101020008093F00214C085E090E09093F1028093E9
:10103000F0020DC086E090E09093F1028093F00200
:1010400006C087E090E09093F1028093F00260E0A8
:101050008091F0020E9428070E941A0787EA92E016
:101060000E944C0787EA92E09F938F930E943A0771
:1010700069E081E00E94F40681EB92E09F938F93F8
:101080000E943A0769E082E00E94F40686EB92E053
:101090009F938F930E943A0769E083E00E94F406D1
:1010A00082EC92E09F938F930E943A0780912D03E8
:1010B00090912E039C838B8380912703909128032A
:1010C0000FB6F894DEBF0FBECDBF08171907C1F1E8
:1010D0008091270390912803019791F50E941A07A8
:1010E0002BC081EB92E00E944C0781EB92E09F9332
:1010F0008F930E943A0769E087E00E94F4068DEC26
:1011000092E09F938F930E943A07809127039091DA
:1011100028030F900F900F900F900817190741F0B8
:101120008091270390912803019711F41C821B8260
:1011300000912703109128038B819C81019789F2EC
:1011400000912703109128038091040390910503D7
:10115000883C91050CF4C6CEE0CE80EB87BB81E5E0
:101160008DB988B3806188BB08958FB9779BFECF16
:1011700008951FB8779BFECF8FB108952BB12D7FB7
:101180002BB990BD89B988E18AB98EE880BD0895F0
:101190005D9BFECF8CB980E090E008955D9BFECF13
:1011A0008CB190E008955058BB27AA270E94EB0805
:1011B0000C943C0A0E942E0A38F00E94350A20F056
:1011C00039F49F3F19F426F40C942B0A0EF4E095A1
:1011D000E7FB0C94250AE92F0E944D0A58F3BA1731
:1011E000620773078407950720F079F4A6F50C943D
:1011F0006F0A0EF4E0950B2EBA2FA02D0B01B9014A
:1012000090010C01CA01A0011124FF27591B99F07C
:10121000593F50F4503E68F11A16F040A22F232F88
:10122000342F4427585FF3CF469537952795A795D8
:10123000F0405395C9F77EF41F16BA0B620B730B7F
:10124000840BBAF09150A1F0FF0FBB1F661F771FF0
:10125000881FC2F70EC0BA0F621F731F841F48F4A5
:10126000879577956795B795F7959E3F08F0B0CF2E
:101270009395880F08F09927EE0F97958795089515
:101280000E9454090C943C0A0E94350A58F00E94AE
:101290002E0A40F029F45F3F29F00C94250A5111E1
:1012A0000C94700A0C942B0A0E944D0A68F399233F
:1012B000B1F3552391F3951B550BBB27AA27621752
:1012C0007307840738F09F5F5F4F220F331F441F5F
:1012D000AA1FA9F335D00E2E3AF0E0E832D0915093
:1012E0005040E695001CCAF72BD0FE2F29D0660F80
:1012F000771F881FBB1F261737074807AB07B0E8C3
:1013000009F0BB0B802DBF01FF2793585F4F3AF0C8
:101310009E3F510578F00C94250A0C94700A5F3FAB
:10132000E4F3983ED4F3869577956795B795F7954E
:101330009F5FC9F7880F911D9695879597F9089536
:10134000E1E0660F771F881FBB1F621773078407D2
:10135000BA0720F0621B730B840BBA0BEE1F88F7E1
:10136000E09508950E94B9096894B1110C94700A2F
:1013700008950E94550A88F09F5798F0B92F992731
:10138000B751B0F0E1F0660F771F881F991F1AF070
:10139000BA95C9F714C0B13091F00E946F0AB1E05C
:1013A00008950C946F0A672F782F8827B85F39F05B
:1013B000B93FCCF3869577956795B395D9F73EF409
:1013C00090958095709561957F4F8F4F9F4F0895B1
:1013D000E89409C097FB3EF49095809570956195CF
:1013E0007F4F8F4F9F4F9923A9F0F92F96E9BB2785
:1013F0009395F695879577956795B795F111F8CF01
:10140000FAF4BB0F11F460FF1BC06F5F7F4F8F4F6B
:101410009F4F16C0882311F096E911C0772321F061
:101420009EE8872F762F05C0662371F096E8862FF9
:1014300070E060E02AF09A95660F771F881FDAF750
:10144000880F9695879597F9089597F99F6780E893
:1014500070E060E008959FEF80EC089500240A9406
:101460001616170618060906089500240A9412167F
:101470001306140605060895092E0394000C11F4B2
:10148000882352F0BB0F40F4BF2B11F460FF04C05F
:101490006F5F7F4F8F4F9F4F089557FD9058440FB8
:1014A000551F59F05F3F71F04795880F97FB991FC3
:1014B00061F09F3F79F08795089512161306140680
:1014C000551FF2CF4695F1DF08C01616170618060D
:1014D000991FF1CF86957105610508940895E894E8
:1014E000BB2766277727CB0197F908950E94890AC1
:1014F0000C943C0A0E942E0A38F00E94350A20F013
:10150000952311F00C94250A0C942B0A11240C94A9
:10151000700A0E944D0A70F3959FC1F3950F50E039
:10152000551F629FF001729FBB27F00DB11D639F95
:10153000AA27F00DB11DAA1F649F6627B00DA11D3B
:10154000661F829F2227B00DA11D621F739FB00DE1
:10155000A11D621F839FA00D611D221F749F332751
:10156000A00D611D231F849F600D211D822F762FEA
:101570006A2F11249F5750409AF0F1F088234AF0C7
:10158000EE0FFF1FBB1F661F771F881F9150504033
:10159000A9F79E3F510580F00C94250A0C94700A1F
:1015A0005F3FE4F3983ED4F3869577956795B795BA
:1015B000F795E7959F5FC1F7FE2B880F911D9695D4
:1015C000879597F9089597FB072E16F4009407D096
:1015D00077FD09D00E94FD0A07FC05D03EF49095E6
:1015E00081959F4F0895709561957F4F0895EE0FF7
:1015F000FF1F0590F491E02D0994AA1BBB1B51E13C
:1016000007C0AA1FBB1FA617B70710F0A61BB70B72
:10161000881F991F5A95A9F780959095BC01CD0117
:1016200008950F931F93CF93DF93009731F46115C3
:10163000710519F480E090E03AC08B01EC016EE096
:1016400070E081E090E00E94830DFC01892B91F312
:1016500080E883830115110571F01387028781E803
:10166000838380912F0390913003892B21F4F09391
:101670003003E0932F032097C9F0D187C08783817F
:10168000826083838091310390913203892B71F4BE
:10169000F0933203E093310380913303909134034C
:1016A000892B21F4F0933403E0933303CF01DF91CE
:1016B000CF911F910F910895A0E0B0E0E2E6FBE02A
:1016C0000C94870FAE014B5F5F4FFA0161917191EE
:1016D000AF0180913103909132030E94A20BE2E0AE
:1016E0000C94A30F0F931F93CF93DF93E0913103DB
:1016F000F0913203238121FF1BC08C01D0E0C0E0B8
:10170000F80181918F016091310370913203DB0107
:101710001896ED91FC911997882331F00995892B42
:1017200079F3DFEFCFEFECCF8AE00995892B19F041
:101730008FEF9FEF02C08D2F9C2FDF91CF911F91D4
:101740000F910895ABE0B0E0E8EAFBE00C94770F6E
:101750006C017B018A01FC0117821682838181FF63
:10176000CCC1CE0101963C01F6019381F70193FDB6
:10177000859193FF81917F01882309F4BAC1853255
:1017800039F493FD859193FF81917F01853229F48E
:10179000B60190E00E94DD0EE7CF912C212C312C78
:1017A000FFE1F315D8F08B3279F038F4803279F01C
:1017B0008332A1F4232D20611DC08D3261F080336E
:1017C00069F4232D216016C0832D8260382EE32D0D
:1017D000E4603E2E2AC0F32DF8601DC037FC2DC0FA
:1017E00020ED280F2A3040F08E32B9F436FC81C14A
:1017F000232D2064322E19C036FE06C08AE0989E42
:10180000200D1124922E11C0EAE02E9E200D1124ED
:10181000222EF32DF0623F2E08C08C3621F4832D4A
:101820008068382E02C0883641F4F70193FD859117
:1018300093FF81917F018111B3CF982F9F7D9554A4
:10184000933028F40C5F1F4F9FE399830DC08336BC
:1018500031F0833771F0833509F059C021C0F801A8
:10186000808189830E5F1F4F88248394912C5301BC
:1018700013C02801F2E04F0E511CF801A080B18086
:1018800036FE03C0692D70E002C06FEF7FEFC50127
:101890000E94D20E4C018201F32DFF773F2E16C01D
:1018A000280122E0420E511CF801A080B18036FED2
:1018B00003C0692D70E002C06FEF7FEFC5010E9489
:1018C000C00E4C01F32DF0683F2E820133FC1BC08B
:1018D000822D90E088169906B0F4B60180E290E07F
:1018E0000E94DD0E2A94F4CFF50137FC859137FE76
:1018F00081915F01B60190E00E94DD0E21102A94D3
:1019000021E0821A91088114910471F7E8C08436AD
:1019100011F0893641F5F80137FE07C06081718109
:10192000828193810C5F1F4F08C060817181072EF7
:10193000000C880B990B0E5F1F4FF32DFF763F2E87
:1019400097FF09C090958095709561957F4F8F4F57
:101950009F4FF0683F2E2AE030E0A3010E94190F4C
:10196000882E861845C0853731F4232D2F7EB22E60
:101970002AE030E025C0932D997FB92E8F36C1F033
:1019800018F4883579F0B5C0803719F0883721F020
:10199000B0C0E92FE061BE2EB4FE0DC0FB2DF46097
:1019A000BF2E09C034FE0AC0292F2660B22E06C001
:1019B00028E030E005C020E130E002C020E132E064
:1019C000F801B7FE07C060817181828193810C5F4D
:1019D0001F4F06C06081718180E090E00E5F1F4F55
:1019E000A3010E94190F882E8618FB2DFF773F2E2A
:1019F00036FE0DC0232D2E7FA22E891458F434FEFE
:101A00000BC032FC09C0832D8E7EA82E05C0B82CD9
:101A1000A32C03C0B82C01C0B92CA4FE0FC0FE013A
:101A2000E80DF11D8081803321F49A2D997EA92E35
:101A300009C0A2FE06C0B394B39404C08A2D867870
:101A400009F0B394A3FC11C0A0FE06C0B21488F440
:101A5000280C922C9B180EC0B21460F4B60180E2E0
:101A600090E00E94DD0EB394F7CFB21418F42B1857
:101A700002C0982C212CA4FE10C0B60180E390E097
:101A80000E94DD0EA2FE17C0A1FC03C088E790E013
:101A900002C088E590E0B6010CC08A2D867859F026
:101AA000A1FE02C08BE201C080E2A7FC8DE2B6017C
:101AB00090E00E94DD0E891438F4B60180E390E0D6
:101AC0000E94DD0E9A94F7CF8A94F301E80DF11D80
:101AD0008081B60190E00E94DD0E8110F5CF2220BA
:101AE00009F442CEB60180E290E00E94DD0E2A9415
:101AF000F6CFF6018681978102C08FEF9FEF2B967C
:101B0000E2E10C94930F0F931F93CF93DF93869F83
:101B10008001879F100D969F100D1124C8010E940F
:101B20009F0DEC01009729F0A80160E070E00E9491
:101B3000CB0ECE01DF91CF911F910F9108950F939E
:101B40001F93CF93DF938230910510F482E090E0F1
:101B5000E0913703F091380320E030E0A0E0B0E0FE
:101B6000309719F14081518102811381481759073B
:101B7000C8F08417950769F4109731F012960C930A
:101B8000129713961C9327C00093370310933803C2
:101B900022C02115310519F04217530718F49A0194
:101BA000BD01EF01DF01F801DBCF21153105F9F0AF
:101BB000281B390B2430310580F48A819B81611503
:101BC000710521F0FB019383828304C09093380355
:101BD00080933703FE01329644C0FE01E20FF31FEB
:101BE0008193919322503109398328833AC02091FF
:101BF000350330913603232B41F4209102013091BB
:101C00000301309336032093350320910001309176
:101C100001012115310541F42DB73EB74091040172
:101C200050910501241B350BE0913503F0913603EB
:101C3000E217F307A0F42E1B3F0B2817390778F0A3
:101C4000AC014E5F5F4F2417350748F04E0F5F1F02
:101C500050933603409335038193919302C0E0E0A3
:101C6000F0E0CF01DF91CF911F910F910895CF93B5
:101C7000DF93009709F481C0FC013297138212822E
:101C8000A0913703B0913803109781F420813181FE
:101C9000820F931F2091350330913603281739079F
:101CA00051F5F0933603E093350367C0ED0120E072
:101CB00030E0CE17DF0740F44A815B819E01411579
:101CC0005105F1F0EA01F5CFD383C2834081518100
:101CD000840F951FC817D90759F488819981840FFB
:101CE000951F0296918380838A819B81938382834F
:101CF0002115310529F4F0933803E09337033DC0F3
:101D0000E901FB83EA8349915991C40FD51FEC1770
:101D1000FD0761F480819181840F951F0296E9018E
:101D200099838883828193819B838A83E0E0F0E0BA
:101D300012968D919C911397009719F0FD01DC018B
:101D4000F7CF8D919C9111979D012E5F3F4F820F90
:101D5000931F20913503309136032817390769F412
:101D6000309729F4109238031092370302C013827F
:101D70001282B0933603A0933503DF91CF9108957B
:101D8000FC010590615070400110D8F78095909546
:101D90008E0F9F1F0895DC0101C06D93415050408C
:101DA000E0F70895FC016150704001900110D8F7F0
:101DB000809590958E0F9F1F08950F931F93CF933B
:101DC000DF93FB01238121FD03C08FEF9FEF2CC028
:101DD00022FF16C04681578124813581421753075F
:101DE00044F4A081B1819D012F5F3F4F3183208357
:101DF0008C93268137812F5F3F4F3783268314C012
:101E00008B01EC01FB010084F185E02D0995892B04
:101E1000E1F6D80116968D919C9117970196179629
:101E20009C938E931697CE01DF91CF911F910F91C6
:101E30000895FA01AA27283051F1203181F1E89460
:101E40006F936E7F6E5F7F4F8F4F9F4FAF4FB1E0AD
:101E50003ED0B4E03CD0670F781F891F9A1FA11DA8
:101E6000680F791F8A1F911DA11D6A0F711D811DA9
:101E7000911DA11D20D009F468943F912AE0269F6E
:101E800011243019305D3193DEF6CF010895462FCD
:101E90004770405D4193B3E00FD0C9F7F6CF462FAE
:101EA0004F70405D4A3318F0495D31FD4052419317
:101EB00002D0A9F7EACFB4E0A695979587957795D4
:101EC0006795BA95C9F700976105710508959B015B
:101ED000AC010A2E06945795479537952795BA95E4
:101EE000C9F7620F731F841F951FA01D08952F92BD
:101EF0003F924F925F926F927F928F929F92AF929A
:101F0000BF92CF92DF92EF92FF920F931F93CF93E6
:101F1000DF93CDB7DEB7CA1BDB0B0FB6F894DEBF7D
:101F20000FBECDBF09942A88398848885F846E84A3
:101F30007D848C849B84AA84B984C884DF80EE80ED
:101F4000FD800C811B81AA81B981CE0FD11D0FB6F6
:101F5000F894DEBF0FBECDBFED010895F894FFCF1A
:101F600000003903200000140000000200000000FF
:101F70007A060000000008000012001001000A0AA2
:101F80000D202564202564200A00506F7320783AC4
:101F90002025642A78202B2025640A0D004E6567D1
:101FA00020783A2025642A78202B2025640A0D0009
:101FB000506F7320793A2025642A79202B202564DC
:101FC0000A0D004E656720793A2025642A79202B76
:101FD0002025640A0D004D43503235313520697398
:101FE000204E4F5420696E20436F6E66696775728C
:101FF0006174696F6E206D6F6465206166746572CF
:10200000207265736574212049747320636F6E6656
:1020100069672062697473206172652025780A0DF2
:10202000004D435032353135206973204E4F5420D6
:10203000696E20636F7272656374206D6F646520D2
:1020400061667465722072657365742120497473CA
:1020500020636F6E666967206269747320617265C0
:102060002025780A0D000A21004A6F7920593A206C
:1020700025642C09004A6F7920583A2025642C09E0
:10208000004C65667420536C696465723A2025645F
:102090002C20200900526967687420536C696465BC
:1020A000723A2025642C09004C65667420427574D0
:1020B000746F6E3A2025642C200900526967687499
:1020C00020627574746F6E3A2025642C09004A6F83
:1020D0007920627574746F6E3A2025640A0D004C85
:1020E000696E65206F7574206F6620626F756E640F
:1020F0007300436F6C756D6E206F7574206F662072
:10210000626F756E6473004D61696E206D656E75EA
:1021100000506C617900486967682073636F72656D
:102120007300446966666963756C747900517569FA
:102130007400626C6168626C6168626C6168626C98
:082140006168004261636B005D
:00000001FF
