S01600004279676765726E5F736F757263652E7372656350
S11300000C94BB010C94D8010C9413050C94D801E6
S11300100C94D8010C94D8010C94D8010C94D801F8
S11300200C94D8010C94D8010C94D8010C94D801E8
S11300300C94D8010C94D8010C94D8010C94DA01D6
S11300400C94D8010C94D8010C94D8010C94D801C8
S11300500C94D8010C94D8010C94D8010C94D801B8
S11300600C94D8010C94D8010C94D8010C94D801A8
S1130070A807AF07B607BD07C407CB07D207000020
S113008000000000000000065F5F0600000000079B
S1130090070007070000147F7F147F7F1400242EBD
S11300A06B6B3A120000466630180C666200307AB8
S11300B04F5D377A48000407030000000000001C6D
S11300C03E63410000000041633E1C000000082A1A
S11300D03E1C1C3E2A0808083E3E0808000000A0FA
S11300E0E06000000000080808080808000000009C
S11300F06060000000006030180C060301003E7FC1
S1130100594D7F3E000042427F7F404000006273B1
S113011059496F660000226349497F360000181C64
S113012016137F7F1000276745457D3900003C7E0C
S11301304B4979300000036371190F070000367FC3
S113014049497F360000064F49693F1E0000000000
S11301506C6C0000000000A0EC6C00000000081CA7
S113016036634100000014141414141400000041F8
S113017063361C080000020351590F0600003E7F3D
S1130180415D5D1F1E007C7E13137E7C0000417F59
S11301907F49497F36001C3E634141632200417F11
S11301A07F41637F1C00417F7F495D416300417F44
S11301B07F491D0103001C3E6341517372007F7F20
S11301C008087F7F000000417F7F410000003070FD
S11301D040417F3F0100417F7F081C776300417FDE
S11301E07F41406070007F7F060C067F7F007F7F29
S11301F0060C187F7F001C3E6341633E1C00417F58
S11302007F49090F06001E3F21717F5E0000417F78
S11302107F19396F460026674D597B320000034130
S11302207F7F410300007F7F40407F7F00001F3FAE
S113023060603F1F00007F7F3018307F7F0063774E
S11302401C081C776300074F78784F07000067731A
S1130250594D47637100007F7F4141000000010355
S1130260060C183060000041417F7F000000080C3C
S11302700603060C08008080808080808080000057
S1130280030704000000207454543C784000413FAC
S11302907F44447C3800387C44446C280000307827
S11302A048493F7F4000387C54545C180000487E25
S11302B07F490302000098BCA4A4F87C0400417F99
S11302C07F08047C780000447D7D4000000040C429
S11302D084FD7D000000417F7F10386C44000041A4
S11302E07F7F400000007C7C0C180C7C78007C7CB8
S11302F004047C780000387C44447C38000084FC8E
S1130300F8A4243C1800183C24A4F8FC8400447C81
S113031078441C180000485C545474240000000401
S11303203E7F442400003C7C40403C7C40001C3C1C
S113033060603C1C00003C7C6030607C3C00446C91
S11303403810386C44009CBCA0A0FC7C00004C64B9
S1130350745C4C64000008083E77414100000000D2
S11303600077770000004141773E0808000002034F
S113037001030203010011241FBECFEFD4E0DEBF4E
S1130380CDBF12E0A0E0B1E0E2ECFEE102C00590D6
S11303900D92A635B107D9F722E0A6E5B2E001C077
S11303A01D92A73AB207E1F70E9457050C945F0F1C
S11303B00C9400001F920F920FB60F9211242F93EA
S11303C03F934F935F936F937F938F939F93AF93D9
S11303D0BF93CF93DF93EF93FF93E0910601F091E6
S11303E00701108289EF90E00197F1F700C0000047
S11303F0E0910601F0910701808190E090937302EF
S113040080937202808190E090939402809393028F
S1130410808190E09093610280936002808190E0FB
S113042090936F0280936E0280B382FB662760F91B
S113043070E070938D0260938C0280B383FB442739
S113044040F950E0509375024093740280B3829552
S11304508695877091E08927282F217030E03093AA
S11304609602209395028091720290917302C0913A
S11304706602D09167028C179D0754F56091720251
S113048070917302072E000C880B990B0E949B0934
S11304902091840230918502409186025091870216
S11304A00E94270A20E030E048EC52E40E94F10860
S11304B0209162023091630240916402509165027E
S11304C00E9485080E946309709371026093700210
S11304D080917202909173028C179D0754F1609180
S11304E0720270917302072E000C880B990B0E9404
S11304F09B0920917A0230917B0240917C025091B9
S11305007D020E94270A20E030E048EC52E40E9479
S1130510F10820916A0230916B0240916C02509173
S11305206D020E9485080E946309709371026093B2
S113053070028091930290919402C0918202D091B2
S113054083028C179D0754F5609193027091940275
S1130550072E000C880B990B0E949B09209188029E
S11305603091890240918A0250918B020E94270A9D
S113057020E030E048EC52E40E94F10820917E0231
S113058030917F0240918002509181020E9485083F
S11305900E946309709369026093680280919302D8
S11305A0909194028C179D0754F16091930270917D
S11305B09402072E000C880B990B0E949B09209132
S11305C08F023091900240919102509192020E94C8
S11305D0270A20E030E048EC52E40E94F108209120
S11305E076023091770240917802509179020E940C
S11305F085080E9463097093690260936802809180
S11306006802909169028C3F9F4F54F08091680278
S113061090916902059724F410926902109268027D
S113062080917002909171028C3F9F4F54F08091A1
S1130630700290917102059724F410927102109245
S11306407002FF91EF91DF91CF91BF91AF919F9194
S11306508F917F916F915F914F913F912F910F9067
S11306600FBE0F901F9018956F927F928F929F925A
S1130670AF92BF92CF92DF92EF92FF920F931F93AC
S1130680CF93DF9383E480938B0081E180938A008E
S113069082E090E0909387008093860081B380612C
S11306A081BB2FE38DE093E0215080409040E1F73F
S11306B000C0000020E030E0C0E0D0E030C0E091B5
S11306C00601F0910701108289EF90E00197F1F79C
S11306D000C00000E0910601F09107014081809183
S11306E0560290915702840F911D90935702809364
S11306F0560240818091580290915902840F911DB5
S113070090935902809358028081808189EF90E010
S11307100197F1F700C0000021962F5F3F4F243668
S113072031056CF28091560290915702BE010E94ED
S1130730940A262F372F609382027093830280914C
S1130740580290915902BE010E94940A6093660275
S1130750709367027F936F933F932F938EE191E0A1
S11307609F938F930E940D0B00918202109183023C
S113077066246A94712C7301E01AF10AC0E1D7E28D
S1130780CE01B7010E94940A072E000C880B990B26
S11307900E949B094B015C0160938F02709390024D
S11307A080939102909392022CE920036001219F8F
S11307B0D00C1124C601B7010E94940A7B01072EB4
S11307C0000C880B990B0E949B096093760270932E
S11307D077028093780290937902CE01B8010E9447
S11307E0940A072E000C880B990B0E949B096093B6
S11307F088027093890280938A0290938B02C601C7
S1130800B8010E94940A072E000C880B990B0E94D1
S11308109B0960937E0270937F0280938002909381
S113082081020091660210916702601A710ACE017A
S1130830B3010E94940A072E000C880B990B0E94A6
S11308409B0960937A0270937B0280937C0290935D
S11308507D022CE920036001219FD00C1124C601E4
S1130860B3010E94940A072E000C880B990B0E9476
S11308709B0960936A0270936B0280936C0290935D
S11308806D02CE01B8010E94940A072E000C880B59
S1130890990B0E949B096093840270938502809354
S11308A0860290938702C601B8010E94940A072E1B
S11308B0000C880B990B0E949B0960936202709351
S11308C06302809364029093650220E030E04AE77B
S11308D054E4C501B4010E94270AFF92EF920E94DA
S11308E063097F936F938AE291E09F938F930E94B1
S11308F00D0B20E030E04AE754E4609188027091E7
S1130900890280918A0290918B020E94270A6B01CE
S11309107C0160917E0270917F02809180029091AF
S113092081020E9463097F936F93C701B6010E94FD
S113093063097F936F938DE391E09F938F930E945C
S11309400D0B20E030E04AE754E460917A027091A4
S11309507B0280917C0290917D020E94270A6B01A8
S11309607C0160916A0270916B0280916C0290919B
S11309706D020E9463097F936F93C701B6010E94C1
S113098063097F936F9380E591E09F938F930E9417
S11309900D0B20E030E04AE754E46091840270914A
S11309A0850280918602909187020E94270A6B013A
S11309B07C01609162027091630280916402909163
S11309C065020E9463097F936F93C701B6010E9479
S11309D063097F936F9383E691E09F938F930E94C3
S11309E00D0B1FBC82E08EBD80E889BF7894E09136
S11309F00601F091070110828DB79EB74E960FB68F
S1130A00F8949EBF0FBE8DBFDF91CF911F910F91C0
S1130A10FF90EF90DF90CF90BF90AF909F908F901A
S1130A207F906F9008951F920F920FB60F9211242A
S1130A308F93EF93FF93E0910601F091070180817A
S1130A4080938E02FF91EF918F910F900FBE0F90C4
S1130A501F90189518BA089580E188BB0895CF9324
S1130A60C82F0E942A0583E00E9466088C2F0E94EA
S1130A7066080E946A08C82F0E942C058C2FCF910B
S1130A8008950E942A0580EC0E9466080E942C05A5
S1130A9081EE94E00197F1F700C0000008950E94F0
S1130AA05E080E9441058EE00E942F05089580E8AB
S1130AB085BF8FE190E00E946F086FE778E089E7D7
S1130AC098E00E94C20A80E090E00E9434030E94F1
S1130AD0D80580E490E00E944F05809170029091C7
S1130AE071029F938F9386E791E09F938F930E9467
S1130AF00D0B80916802909169029F938F9382E815
S1130B0091E09F938F930E940D0B80916E029091C0
S1130B106F029F938F938EE891E09F938F930E942F
S1130B200D0B80916002909161029F938F9382EAF2
S1130B3091E09F938F930E940D0B8091740290918A
S1130B4075029F938F9385EB91E09F938F930E94FF
S1130B500D0B80918C0290918D029F938F9388EC62
S1130B6091E09F938F930E940D0B80919502909139
S1130B7096029F938F938BED91E09F938F930E94A6
S1130B800D0B0E9416078DB79EB74C960FB6F894BE
S1130B909EBF0FBE8DBF9DCFE0911A01F0911B0146
S1130BA080830895E0911801F091190180830895DC
S1130BB08EEA0E94CC0581EA0E94CC058AED0E944F
S1130BC0CC0582E10E94CC0588EC0E94CC0588EA21
S1130BD00E94CC058FE30E94CC0585ED0E94CC05D4
S1130BE080E80E94CC0581E80E94CC0580E50E9443
S1130BF0CC0589ED0E94CC0581E20E94CC0580E2FF
S1130C000E94CC0582E00E94CC058BED0E94CC05AD
S1130C1080E30E94CC058DEA0E94CC0580E00E940E
S1130C20CC0584EA0E94CC0586EA0E94CC058FEAB2
S1130C300E94CC0508958091980288235CF4E7E92A
S1130C40F2E08058818380818F5F8083883010F048
S1130C501092970208951F93CF93DF9310EE180F0D
S1130C60C0E0D0E01CC0E12FF0E0EE0FFF1FEE0F5C
S1130C70FF1FEE0FFF1FEC0FFD1FE258FF4F859182
S1130C8094910E94D2058091160190911701E7E991
S1130C90F2E09181890F81830E941B062196809145
S1130CA0160190911701C817D907ECF280E090E083
S1130CB0DF91CF911F910895CF93C82F80E20E94B6
S1130CC0CC058C2F0E94CC05CF910895CF93C82FCB
S1130CD0883078F48093970282E090E00E945C066A
S1130CE080EB8C0F0E94CC0580E090E00E945C06B3
S1130CF006C08CEE91E00E94230B80E090E0CF913F
S1130D000895CF93DF93C82F8823B4F0809398027B
S1130D1082E090E00E945C06DC2FD295DF708C2F7D
S1130D208F700E94CC0580E18D0F0E94CC0580E07D
S1130D3090E00E945C0606C08FEF91E00E94230BB6
S1130D4080E090E0DF91CF910895CF93C62F0E9469
S1130D5066068C2F0E948106CF91089560E070E0B2
S1130D6080E090E00E94A5060895CF93DF93D82FEA
S1130D7060E070E090E00E94A506C0E004C080E05E
S1130D800E94D205CF5FCC23D4F78D2F0E94660634
S1130D90DF91CF910895CF93C0E005C08C2F90E0F0
S1130DA00E94B506CF5FC830C8F30E94AE06CF914B
S1130DB008950E94A50688E10E94D20588E10E9458
S1130DC0D2058EE70E94D2058CE30E94D20588E109
S1130DD00E94D2050895CF93DF93CDB7DEB7AE015D
S1130DE04B5F5F4FFA0161917191AF0188E091E02F
S1130DF00E94530BDF91CF910895FC0101900020D4
S1130E00E9F73197E81BF90B8091160190911701CE
S1130E108E9F90018F9F300D9E9F300D112436952B
S1130E20279580E4821B0E9481060895CF93DF9367
S1130E30CDB7DEB728970FB6F894DEBF0FBECDBF8F
S1130E4000E010E032C180915A0290915B02019758
S1130E5031F080915C0290915D02019779F4809168
S1130E607202909173028536910524F010925B0210
S1130E7010925A0210925D0210925C0280917202EA
S1130E8090917302883C910544F180915C029091A9
S1130E905D02892B11F580919B0290919C02019730
S1130EA090939C0280939B02EE24E394F12CF092A5
S1130EB05D02E0925C020E94CB06F0921D01E0927A
S1130EC01C0180919B0290919C02892B31F487E054
S1130ED090E090939C0280939B0280917202909187
S1130EE073028536910544F580915A0290915B0214
S1130EF0892B11F580919B0290919C02019690930D
S1130F009C0280939B02EE24E394F12CF0925B020A
S1130F10E0925A020E94CB06F0921D01E0921C015D
S1130F2080919B0290919C02089731F481E090E0BB
S1130F3090939C0280939B02E0919B02F0919C020F
S1130F403197E730F105A0F5E85CFF4F0C94A80A4F
S1130F5081E090E090935F0280935E0229C082E07A
S1130F6090E090935F0280935E0222C083E090E061
S1130F7090935F0280935E021BC084E090E09093A4
S1130F805F0280935E0214C085E090E090935F025C
S1130F9080935E020DC086E090E090935F028093A0
S1130FA05E0206C087E090E090935F0280935E0249
S1130FB060E080915E020E94D9060E94CB0684E123
S1130FC092E00E94FD0684E192E09F938F930E9439
S1130FD0EB0669E081E00E94A5068EE192E09F9312
S1130FE08F930E94EB0669E082E00E94A50683E2EB
S1130FF092E09F938F930E94EB0669E083E00E9446
S1131000A5068FE292E09F938F930E94EB06809156
S11310109B0290919C029C838B838091950290917A
S113102096020FB6F894DEBF0FBECDBF081719079E
S1131030C1F18091950290919602019791F50E94D9
S1131040CB062BC08EE192E00E94FD068EE192E079
S11310509F938F930E94EB0669E087E00E94A506A8
S11310608AE392E09F938F930E94EB06809195020E
S1131070909196020F900F900F900F9008171907F8
S113108041F08091950290919602019711F41C828F
S11310901B8200919502109196028B819C8101978D
S11310A089F20091950210919602809172029091BA
S11310B07302883C91050CF4C6CEE0CE80EB87BB6E
S11310C081E58DB988B3806188BB08958FB9779B1A
S11310D0FECF08951FB8779BFECF8FB108952BB133
S11310E02D7F2BB990BD89B988E18AB98EE880BD7E
S11310F008955D9BFECF8CB980E090E008955D9BE0
S1131100FECF8CB190E008955058BB27AA270E94C7
S11311109C080C94ED090E94DF0938F00E94E6094E
S113112020F039F49F3F19F426F40C94DC090EF4F2
S1131130E095E7FB0C94D609E92F0E94FE0958F3C9
S1131140BA17620773078407950720F079F4A6F5A8
S11311500C94200A0EF4E0950B2EBA2FA02D0B014F
S1131160B90190010C01CA01A0011124FF27591BE8
S113117099F0593F50F4503E68F11A16F040A22FEE
S1131180232F342F4427585FF3CF4695379527955F
S1131190A795F0405395C9F77EF41F16BA0B620B5E
S11311A0730B840BBAF09150A1F0FF0FBB1F661FA5
S11311B0771F881FC2F70EC0BA0F621F731F841FE8
S11311C048F4879577956795B795F7959E3F08F00E
S11311D0B0CF9395880F08F09927EE0F97958795D0
S11311E008950E9405090C94ED090E94E60958F03F
S11311F00E94DF0940F029F45F3F29F00C94D609DE
S113120051110C94210A0C94DC090E94FE0968F324
S11312109923B1F3552391F3951B550BBB27AA27AB
S113122062177307840738F09F5F5F4F220F331FE5
S1131230441FAA1FA9F335D00E2E3AF0E0E832D0AD
S113124091505040E695001CCAF72BD0FE2F29D0B0
S1131250660F771F881FBB1F261737074807AB0782
S1131260B0E809F0BB0B802DBF01FF2793585F4FF7
S11312703AF09E3F510578F00C94D6090C94210A5B
S11312805F3FE4F3983ED4F3869577956795B795D9
S1131290F7959F5FC9F7880F911D9695879597F9E4
S11312A00895E1E0660F771F881FBB1F621773075D
S11312B08407BA0720F0621B730B840BBA0BEE1F72
S11312C088F7E09508950E946A096894B1110C9416
S11312D0210A08950E94060A88F09F5798F0B92FB2
S11312E09927B751B0F0E1F0660F771F881F991F57
S11312F01AF0BA95C9F714C0B13091F00E94200ACF
S1131300B1E008950C94200A672F782F8827B85FDE
S113131039F0B93FCCF3869577956795B395D9F7AE
S11313203EF490958095709561957F4F8F4F9F4FB8
S11313300895E89409C097FB3EF4909580957095C4
S113134061957F4F8F4F9F4F9923A9F0F92F96E90D
S1131350BB279395F695879577956795B795F11182
S1131360F8CFFAF4BB0F11F460FF1BC06F5F7F4F1F
S11313708F4F9F4F16C0882311F096E911C0772331
S113138021F09EE8872F762F05C0662371F096E83A
S1131390862F70E060E02AF09A95660F771F881F09
S11313A0DAF7880F9695879597F9089597F99F67C7
S11313B080E870E060E008959FEF80EC08950024D9
S11313C00A941616170618060906089500240A94A6
S11313D012161306140605060895092E0394000C2C
S11313E011F4882352F0BB0F40F4BF2B11F460FFBB
S11313F004C06F5F7F4F8F4F9F4F089557FD9058E4
S1131400440F551F59F05F3F71F04795880F97FBC4
S1131410991F61F09F3F79F087950895121613067E
S11314201406551FF2CF4695F1DF08C016161706AD
S11314301806991FF1CF86957105610508940895E2
S1131440E894BB2766277727CB0197F908950E9474
S11314503A0A0C94ED090E94DF0938F00E94E6096B
S113146020F0952311F00C94D6090C94DC09112476
S11314700C94210A0E94FE0970F3959FC1F3950F05
S113148050E0551F629FF001729FBB27F00DB11D04
S1131490639FAA27F00DB11DAA1F649F6627B00D94
S11314A0A11D661F829F2227B00DA11D621F739F7D
S11314B0B00DA11D621F839FA00D611D221F749F8B
S11314C03327A00D611D231F849F600D211D822FD2
S11314D0762F6A2F11249F5750409AF0F1F08823F9
S11314E04AF0EE0FFF1FBB1F661F771F881F915026
S11314F05040A9F79E3F510580F00C94D6090C94F6
S1131500210A5F3FE4F3983ED4F386957795679577
S1131510B795F795E7959F5FC1F7FE2B880F911D4F
S11315209695879597F9089597FB072E16F40094DE
S113153007D077FD09D00E94AE0A07FC05D03EF41F
S1131540909581959F4F0895709561957F4F08956B
S1131550EE0FFF1F0590F491E02D0994AA1BBB1B0D
S113156051E107C0AA1FBB1FA617B70710F0A61B9F
S1131570B70B881F991F5A95A9F780959095BC01C0
S1131580CD0108950F931F93CF93DF93009731F408
S11315906115710519F480E090E03AC08B01EC010B
S11315A06EE070E081E090E00E94340DFC01892B34
S11315B091F380E883830115110571F01387028785
S11315C081E8838380919D0290919E02892B21F46E
S11315D0F0939E02E0939D022097C9F0D187C087C3
S11315E083818260838380919F029091A002892BE2
S11315F071F4F093A002E0939F028091A102909174
S1131600A202892B21F4F093A202E093A102CF015C
S1131610DF91CF911F910F910895A0E0B0E0E3E135
S1131620FBE00C94380FAE014B5F5F4FFA01619100
S11316307191AF0180919F029091A0020E94530B7F
S1131640E2E00C94540F0F931F93CF93DF93E09138
S11316509F02F091A002238121FF1BC08C01D0E0E6
S1131660C0E0F80181918F0160919F027091A00206
S1131670DB011896ED91FC911997882331F00995B7
S1131680892B79F3DFEFCFEFECCF8AE00995892B33
S113169019F08FEF9FEF02C08D2F9C2FDF91CF9118
S11316A01F910F910895ABE0B0E0E9E5FBE00C94E5
S11316B0280F6C017B018A01FC0117821682838149
S11316C081FFCCC1CE0101963C01F6019381F70163
S11316D093FD859193FF81917F01882309F4BAC119
S11316E0853239F493FD859193FF81917F01853291
S11316F029F4B60190E00E948E0EE7CF912C212CA4
S1131700312CFFE1F315D8F08B3279F038F48032C4
S113171079F08332A1F4232D20611DC08D3261F054
S1131720803369F4232D216016C0832D8260382E06
S1131730E32DE4603E2E2AC0F32DF8601DC037FC73
S11317402DC020ED280F2A3040F08E32B9F436FC3B
S113175081C1232D2064322E19C036FE06C08AE0D2
S1131760989E200D1124922E11C0EAE02E9E200D89
S11317701124222EF32DF0623F2E08C08C3621F462
S1131780832D8068382E02C0883641F4F70193FD1A
S1131790859193FF81917F018111B3CF982F9F7D14
S11317A09554933028F40C5F1F4F9FE399830DC029
S11317B0833631F0833771F0833509F059C021C085
S11317C0F801808189830E5F1F4F88248394912CB4
S11317D0530113C02801F2E04F0E511CF801A08000
S11317E0B18036FE03C0692D70E002C06FEF7FEF59
S11317F0C5010E94830E4C018201F32DFF773F2E19
S113180016C0280122E0420E511CF801A080B180CC
S113181036FE03C0692D70E002C06FEF7FEFC50193
S11318200E94710E4C01F32DF0683F2E820133FCAF
S11318301BC0822D90E088169906B0F4B60180E2B0
S113184090E00E948E0E2A94F4CFF50137FC859126
S113185037FE81915F01B60190E00E948E0E211047
S11318602A9421E0821A91088114910471F7E8C046
S1131870843611F0893641F5F80137FE07C06081DE
S11318807181828193810C5F1F4F08C060817181D7
S1131890072E000C880B990B0E5F1F4FF32DFF765C
S11318A03F2E97FF09C090958095709561957F4F65
S11318B08F4F9F4FF0683F2E2AE030E0A3010E9433
S11318C0CA0E882E861845C0853731F4232D2F7E05
S11318D0B22E2AE030E025C0932D997FB92E8F36A1
S11318E0C1F018F4883579F0B5C0803719F088371D
S11318F021F0B0C0E92FE061BE2EB4FE0DC0FB2D77
S1131900F460BF2E09C034FE0AC0292F2660B22E0F
S113191006C028E030E005C020E130E002C020E14C
S113192032E0F801B7FE07C0608171818281938142
S11319300C5F1F4F06C06081718180E090E00E5FF4
S11319401F4FA3010E94CA0E882E8618FB2DFF7715
S11319503F2E36FE0DC0232D2E7FA22E891458F45F
S113196034FE0BC032FC09C0832D8E7EA82E05C028
S1131970B82CA32C03C0B82C01C0B92CA4FE0FC0F2
S1131980FE01E80DF11D8081803321F49A2D997EAA
S1131990A92E09C0A2FE06C0B394B39404C08A2D34
S11319A0867809F0B394A3FC11C0A0FE06C0B2145B
S11319B088F4280C922C9B180EC0B21460F4B60163
S11319C080E290E00E948E0EB394F7CFB21418F424
S11319D02B1802C0982C212CA4FE10C0B60180E361
S11319E090E00E948E0EA2FE17C0A1FC03C088E7FF
S11319F090E002C088E590E0B6010CC08A2D86789C
S1131A0059F0A1FE02C08BE201C080E2A7FC8DE286
S1131A10B60190E00E948E0E891438F4B60180E37A
S1131A2090E00E948E0E9A94F7CF8A94F301E80D09
S1131A30F11D8081B60190E00E948E0E8110F5CFD9
S1131A40222009F442CEB60180E290E00E948E0E7C
S1131A502A94F6CFF6018681978102C08FEF9FEF1B
S1131A602B96E2E10C94440F0F931F93CF93DF93D3
S1131A70869F8001879F100D969F100D1124C80129
S1131A800E94500DEC01009729F0A80160E070E07D
S1131A900E947C0ECE01DF91CF911F910F9108958A
S1131AA00F931F93CF93DF938230910510F482E05C
S1131AB090E0E091A502F091A60220E030E0A0E0E1
S1131AC0B0E0309719F140815181028113814817A8
S1131AD05907C8F08417950769F4109731F01296E6
S1131AE00C93129713961C9327C00093A50210938E
S1131AF0A60222C02115310519F04217530718F424
S1131B009A01BD01EF01DF01F801DBCF2115310599
S1131B10F9F0281B390B2430310580F48A819B812C
S1131B206115710521F0FB019383828304C09093B6
S1131B30A6028093A502FE01329644C0FE01E20F84
S1131B40F31F8193919322503109398328833AC03A
S1131B502091A3023091A402232B41F4209102018D
S1131B60309103013093A4022093A3022091000139
S1131B70309101012115310541F42DB73EB7409153
S1131B80040150910501241B350BE091A302F0914F
S1131B90A402E217F307A0F42E1B3F0B2817390702
S1131BA078F0AC014E5F5F4F2417350748F04E0FB5
S1131BB05F1F5093A4024093A3028193919302C0A8
S1131BC0E0E0F0E0CF01DF91CF911F910F910895F4
S1131BD0CF93DF93009709F481C0FC0132971382FD
S1131BE01282A091A502B091A602109781F42081DF
S1131BF03181820F931F2091A3023091A4022817F0
S1131C00390751F5F093A402E093A30267C0ED01F4
S1131C1020E030E0CE17DF0740F44A815B819E016B
S1131C2041155105F1F0EA01F5CFD383C283408118
S1131C305181840F951FC817D90759F48881998158
S1131C40840F951F0296918380838A819B8193835D
S1131C5082832115310529F4F093A602E093A502AD
S1131C603DC0E901FB83EA8349915991C40FD51F13
S1131C70EC17FD0761F480819181840F951F029612
S1131C80E90199838883828193819B838A83E0E03D
S1131C90F0E012968D919C911397009719F0FD0135
S1131CA0DC01F7CF8D919C9111979D012E5F3F4FE1
S1131CB0820F931F2091A3023091A40228173907A1
S1131CC069F4309729F41092A6021092A50202C07A
S1131CD013821282B093A402A093A302DF91CF9146
S1131CE00895FC010590615070400110D8F780956B
S1131CF090958E0F9F1F0895DC0101C06D93415094
S1131D005040E0F70895FC016150704001900110CB
S1131D10D8F7809590958E0F9F1F08950F931F936A
S1131D20CF93DF93FB01238121FD03C08FEF9FEF4E
S1131D302CC022FF16C04681578124813581421769
S1131D40530744F4A081B1819D012F5F3F4F31833C
S1131D5020838C93268137812F5F3F4F37832683DF
S1131D6014C08B01EC01FB010084F185E02D099581
S1131D70892BE1F6D80116968D919C9117970196BF
S1131D8017969C938E931697CE01DF91CF911F9156
S1131D900F910895FA01AA27283051F1203181F1D9
S1131DA0E8946F936E7F6E5F7F4F8F4F9F4FAF4F5F
S1131DB0B1E03ED0B4E03CD0670F781F891F9A1F72
S1131DC0A11D680F791F8A1F911DA11D6A0F711D26
S1131DD0811D911DA11D20D009F468943F912AE032
S1131DE0269F11243019305D3193DEF6CF0108951A
S1131DF0462F4770405D4193B3E00FD0C9F7F6CF4B
S1131E00462F4F70405D4A3318F0495D31FD405212
S1131E10419302D0A9F7EACFB4E0A69597958795A8
S1131E2077956795BA95C9F7009761057105089587
S1131E309B01AC010A2E0694579547953795279533
S1131E40BA95C9F7620F731F841F951FA01D0895CB
S1131E502F923F924F925F926F927F928F929F92B6
S1131E60AF92BF92CF92DF92EF92FF920F931F93A4
S1131E70CF93DF93CDB7DEB7CA1BDB0B0FB6F89455
S1131E80DEBF0FBECDBF09942A88398848885F8495
S1131E906E847D848C849B84AA84B984C884DF8006
S1131EA0EE80FD800C811B81AA81B981CE0FD11DEA
S1131EB00FB6F894DEBF0FBECDBFED010895F894C0
S1051EC0FFCF4E
S1131EC20000A7022000001400000002000000002D
S1131ED22B060000000008000012001001000A0A8C
S1131EE20D202564202564200A00506F7320783A5F
S1131EF22025642A78202B2025640A0D004E65676C
S1131F0220783A2025642A78202B2025640A0D00A3
S1131F12506F7320793A2025642A79202B20256476
S1131F220A0D004E656720793A2025642A79202B10
S1131F322025640A0D004A6F7920593A2025642C21
S1131F4209004A6F7920583A2025642C09004C650F
S1131F52667420536C696465723A2025642C2020CF
S1131F620900526967687420536C696465723A2087
S1131F7225642C09004C65667420427574746F6E76
S1131F823A2025642C20090052696768742062751E
S1131F9274746F6E3A2025642C09004A6F792062AA
S1131FA27574746F6E3A2025640A0D004C696E656F
S1131FB2206F7574206F6620626F756E64730043C0
S1131FC26F6C756D6E206F7574206F6620626F750D
S1131FD26E6473004D61696E206D656E7500506CA0
S1131FE2617900486967682073636F72657300449E
S1131FF26966666963756C74790051756974006207
S11320026C6168626C6168626C6168626C616800D0
S10920124261636B000053
S9030000FC
