S01600004279676765726E5F736F757263652E7372656350
S11300000C94D0010C941C050C94ED010C94ED019E
S11300100C94ED010C94ED010C94ED010C94ED01A4
S11300200C94ED010C94ED010C94ED010C94ED0194
S11300300C94ED010C94ED010C94ED010C94EF0182
S11300400C94ED010C94ED010C94ED010C94ED0174
S11300500C94ED010C94ED010C94ED010C94ED0164
S11300600C94ED010C94ED010C94ED010C94ED0154
S1130070410948094F0956095D0964096B09470A92
S11300804E0A550A5C0A630A6A0A710A470B4E0B48
S1130090550B5C0B630B6A0B710B5D0C800C980C9D
S11300A0AF0CC60CCD0CD40C000000000000000006
S11300B000065F5F06000000000707000707000056
S11300C0147F7F147F7F1400242E6B6B3A12000080
S11300D0466630180C666200307A4F5D377A480005
S11300E00407030000000000001C3E634100000000
S11300F00041633E1C000000082A3E1C1C3E2A08E6
S113010008083E3E0808000000A0E060000000006F
S113011008080808080800000000606000000000EB
S11301206030180C060301003E7F594D7F3E0000ED
S113013042427F7F40400000627359496F6600006D
S1130140226349497F360000181C16137F7F100074
S1130150276745457D3900003C7E4B4979300000D6
S1130160036371190F070000367F49497F36000089
S1130170064F49693F1E000000006C6C000000003F
S113018000A0EC6C00000000081C36634100000075
S11301901414141414140000004163361C080000E5
S11301A0020351590F0600003E7F415D5D1F1E0092
S11301B07C7E13137E7C0000417F7F49497F36009B
S11301C01C3E634141632200417F7F41637F1C00E9
S11301D0417F7F495D416300417F7F491D010300E9
S11301E01C3E6341517372007F7F08087F7F0000CB
S11301F000417F7F41000000307040417F3F01009B
S1130200417F7F081C776300417F7F41406070001D
S11302107F7F060C067F7F007F7F060C187F7F00A0
S11302201C3E6341633E1C00417F7F49090F060069
S11302301E3F21717F5E0000417F7F19396F4600A8
S113024026674D597B32000003417F7F4103000044
S11302507F7F40407F7F00001F3F60603F1F0000A2
S11302607F7F3018307F7F0063771C081C77630022
S1130270074F78784F0700006773594D4763710043
S1130280007F7F41410000000103060C183060002C
S11302900041417F7F000000080C0603060C0800A3
S11302A0808080808080808000000307040000003C
S11302B0207454543C784000413F7F44447C3800CF
S11302C0387C44446C280000307848493F7F400023
S11302D0387C54545C180000487E7F4903020000B7
S11302E098BCA4A4F87C0400417F7F08047C7800B7
S11302F000447D7D4000000040C484FD7D0000007A
S1130300417F7F10386C440000417F7F4000000033
S11303107C7C0C180C7C78007C7C04047C780000C9
S1130320387C44447C38000084FCF8A4243C180045
S1130330183C24A4F8FC8400447C78441C18000075
S1130340485C54547424000000043E7F442400009C
S11303503C7C40403C7C40001C3C60603C1C0000F9
S11303603C7C6030607C3C00446C3810386C440049
S11303709CBCA0A0FC7C00004C64745C4C64000039
S113038008083E7741410000000000777700000034
S11303904141773E08080000020301030203010003
S11303A011241FBECFEFD4E0DEBFCDBF12E0A0E02A
S11303B0B1E0E8ECF7E202C005900D92A43BB1076E
S11303C0D9F723E0A4EBB2E001C01D92AC30B20730
S11303D0E1F70E945A060C94E2130C9400001F9259
S11303E00F920FB60F9211242F933F934F935F9365
S11303F06F937F938F939F93AF93BF93CF93DF9329
S1130400EF93FF93E0910601F0910701108289EFC9
S113041090E00197F1F700C00000E0910601F0912F
S11304200701808190E09093D2028093D102808171
S113043090E09093F1028093F002808190E0909399
S1130440C0028093BF02808190E09093CE0280939B
S1130450CD0280B382FB882780F98093EA0280B3BF
S113046083FB882780F98093D30280B38295869595
S1130470877091E0892781708093F2028091D10284
S11304809091D202C091C502D091C6028C179D07EB
S113049054F56091D1027091D202072E000C880BA2
S11304A0990B0E941E0E2091E2023091E3024091CA
S11304B0E4025091E5020E94AA0E20E030E048ECEC
S11304C052E40E94740D2091C1023091C202409105
S11304D0C3025091C4020E94080D0E94E60D70935D
S11304E0D0026093CF028091D1029091D2028C17F6
S11304F09D0754F16091D1027091D202072E000C35
S1130500880B990B0E941E0E2091D8023091D902BB
S11305104091DA025091DB020E94AA0E20E030E002
S113052048EC52E40E94740D2091C9023091CA0231
S11305304091CB025091CC020E94080D0E94E60D1E
S11305407093D0026093CF028091F0029091F102F7
S1130550C091E002D091E1028C179D0754F560919F
S1130560F0027091F102072E000C880B990B0E9487
S11305701E0E2091E6023091E7024091E80250916C
S1130580E9020E94AA0E20E030E048EC52E40E9406
S1130590740D2091DC023091DD024091DE02509115
S11305A0DF020E94080D0E94E60D7093C80260935A
S11305B0C7028091F0029091F1028C179D0754F1CB
S11305C06091F0027091F102072E000C880B990BD8
S11305D00E941E0E2091EC023091ED024091EE0239
S11305E05091EF020E94AA0E20E030E048EC52E461
S11305F00E94740D2091D4023091D5024091D6020C
S11306005091D7020E94080D0E94E60D7093C80213
S11306106093C7028091C7029091C8028C3F9F4F9C
S113062054F08091C7029091C802059724F4109267
S1130630C8021092C7028091CF029091D0028C3FE1
S11306409F4F54F08091CF029091D002059724F4EB
S11306501092D0021092CF02FF91EF91DF91CF91CF
S1130660BF91AF919F918F917F916F915F914F91C6
S11306703F912F910F900FBE0F901F9018956F927E
S11306807F928F929F92AF92BF92CF92DF92EF921E
S1130690FF920F931F93CF93DF9383E480938B0098
S11306A081E180938A0082E090E0909387008093B8
S11306B0860081B3806181BB83EC99E00197F1F7F7
S11306C000C0000020E030E0C0E0D0E030C0E091A5
S11306D00601F0910701108289EF90E00197F1F78C
S11306E000C00000E0910601F09107014081809173
S11306F0B4029091B502840F911D9093B50280933A
S1130700B40240818091B6029091B702840F911D8A
S11307109093B7028093B6028081808189EF90E044
S11307200197F1F700C0000021962F5F3F4F243658
S113073031056CF28091B4029091B502BE010E9421
S1130740170F262F372F6093E0027093E1028091F8
S1130750B6029091B702BE010E94170F6093C502C2
S11307607093C6027F936F933F932F938CE191E034
S11307709F938F930E94900F0091E0021091E102E9
S113078066246A94712C7301E01AF10AC0E1D7E27D
S1130790CE01B7010E94170F072E000C880B990B8E
S11307A00E941E0E4B015C016093EC027093ED02FB
S11307B08093EE029093EF022CE920036001219FC5
S11307C0D00C1124C601B7010E94170F7B01072E1C
S11307D0000C880B990B0E941E0E6093D402709338
S11307E0D5028093D6029093D702CE01B8010E941D
S11307F0170F072E000C880B990B0E941E0E609396
S1130800E6027093E7028093E8029093E902C6013E
S1130810B8010E94170F072E000C880B990B0E9439
S11308201E0E6093DC027093DD028093DE029093CF
S1130830DF020091C5021091C602601A710ACE014E
S1130840B3010E94170F072E000C880B990B0E940E
S11308501E0E6093D8027093D9028093DA029093AB
S1130860DB022CE920036001219FD00C1124C60176
S1130870B3010E94170F072E000C880B990B0E94DE
S11308801E0E6093C9027093CA028093CB029093A8
S1130890CC02CE01B8010E94170F072E000C880B62
S11308A0990B0E941E0E6093E2027093E302809300
S11308B0E4029093E502C601B8010E94170F072EC7
S11308C0000C880B990B0E941E0E6093C10270935A
S11308D0C2028093C3029093C40220E030E04AE74E
S11308E054E4C501B4010E94AA0EFF92EF920E9443
S11308F0E60D7F936F9388E291E09F938F930E941C
S1130900900F20E030E04AE754E46091E6027091F1
S1130910E7028091E8029091E9020E94AA0E6B011D
S11309207C016091DC027091DD028091DE02909185
S1130930DF020E94E60D7F936F93C701B6010E9408
S1130940E60D7F936F938BE391E09F938F930E94C7
S1130950900F20E030E04AE754E46091D8027091AF
S1130960D9028091DA029091DB020E94AA0E6B01F7
S11309707C016091C9027091CA028091CB0290916E
S1130980CC020E94E60D7F936F93C701B6010E94CB
S1130990E60D7F936F938EE491E09F938F930E9473
S11309A0900F20E030E04AE754E46091E202709155
S11309B0E3028091E4029091E5020E94AA0E6B0189
S11309C07C016091C1027091C2028091C302909136
S11309D0C4020E94E60D7F936F93C701B6010E9483
S11309E0E60D7F936F9381E691E09F938F930E942E
S11309F0900FF8941FBC82E08EBD80E889BF789484
S1130A00E0910601F091070110828DB79EB74E96D2
S1130A100FB6F8949EBF0FBE8DBFDF91CF911F918B
S1130A200F91FF90EF90DF90CF90BF90AF909F9089
S1130A308F907F906F9008951F920F920FB60F9230
S1130A4011248F9381E08093B8028F910F900FBE91
S1130A500F901F9018950E94F205F89485B7836053
S1130A6085BF80E48BBF789460E88FE00E94D00556
S1130A7061E08BE20E94D00563E08AE20E94D00527
S1130A8061EB89E20E94D00565E088E20E94D0050E
S1130A9060E08FE00E94D00508950F931F93CF93D9
S1130AA08C01FC01608181E30E94D005F801618121
S1130AB06295660F607E82E30E94D005F801628130
S1130AC085E30E94D005C0E009C0F801EC0FF11DD8
S1130AD0638186E38C0F0E94D005CF5FC830A8F3F2
S1130AE083EC99E00197F1F700C000000E94B9057A
S1130AF081E80E94E90C0E94BB05CF911F910F91E0
S1130B000895EF92FF920F931F93CF937C018091EE
S1130B10B802813039F581E60E94BE05F701808371
S1130B2082E60E94BE05829586958770F7018183CF
S1130B3085E60E94BE05F7018283C0E00BC00C2F3E
S1130B4010E086E68C0F0E94BE05F701E00FF11F4E
S1130B508383CF5FC83098F31092B80260E08CE2D0
S1130B600E94D005C701CF911F910F91FF90EF9084
S1130B70089518BA089580E188BB0895CF93C82FCB
S1130B800E94B90583E00E94E90C8C2F0E94E90CB5
S1130B900E94ED0CC82F0E94BB058C2FCF910895A5
S1130BA0CF93DF93D82FC62F0E94B90582E00E940D
S1130BB0E90C8D2F0E94E90C8C2F0E94E90C0E94F5
S1130BC0BB05DF91CF9108950E94B90580EC0E9486
S1130BD0E90C0E94BB0581EE94E00197F1F700C097
S1130BE0000008950E94E40560E08FE00E94D005B3
S1130BF00895E3EFF2E08FEF8083818387E08283BF
S1130C008091CF029091D0028C5983838091C70246
S1130C109091C8028C5984838091CD029091CE0228
S1130C2085838091BF029091C00286838091EA02FD
S1130C3087838091F20280878091D3028187CF01DC
S1130C400E944D0583EC99E00197F1F700C0000084
S1130C5008950F931F93CF93DF93CDB7DEB72B97F0
S1130C600FB6F894DEBF0FBECDBFCE0101960E9431
S1130C70810583EC99E00197F1F700C000008C81B5
S1130C80082F10E01F928F9384E791E09F938F9336
S1130C900E94900F0F900F900F900F90C8012B9609
S1130CA00FB6F894DEBF0FBECDBFDF91CF911F9179
S1130CB00F910895CF93DF93CDB7DEB72B970FB67F
S1130CC0F894DEBF0FBECDBF80E885BF8FE190E012
S1130CD00E94F20C62E07DE08CEF9CE00E94450FE4
S1130CE00E943F030E948A070E94E20C0E942B0587
S1130CF00E947C07A091F202F091EA02E091D302F3
S1130D006091BF027091C0024091CD025091CE0219
S1130D102091C7023091C8028091CF029091D002F5
S1130D201F92AF931F92FF931F92EF937F936F9342
S1130D305F934F933F932F939F938F938AE791E011
S1130D409F938F930E94900F6A85598548853F81B0
S1130D502E819D818C811F926F931F925F931F92AE
S1130D604F931F923F931F922F931F929F931F9213
S1130D708F9380EE91E09F938F930E94900F0FB614
S1130D80F894DEBF0FBECDBF0E94930BB3CFE091AA
S1130D901801F091190180830895E0911601F091F2
S1130DA01701808308958091FF0288231CF48058E2
S1130DB08093FF02EEEFF2E080818F5F80838830C2
S1130DC010F01092FE0208951F93CF93DF9310EE5C
S1130DD0180FC0E0D0E018C0E12FF0E0EE0FFF1FC5
S1130DE0EE0FFF1FEE0FFF1FEC0FFD1FE855FF4F27
S1130DF0859194910E94CD06EEEFF2E08181885FA7
S1130E0081830E94D3062196C830D1052CF380E05B
S1130E1090E0DF91CF911F910895CF93C82F80E286
S1130E200E94C7068C2F0E94C706CF910895CF93C6
S1130E30C82F883078F48093FE0282E090E00E940C
S1130E400D0780EB8C0F0E94C70680E090E00E94A3
S1130E500D0706C08DE392E00E94A60F80E090E0AB
S1130E60CF910895CF93DF93C82F8823B4F0809354
S1130E70FF0282E090E00E940D07DC2FD295DF7024
S1130E808C2F8F700E94C70680E18D0F0E94C706C9
S1130E9080E090E00E940D0706C080E592E00E9489
S1130EA0A60F80E090E0DF91CF910895CF93C62FF5
S1130EB00E9417078C2F0E943207CF91089560E09B
S1130EC070E080E090E00E9456070895CF93DF938E
S1130ED0D82F60E070E090E00E945607C0E004C0A4
S1130EE080E00E94CD06CF5FCC23D4F78D2F0E94E3
S1130EF01707DF91CF910895CF93C0E005C08C2FE1
S1130F0090E00E946607CF5FC830C8F30E945F0775
S1130F10CF9108958EEA0E94C70681EA0E94C7060F
S1130F208AED0E94C70682E10E94C70688EC0E94EF
S1130F30C70688EA0E94C7068FE30E94C70685EDAC
S1130F400E94C70680E80E94C70681E80E94C7067F
S1130F5080E50E94C70689ED0E94C70681E20E94CF
S1130F60C70680E20E94C70682E00E94C7068BED96
S1130F700E94C70680E30E94C7068DEA0E94C70646
S1130F8080E00E94C70684EA0E94C70686EA0E949F
S1130F90C7068FEA0E94C7060E947C070895CF9374
S1130FA0DF93D0E00FC060E070E08D2F90E00E94EE
S1130FB05607C0E004C080E00E94CD06CF5FC83071
S1130FC0D0F3DF5FD83078F3DF91CF9108950E949A
S1130FD0560788E10E94CD0688E10E94CD068EE77F
S1130FE00E94CD068CE30E94CD0688E10E94CD06C6
S1130FF00895CF93DF93CDB7DEB7AE014B5F5F4F5C
S1131000FA0161917191AF0188E091E00E94D60FDD
S1131010DF91CF910895FC0101900020E9F7319709
S1131020E81BF90BEE0FFF1FEE0FFF1FEE0FFF1F64
S1131030F695E79580E48E1B0E94320708950F937E
S11310401F93CF93DF930E947C0701C08E01809190
S1131050F202811104C01092BA021092B9020E94E5
S11310605F0785E692E00E940B0885E692E09F9375
S11310708F930E94F90760E081E00E9456078AE698
S113108092E00E940B088AE692E09F938F930E945D
S1131090F9078091D3020F900F900F900F90813039
S11310A049F481E090E090931B0180931A010E941F
S11310B07C072AC00E94F9050E942906EC0160E021
S11310C084E00E94560785E792E00E940B0885E7BA
S11310D092E09F938F930E94F90760E085E00E945D
S11310E05607CE010E940B08DF93CF930E94F907A5
S11310F00F900F900F900F900C171D0709F4A6CFB7
S113110085E00E946607A2CFDF91CF911F910F91D6
S1131110089581E090E0909301038093000380910F
S1131120F202811104C01092BA021092B90281E055
S113113090E090931B0180931A018091F202811137
S113114004C01092BA021092B9020E945F078CE7A1
S113115092E00E940B088CE792E09F938F930E9489
S1131160F90769E087E00E94560782E892E09F93BE
S11311708F930E94F9078091D1029091D2020F902F
S11311800F900F900F90883C9105DCF48091BB0286
S11311909091BC02019731F08091BD029091BE0202
S11311A0019779F48091D1029091D202853691050C
S11311B044F01092BC021092BB021092BE02109234
S11311C0BD028091D1029091D202883C91051CF11C
S11311D08091BD029091BE02892BE9F480910003B5
S11311E0909101030197909301038093000381E0A0
S11311F090E09093BE028093BD020E94CF0780913D
S1131200000390910103892B31F487E090E09093DF
S11312100103809300038091D1029091D20285361C
S113122091051CF58091BB029091BC02892BE9F4D5
S113123080910003909101030196909301038093A0
S1131240000381E090E09093BC028093BB020E9473
S1131250CF078091000390910103089731F481E056
S113126090E09093010380930003E0910003F091D8
S113127001033197E730F105A0F5E85CFF4F0C94CA
S11312802B0F81E090E090931B0180931A0129C0F9
S113129082E090E090931B0180931A0122C083E0C6
S11312A090E090931B0180931A011BC084E090E0AE
S11312B090931B0180931A0114C085E090E09093F1
S11312C01B0180931A010DC086E090E090931B01EE
S11312D080931A0106C087E090E090931B018093ED
S11312E01A0160E080911A010E94E7078091F202DE
S11312F0813009F01CCF80911A0190911B0107974E
S113130009F015CF81E090E090931B0180931A01BE
S11313100E94CF070E947C070E94CF07089581E0B6
S113132090E090930103809300038091F202811175
S113133004C01092BA021092B90281E090E0909336
S11313401B0180931A018091F202811104C0109252
S1131350BA021092B9020E945F0787E892E00E94E5
S11313600B0887E892E09F938F930E94F90769E046
S113137087E00E94560782E892E09F938F930E9431
S1131380F9078091D1029091D2020F900F900F90A3
S11313900F90883C9105DCF48091BB029091BC02D3
S11313A0019731F08091BD029091BE02019779F4CA
S11313B08091D1029091D2028536910544F0109229
S11313C0BC021092BB021092BE021092BD02809128
S11313D0D1029091D202883C91051CF18091BD020A
S11313E09091BE02892BE9F480910003909101034E
S11313F00197909301038093000381E090E0909320
S1131400BE028093BD020E94CF0780910003909199
S11314100103892B31F487E090E0909301038093DA
S113142000038091D1029091D202853691051CF57A
S11314308091BB029091BC02892BE9F48091000356
S1131440909101030196909301038093000381E03E
S113145090E09093BC028093BB020E94CF078091DE
S1131460000390910103089731F481E090E0909398
S1131470010380930003E0910003F091010331978D
S1131480E730F105A0F5E15CFF4F0C942B0F81E0F0
S113149090E090931B0180931A0129C082E090E0B0
S11314A090931B0180931A0122C083E090E09093F3
S11314B01B0180931A011BC084E090E090931B01F0
S11314C080931A0114C085E090E090931B018093EF
S11314D01A010DC086E090E090931B0180931A01DD
S11314E006C087E090E090931B0180931A0160E0AE
S11314F080911A010E94E7078091F202813009F07D
S11315001CCF80911A0190911B01079709F015CF08
S113151081E090E090931B0180931A010E94CF0711
S11315200E947C070E94CF07089581E090E0909389
S11315300103809300038091F202811104C0109290
S1131540BA021092B9028091F202811104C0109281
S1131550BA021092B9020E945F0783E992E00E94E6
S11315600B0883E992E09F938F930E94F90769E047
S113157087E00E94560782E892E09F938F930E942F
S1131580F9078091D1029091D2020F900F900F90A1
S11315900F90883C9105DCF48091BB029091BC02D1
S11315A0019731F08091BD029091BE02019779F4C8
S11315B08091D1029091D2028536910544F0109227
S11315C0BC021092BB021092BE021092BD02809126
S11315D0D1029091D202883C91051CF18091BD0208
S11315E09091BE02892BE9F480910003909101034C
S11315F00197909301038093000381E090E090931E
S1131600BE028093BD020E94CF0780910003909197
S11316100103892B31F487E090E0909301038093D8
S113162000038091D1029091D202853691051CF578
S11316308091BB029091BC02892BE9F48091000354
S1131640909101030196909301038093000381E03C
S113165090E09093BC028093BB020E94CF078091DC
S1131660000390910103089731F481E090E0909396
S1131670010380930003E0910003F091010331978B
S1131680E730F105A0F5EA5BFF4F0C942B0F81E0E6
S113169090E090931B0180931A0129C082E090E0AE
S11316A090931B0180931A0122C083E090E09093F1
S11316B01B0180931A011BC084E090E090931B01EE
S11316C080931A0114C085E090E090931B018093ED
S11316D01A010DC086E090E090931B0180931A01DB
S11316E006C087E090E090931B0180931A0160E0AC
S11316F080911A010E94E7078091F202813009F07B
S113170022CF80911A0190911B01079709F01BCFFA
S113171081E090E090931B0180931A010E947C0762
S11317200E94CF070895CF93DF930E945F078EE94D
S113173092E00E940B088EE992E09F938F930E949F
S1131740F90769E081E00E94560785E692E09F93DD
S11317508F930E94F90769E082E00E9456078CE7A4
S113176092E09F938F930E94F90769E083E00E94BF
S1131770560788EA92E09F938F930E94F90769E0E5
S113178084E00E94560783E992E09F938F930E941E
S1131790F9078091F2022DB73EB7265F3F4F0FB68F
S11317A0F8943EBF0FBE2DBF811104C01092BA023F
S11317B01092B9028091D1029091D202883C910595
S11317C0DCF48091BB029091BC02019731F08091CE
S11317D0BD029091BE02019779F48091D10290915B
S11317E0D2028536910544F01092BC021092BB02DD
S11317F01092BE021092BD028091D1029091D20249
S1131800883C91051CF18091BD029091BE02892B08
S1131810E9F48091000390910103019790930103EF
S11318208093000381E090E09093BE028093BD0218
S11318300E94CF078091000390910103892B31F41A
S113184087E090E090930103809300038091D1029C
S11318509091D202853691051CF58091BB0290913E
S1131860BC02892BE9F48091000390910103019655
S1131870909301038093000381E090E09093BC0275
S11318808093BB020E94CF078091000390910103D3
S1131890089731F481E090E0909301038093000372
S11318A0E0910003F09101033197E730F10508F06E
S11318B081C0E35BFF4F0C942B0F81E090E0909389
S11318C01B0180931A018091F202813009F072C0E9
S11318D08091B9029091BA02892B09F06BC0C1E0E2
S11318E0D0E0D093BA02C093B9020E947C070E9450
S11318F01F080E94CF07D0930103C09300035AC06E
S113190082E090E090931B0180931A018091F2028F
S1131910813009F04FC00E947C070E9489080E9410
S1131920CF0781E090E0909301038093000342C0CD
S113193083E090E090931B0180931A018091F2025E
S11319408130C1F50E947C070E948F090E94CF0755
S113195081E090E090930103809300032BC084E026
S113196090E090931B0180931A018091F2028130E0
S113197009F50E947C070E94950A0E94CF0781E026
S113198090E0909301038093000314C085E090E0FD
S113199090931B0180931A010DC086E090E0909310
S11319A01B0180931A0106C087E090E090931B010D
S11319B080931A0160E080911A010E94E707DF9189
S11319C0CF91089580EB87BB81E58DB980E188BB19
S11319D008958FB9779BFECF08951FB8779BFECFEC
S11319E08FB108952BB12D7F2BB990BD89B988E1B2
S11319F08AB98EE880BD08955D9BFECF8CB980E0E6
S1131A0090E008955D9BFECF8CB190E0089550580E
S1131A10BB27AA270E941F0D0C94700E0E94620E11
S1131A2038F00E94690E20F039F49F3F19F426F42F
S1131A300C945F0E0EF4E095E7FB0C94590EE92F1D
S1131A400E94810E58F3BA1762077307840795073B
S1131A5020F079F4A6F50C94A30E0EF4E0950B2E69
S1131A60BA2FA02D0B01B90190010C01CA01A001EC
S1131A701124FF27591B99F0593F50F4503E68F147
S1131A801A16F040A22F232F342F4427585FF3CF88
S1131A90469537952795A795F0405395C9F77EF459
S1131AA01F16BA0B620B730B840BBAF09150A1F0A2
S1131AB0FF0FBB1F661F771F881FC2F70EC0BA0F28
S1131AC0621F731F841F48F4879577956795B795B0
S1131AD0F7959E3F08F0B0CF9395880F08F09927AB
S1131AE0EE0F9795879508950E94880D0C94700EBB
S1131AF00E94690E58F00E94620E40F029F45F3F84
S1131B0029F00C94590E51110C94A40E0C945F0EF0
S1131B100E94810E68F39923B1F3552391F3951B29
S1131B20550BBB27AA2762177307840738F09F5FFA
S1131B305F4F220F331F441FAA1FA9F335D00E2E67
S1131B403AF0E0E832D091505040E695001CCAF7D4
S1131B502BD0FE2F29D0660F771F881FBB1F261797
S1131B6037074807AB07B0E809F0BB0B802DBF016E
S1131B70FF2793585F4F3AF09E3F510578F00C943D
S1131B80590E0C94A40E5F3FE4F3983ED4F386956B
S1131B9077956795B795F7959F5FC9F7880F911D5E
S1131BA09695879597F90895E1E0660F771F881F4A
S1131BB0BB1F621773078407BA0720F0621B730BFD
S1131BC0840BBA0BEE1F88F7E09508950E94ED0D83
S1131BD06894B1110C94A40E08950E94890E88F0A3
S1131BE09F5798F0B92F9927B751B0F0E1F0660FDD
S1131BF0771F881F991F1AF0BA95C9F714C0B1301E
S1131C0091F00E94A30EB1E008950C94A30E672FE7
S1131C10782F8827B85F39F0B93FCCF3869577954C
S1131C206795B395D9F73EF4909580957095619535
S1131C307F4F8F4F9F4F0895E89409C097FB3EF460
S1131C4090958095709561957F4F8F4F9F4F992305
S1131C50A9F0F92F96E9BB279395F6958795779583
S1131C606795B795F111F8CFFAF4BB0F11F460FF43
S1131C701BC06F5F7F4F8F4F9F4F16C0882311F09B
S1131C8096E911C0772321F09EE8872F762F05C0AF
S1131C90662371F096E8862F70E060E02AF09A954A
S1131CA0660F771F881FDAF7880F9695879597F93F
S1131CB0089597F99F6780E870E060E008959FEFCA
S1131CC080EC089500240A941616170618060906CF
S1131CD0089500240A94121613061406050608959E
S1131CE0092E0394000C11F4882352F0BB0F40F426
S1131CF0BF2B11F460FF04C06F5F7F4F8F4F9F4F66
S1131D00089557FD9058440F551F59F05F3F71F0E7
S1131D104795880F97FB991F61F09F3F79F087954E
S1131D200895121613061406551FF2CF4695F1DFD7
S1131D3008C0161617061806991FF1CF8695710567
S1131D40610508940895E894BB2766277727CB019B
S1131D5097F908950E94BD0E0C94700E0E94620EB5
S1131D6038F00E94690E20F0952311F00C94590E5E
S1131D700C945F0E11240C94A40E0E94810E70F337
S1131D80959FC1F3950F50E0551F629FF001729F1C
S1131D90BB27F00DB11D639FAA27F00DB11DAA1F2B
S1131DA0649F6627B00DA11D661F829F2227B00D78
S1131DB0A11D621F739FB00DA11D621F839FA00D03
S1131DC0611D221F749F3327A00D611D231F849F53
S1131DD0600D211D822F762F6A2F11249F575040AA
S1131DE09AF0F1F088234AF0EE0FFF1FBB1F661F25
S1131DF0771F881F91505040A9F79E3F510580F0EE
S1131E000C94590E0C94A40E5F3FE4F3983ED4F363
S1131E10869577956795B795F795E7959F5FC1F791
S1131E20FE2B880F911D9695879597F9089597FB3A
S1131E30072E16F4009407D077FD09D00E94310FC5
S1131E4007FC05D03EF4909581959F4F08957095B9
S1131E5061957F4F0895EE0FFF1F0590F491E02DDB
S1131E600994AA1BBB1B51E107C0AA1FBB1FA617DD
S1131E70B70710F0A61BB70B881F991F5A95A9F72F
S1131E8080959095BC01CD0108950F931F93CF9336
S1131E90DF93009731F46115710519F480E090E047
S1131EA03AC08B01EC016EE070E081E090E00E94AA
S1131EB0B711FC01892B91F380E883830115110587
S1131EC071F01387028781E88383809102039091E4
S1131ED00303892B21F4F0930303E0930203209777
S1131EE0C9F0D187C0878381826083838091040392
S1131EF090910503892B71F4F0930503E093040397
S1131F008091060390910703892B21F4F093070332
S1131F10E0930603CF01DF91CF911F910F910895B4
S1131F20A0E0B0E0E6E9FFE00C94BB13AE014B5F28
S1131F305F4FFA0161917191AF0180910403909117
S1131F4005030E94D60FE2E00C94D7130F931F935E
S1131F50CF93DF93E0910403F0910503238121FFE4
S1131F601BC08C01D0E0C0E0F80181918F01609129
S1131F70040370910503DB011896ED91FC91199708
S1131F80882331F00995892B79F3DFEFCFEFECCF7C
S1131F908AE00995892B19F08FEF9FEF02C08D2FEE
S1131FA09C2FDF91CF911F910F910895ABE0B0E08A
S1131FB0ECEDFFE00C94AB136C017B018A01FC0196
S1131FC017821682838181FFCCC1CE0101963C0128
S1131FD0F6019381F70193FD859193FF81917F0130
S1131FE0882309F4BAC1853239F493FD859193FFAE
S1131FF081917F01853229F4B60190E00E9411138A
S1132000E7CF912C212C312CFFE1F315D8F08B3242
S113201079F038F4803279F08332A1F4232D2061F1
S11320201DC08D3261F0803369F4232D216016C008
S1132030832D8260382EE32DE4603E2E2AC0F32DDA
S1132040F8601DC037FC2DC020ED280F2A3040F069
S11320508E32B9F436FC81C1232D2064322E19C08E
S113206036FE06C08AE0989E200D1124922E11C0DF
S1132070EAE02E9E200D1124222EF32DF0623F2E35
S113208008C08C3621F4832D8068382E02C088362F
S113209041F4F70193FD859193FF81917F018111B3
S11320A0B3CF982F9F7D9554933028F40C5F1F4F26
S11320B09FE399830DC0833631F0833771F0833504
S11320C009F059C021C0F801808189830E5F1F4F38
S11320D088248394912C530113C02801F2E04F0EFD
S11320E0511CF801A080B18036FE03C0692D70E058
S11320F002C06FEF7FEFC5010E9406134C018201FD
S1132100F32DFF773F2E16C0280122E0420E511C0A
S1132110F801A080B18036FE03C0692D70E002C0D2
S11321206FEF7FEFC5010E94F4124C01F32DF068AC
S11321303F2E820133FC1BC0822D90E08816990645
S1132140B0F4B60180E290E00E9411132A94F4CF17
S1132150F50137FC859137FE81915F01B60190E06E
S11321600E94111321102A9421E0821A91088114EB
S1132170910471F7E8C0843611F0893641F5F8010D
S113218037FE07C060817181828193810C5F1F4F8C
S113219008C060817181072E000C880B990B0E5FBB
S11321A01F4FF32DFF763F2E97FF09C09095809522
S11321B0709561957F4F8F4F9F4FF0683F2E2AE0B7
S11321C030E0A3010E944D13882E861845C0853740
S11321D031F4232D2F7EB22E2AE030E025C0932D3A
S11321E0997FB92E8F36C1F018F4883579F0B5C0CF
S11321F0803719F0883721F0B0C0E92FE061BE2E96
S1132200B4FE0DC0FB2DF460BF2E09C034FE0AC01D
S1132210292F2660B22E06C028E030E005C020E158
S113222030E002C020E132E0F801B7FE07C060816F
S11322307181828193810C5F1F4F06C0608171811F
S113224080E090E00E5F1F4FA3010E944D13882E83
S11322508618FB2DFF773F2E36FE0DC0232D2E7FD3
S1132260A22E891458F434FE0BC032FC09C0832D0D
S11322708E7EA82E05C0B82CA32C03C0B82C01C098
S1132280B92CA4FE0FC0FE01E80DF11D808180333E
S113229021F49A2D997EA92E09C0A2FE06C0B394FA
S11322A0B39404C08A2D867809F0B394A3FC11C0BA
S11322B0A0FE06C0B21488F4280C922C9B180EC001
S11322C0B21460F4B60180E290E00E941113B3945A
S11322D0F7CFB21418F42B1802C0982C212CA4FEAA
S11322E010C0B60180E390E00E941113A2FE17C053
S11322F0A1FC03C088E790E002C088E590E0B60145
S11323000CC08A2D867859F0A1FE02C08BE201C070
S113231080E2A7FC8DE2B60190E00E9411138914BB
S113232038F4B60180E390E00E9411139A94F7CF39
S11323308A94F301E80DF11D8081B60190E00E94BA
S113234011138110F5CF222009F442CEB60180E2A8
S113235090E00E9411132A94F6CFF60186819781AA
S113236002C08FEF9FEF2B96E2E10C94C7130F93FB
S11323701F93CF93DF93869F8001879F100D969FB5
S1132380100D1124C8010E94D311EC01009729F00B
S1132390A80160E070E00E94FF12CE01DF91CF91AE
S11323A01F910F9108950F931F93CF93DF93823062
S11323B0910510F482E090E0E0910A03F0910B03A0
S11323C020E030E0A0E0B0E0309719F14081518185
S11323D00281138148175907C8F08417950769F4D7
S11323E0109731F012960C93129713961C9327C0F2
S11323F000930A0310930B0322C02115310519F031
S11324004217530718F49A01BD01EF01DF01F801E7
S1132410DBCF21153105F9F0281B390B24303105A8
S113242080F48A819B816115710521F0FB019383FE
S1132430828304C090930B0380930A03FE013296B7
S113244044C0FE01E20FF31F81939193225031099E
S1132450398328833AC02091080330910903232B40
S113246041F4209102013091030130930903209338
S1132470080320910001309101012115310541F437
S11324802DB73EB74091040150910501241B350B33
S1132490E0910803F0910903E217F307A0F42E1B5F
S11324A03F0B2817390778F0AC014E5F5F4F2417B4
S11324B0350748F04E0F5F1F5093090340930803FC
S11324C08193919302C0E0E0F0E0CF01DF91CF91DE
S11324D01F910F910895CF93DF93009709F481C062
S11324E0FC01329713821282A0910A03B0910B036C
S11324F0109781F420813181820F931F209108036A
S1132500309109032817390751F5F0930903E09333
S1132510080367C0ED0120E030E0CE17DF0740F488
S11325204A815B819E0141155105F1F0EA01F5CF25
S1132530D383C28340815181840F951FC817D90763
S113254059F488819981840F951F02969183808321
S11325508A819B81938382832115310529F4F09329
S11325600B03E0930A033DC0E901FB83EA8349912D
S11325705991C40FD51FEC17FD0761F48081918137
S1132580840F951F0296E901998388838281938140
S11325909B838A83E0E0F0E012968D919C911397DF
S11325A0009719F0FD01DC01F7CF8D919C911197F3
S11325B09D012E5F3F4F820F931F2091080330919E
S11325C009032817390769F4309729F410920B038B
S11325D010920A0302C013821282B0930903A093DB
S11325E00803DF91CF910895FC010590615070407C
S11325F00110D8F7809590958E0F9F1F0895DC01E8
S113260001C06D9341505040E0F70895FC016150C2
S1132610704001900110D8F7809590958E0F9F1F00
S113262008950F931F93CF93DF93FB01238121FD23
S113263003C08FEF9FEF2CC022FF16C04681578145
S1132640248135814217530744F4A081B1819D014F
S11326502F5F3F4F318320838C93268137812F5FF7
S11326603F4F3783268314C08B01EC01FB010084A8
S1132670F185E02D0995892BE1F6D80116968D9107
S11326809C911797019617969C938E931697CE015B
S1132690DF91CF911F910F910895FA01AA27283055
S11326A051F1203181F1E8946F936E7F6E5F7F4F1B
S11326B08F4F9F4FAF4FB1E03ED0B4E03CD0670F97
S11326C0781F891F9A1FA11D680F791F8A1F911DEA
S11326D0A11D6A0F711D811D911DA11D20D009F43A
S11326E068943F912AE0269F11243019305D31937C
S11326F0DEF6CF010895462F4770405D4193B3E065
S11327000FD0C9F7F6CF462F4F70405D4A3318F00B
S1132710495D31FD4052419302D0A9F7EACFB4E0BC
S1132720A6959795879577956795BA95C9F7009774
S11327306105710508959B01AC010A2E0694579515
S1132740479537952795BA95C9F7620F731F841F6C
S1132750951FA01D08952F923F924F925F926F9202
S11327607F928F929F92AF92BF92CF92DF92EF921D
S1132770FF920F931F93CF93DF93CDB7DEB7CA1B9E
S1132780DB0B0FB6F894DEBF0FBECDBF09942A88C9
S1132790398848885F846E847D848C849B84AA8471
S11327A0B984C884DF80EE80FD800C811B81AA81FE
S11327B0B981CE0FD11D0FB6F894DEBF0FBECDBFC9
S10B27C0ED010895F894FFCF28
S11327C800000C03200000140000000200000000B8
S11327D8E406000000000012001001000A0A0D209F
S11327E82564202564200A00506F7320783A202538
S11327F8642A78202B2025640A0D004E656720780A
S11328083A2025642A78202B2025640A0D00506F6D
S11328187320793A2025642A79202B2025640A0D0F
S1132828004E656720793A2025642A79202B2025D3
S1132838640A0D002564200D0A006A6F79793A202C
S113284825642C206A6F79783A2025642C20736CCF
S1132858696465724C6566743A2025642C20536C4F
S11328686964657252696768743A2025642C207219
S113287869676874627574746F6E3A2025642C20D5
S11328884C656674627574746F6E3A2025642C20E6
S11328984A6F79627574746F6E3A2025640A0D0064
S11328A8646174615B305D3A2025642C2064617432
S11328B8615B315D3A2025642C20646174615B326C
S11328C85D3A2025642C20646174615B335D3A2091
S11328D825642C20646174615B345D3A2025642C82
S11328E820646174615B355D3A2025642C20646141
S11328F874615B365D3A2025640A0A0D004C696EE2
S113290865206F7574206F6620626F756E6473003E
S1132918436F6C756D6E206F7574206F6620626FDF
S1132928756E647300506C6179004C4220746F209A
S1132938717569740053636F72653A0055736572F3
S113294873004261636B00486967682053636F7260
S1132958657300446966666963756C7479004D61D2
S1132968696E206D656E7500486967682073636FCA
S1072978726573000D
S9030000FC
