S01600004279676765726E5F736F757263652E7372656350
S11300000C94C2010C94DF010C945C020C94DF018B
S11300100C94DF010C94DF010C94DF010C94DF01DC
S11300200C94DF010C94DF010C94DF010C94DF01CC
S11300300C94DF010C94DF010C94DF010C94E101BA
S11300400C94DF010C94DF010C94DF010C94DF01AC
S11300500C94DF010C94DF010C94DF010C94DF019C
S11300600C94DF010C94DF010C94DF010C94DF018C
S11300703C046D047A04870494049B04A2043D05A3
S113008044054B055205590560056705000000004D
S11300900000000000065F5F060000000007070084
S11300A007070000147F7F147F7F1400242E6B6BDE
S11300B03A120000466630180C666200307A4F5DD2
S11300C0377A48000407030000000000001C3E6368
S11300D0410000000041633E1C000000082A3E1C51
S11300E01C3E2A0808083E3E0808000000A0E06004
S11300F0000000000808080808080000000060600C
S1130100000000006030180C060301003E7F594DCA
S11301107F3E000042427F7F4040000062735949A5
S11301206F660000226349497F360000181C1613CD
S11301307F7F1000276745457D3900003C7E4B4991
S113014079300000036371190F070000367F4949B5
S11301507F360000064F49693F1E000000006C6CAA
S11301600000000000A0EC6C00000000081C3663D6
S113017041000000141414141414000000416336E8
S11301801C080000020351590F0600003E7F415D28
S11301905D1F1E007C7E13137E7C0000417F7F491F
S11301A0497F36001C3E634141632200417F7F4109
S11301B0637F1C00417F7F495D416300417F7F492C
S11301C01D0103001C3E6341517372007F7F0808C8
S11301D07F7F000000417F7F41000000307040417C
S11301E07F3F0100417F7F081C776300417F7F418F
S11301F0406070007F7F060C067F7F007F7F060CC7
S1130200187F7F001C3E6341633E1C00417F7F4991
S1130210090F06001E3F21717F5E0000417F7F1998
S1130220396F460026674D597B32000003417F7FBA
S1130230410300007F7F40407F7F00001F3F6060DC
S11302403F1F00007F7F3018307F7F0063771C08DA
S11302501C776300074F78784F0700006773594D88
S113026047637100007F7F41410000000103060CD9
S1130270183060000041417F7F000000080C060335
S1130280060C080080808080808080800000030746
S113029004000000207454543C784000413F7F44E3
S11302A0447C3800387C44446C2800003078484949
S11302B03F7F4000387C54545C180000487E7F49DE
S11302C00302000098BCA4A4F87C0400417F7F08CA
S11302D0047C780000447D7D4000000040C484FD1F
S11302E07D000000417F7F10386C440000417F7F17
S11302F0400000007C7C0C180C7C78007C7C04049E
S11303007C780000387C44447C38000084FCF8A4E9
S1130310243C1800183C24A4F8FC8400447C784451
S11303201C180000485C54547424000000043E7FF0
S1130330442400003C7C40403C7C40001C3C606009
S11303403C1C00003C7C6030607C3C00446C3810F9
S1130350386C44009CBCA0A0FC7C00004C64745C21
S11303604C64000008083E7741410000000000771B
S1130370770000004141773E0808000002030103B2
S11303800203010011241FBECFEFD4E0DEBFCDBFB6
S113039011E0A0E0B1E0EAE5F4E102C005900D92BD
S11303A0A43EB107D9F722E0A4EEB1E001C01D924A
S11303B0A930B207E1F70E9473020C942B0A0C9443
S11303C000001F920F920FB60F9211242F933F93A8
S11303D04F935F936F937F938F939F93EF93FF93C9
S11303E0E0910601F0910701808190E09093ED0186
S11303F08093EC01808190E09093F4018093F30169
S1130400808190E09093E9018093E801808190E0FD
S11304109093EB018093EA0180B382FB662760F935
S113042070E07093F1016093F00180B383FB442783
S113043040F950E05093EF014093EE0180B3829570
S11304408695877091E08927282F217030E03093BA
S1130450F6012093F501108289EF90E00197F1F7FE
S113046000C00000FF91EF919F918F917F916F9158
S11304705F914F913F912F910F900FBE0F901F905E
S1130480189583E480938B0081E180938A0082E055
S113049090E0909387008093860081B3806181BB54
S11304A01FBC82E08EBD80E889BF7894E09106018C
S11304B0F0910701108208951F920F920FB60F92C8
S11304C011248F93EF93FF93E0910601F0910701BC
S11304D080818093F201FF91EF918F910F900FBE75
S11304E00F901F90189580E885BF8FE190E00E94DF
S11304F0730563E875E08DE795E00E948E0580E062
S113050090E00E9441020E94F4028091EC019091DB
S1130510ED019F938F9380E291E09F938F930E94CC
S1130520D9058091F3019091F4019F938F938CE20C
S113053091E09F938F930E94D9058091EA01909155
S1130540EB019F938F9388E391E09F938F930E9495
S1130550D9058091E8019091E9019F938F938CE4F0
S113056091E09F938F930E94D9058091EE01909121
S1130570EF019F938F938FE591E09F938F930E9458
S1130580D9058091F0019091F1019F938F9382E7B7
S113059091E09F938F930E94D9058091F5019091EA
S11305A0F6019F938F9385E891E09F938F930E9428
S11305B0D9050E94E7030E94CA030E94A9048DB7CB
S11305C09EB74C960FB6F8949EBF0FBE8DBF9DCFBD
S11305D0E0911A01F0911B0180830895E0911801C4
S11305E0F0911901808308958EEA0E94E80281EA5D
S11305F00E94E8028AED0E94E80282E10E94E80279
S113060088EC0E94E80288EA0E94E8028FE30E94D4
S1130610E80285ED0E94E80280E80E94E80281E891
S11306200E94E80280E50E94E80289ED0E94E80247
S113063081E20E94E80280E20E94E80282E00E94D5
S1130640E8028BED0E94E80280E30E94E8028DEA52
S11306500E94E80280E00E94E80284EA0E94E80224
S113066086EA0E94E8028FEA0E94E80208958091D7
S1130670F80188235CF4E7EFF1E0805881838081FE
S11306808F5F8083883010F01092F70108951F93D4
S1130690CF93DF9310EE180FC0E0D0E01CC0E12F21
S11306A0F0E0EE0FFF1FEE0FFF1FEE0FFF1FEC0F2A
S11306B0FD1FE457FF4F859194910E94EE028091B3
S11306C0160190911701E7EFF1E09181890F818381
S11306D00E94370321968091160190911701C81743
S11306E0D907ECF280E090E0DF91CF911F9108955B
S11306F0CF93C82F80E20E94E8028C2F0E94E80268
S1130700CF910895CF93C82F883078F48093F70160
S113071082E090E00E94780380EB8C0F0E94E80254
S113072080E090E00E94780306C086E991E00E9490
S1130730EF0580E090E0CF910895CF93DF93C82F29
S11307408823B4F08093F80182E090E00E9478035B
S1130750DC2FD295DF708C2F8F700E94E80280E12D
S11307608D0F0E94E80280E090E00E94780306C0AA
S113077089EA91E00E94EF0580E090E0DF91CF915B
S11307800895CF93C62F0E9482038C2F0E949D034D
S1130790CF91089560E070E080E090E00E94C10392
S11307A00895CF93DF93D82F60E070E090E00E942B
S11307B0C103C0E004C080E00E94EE02CF5FCC23FE
S11307C0D4F78D2F0E948203DF91CF910895CF93A8
S11307D0C0E005C08C2F90E00E94D103CF5FC830E9
S11307E0C8F30E94CA03CF9108950E94C10388E10F
S11307F00E94EE0288E10E94EE028EE70E94EE0261
S11308008CE30E94EE0288E10E94EE020895CF93E9
S1130810DF93CDB7DEB7AE014B5F5F4FFA01619155
S11308207191AF0188E091E00E941F06DF91CF91A2
S11308300895FC0101900020E9F73197E81BF90BBA
S113084080911601909117018E9F90018F9F300D1A
S11308509E9F300D11243695279580E4821B0E94BB
S11308609D03089501978730910508F071C0885C55
S11308709F4FFC010C9488058EEB91E00E941904B3
S11308808EEB91E09F938F930E94070469E081E0CF
S11308900E94C10388EC91E09F938F930E94070408
S11308A069E082E00E94C1038DEC91E09F938F93F5
S11308B00E94070469E083E00E94C10389ED91E08E
S11308C09F938F930E9407048DB79EB708960FB627
S11308D0F8949EBF0FBE8DBF089588EC91E00E94EE
S11308E0190488EC91E09F938F930E9407040F9062
S11308F00F9008958DEC91E00E9419048DEC91E025
S11309009F938F930E9407040F900F90089589ED91
S113091091E00E94190489ED91E09F938F930E94C6
S113092007040F900F90089585E090E09093FC01E8
S11309308093FB01089586E090E09093FC018093FE
S1130940FB01089587E090E09093FC018093FB0104
S113095008958091F5019091F601019731F080910D
S11309601C0190911D01019761F480911E019091E9
S11309701F019093FA018093F90110921D011092C6
S11309801C018091F9019091FA010E943204809136
S1130990EC019091ED01883C9105DCF48091E40137
S11309A09091E501019731F08091E6019091E70182
S11309B0019779F48091EC019091ED0185369105D0
S11309C024F01092E5011092E4011092E7011092D4
S11309D0E6018091EC019091ED01883C9105ECF0E9
S11309E08091E6019091E701892BB9F48091FD0192
S11309F09091FE0101979093FE018093FD0121E007
S1130A0030E03093E7012093E601892B31F487E04D
S1130A1090E09093FE018093FD018091EC01909110
S1130A20ED0185369105ECF48091E4019091E501A6
S1130A30892BB9F48091FD019091FE010196909368
S1130A40FE018093FD0121E030E03093E501209325
S1130A50E401089731F481E090E09093FE018093E3
S1130A60FD01E091FD01F091FE013197E730F105C0
S1130A70A0F5E15CFF4F0C94880581E090E0909331
S1130A801F0180931E0129C082E090E090931F0112
S1130A9080931E0122C083E090E090931F01809315
S1130AA01E011BC084E090E090931F0180931E01FF
S1130AB014C085E090E090931F0180931E010DC047
S1130AC086E090E090931F0180931E0106C087E0AA
S1130AD090E090931F0180931E0160E080911E01BD
S1130AE00E94F50308952BB12D7F2BB990BD89B9D0
S1130AF088E18AB98EE880BD08955D9BFECF8CB9EC
S1130B0080E090E008955D9BFECF8CB190E0089565
S1130B10EE0FFF1F0590F491E02D09940F931F939E
S1130B20CF93DF93009731F46115710519F480E0D8
S1130B3090E03AC08B01EC016EE070E081E090E05F
S1130B400E940008FC01892B91F380E8838301153E
S1130B50110571F01387028781E883838091FF0177
S1130B6090910002892B21F4F0930002E093FF019D
S1130B702097C9F0D187C087838182608383809165
S1130B80010290910202892B71F4F0930202E09326
S1130B9001028091030290910402892B21F4F093C5
S1130BA00402E0930302CF01DF91CF911F910F91D3
S1130BB00895A0E0B0E0EFEDF5E00C94040AAE0176
S1130BC04B5F5F4FFA0161917191AF018091010216
S1130BD0909102020E941F06E2E00C94200A0F93F7
S1130BE01F93CF93DF93E0910102F09102022381DE
S1130BF021FF1BC08C01D0E0C0E0F80181918F017E
S1130C006091010270910202DB011896ED91FC9152
S1130C101997882331F00995892B79F3DFEFCFEF0A
S1130C20ECCF8AE00995892B19F08FEF9FEF02C072
S1130C308D2F9C2FDF91CF911F910F910895ABE0E1
S1130C40B0E0E5E2F6E00C94F4096C017B018A0162
S1130C50FC0117821682838181FFCCC1CE010196EB
S1130C603C01F6019381F70193FD859193FF8191F6
S1130C707F01882309F4BAC1853239F493FD859143
S1130C8093FF81917F01853229F4B60190E00E949F
S1130C905A09E7CF912C212C312CFFE1F315D8F020
S1130CA08B3279F038F4803279F08332A1F4232D39
S1130CB020611DC08D3261F0803369F4232D2160E1
S1130CC016C0832D8260382EE32DE4603E2E2AC0A8
S1130CD0F32DF8601DC037FC2DC020ED280F2A30FD
S1130CE040F08E32B9F436FC81C1232D2064322EBB
S1130CF019C036FE06C08AE0989E200D1124922E5B
S1130D0011C0EAE02E9E200D1124222EF32DF06254
S1130D103F2E08C08C3621F4832D8068382E02C003
S1130D20883641F4F70193FD859193FF81917F010A
S1130D308111B3CF982F9F7D9554933028F40C5F85
S1130D401F4F9FE399830DC0833631F0833771F0D1
S1130D50833509F059C021C0F801808189830E5F71
S1130D601F4F88248394912C530113C02801F2E06F
S1130D704F0E511CF801A080B18036FE03C0692DCE
S1130D8070E002C06FEF7FEFC5010E944F094C0174
S1130D908201F32DFF773F2E16C0280122E0420E78
S1130DA0511CF801A080B18036FE03C0692D70E0AB
S1130DB002C06FEF7FEFC5010E943D094C01F32D86
S1130DC0F0683F2E820133FC1BC0822D90E0881610
S1130DD09906B0F4B60180E290E00E945A092A9480
S1130DE0F4CFF50137FC859137FE81915F01B6019F
S1130DF090E00E945A0921102A9421E0821A910855
S1130E008114910471F7E8C0843611F0893641F5F4
S1130E10F80137FE07C060817181828193810C5F84
S1130E201F4F08C060817181072E000C880B990B3D
S1130E300E5F1F4FF32DFF763F2E97FF09C090954D
S1130E408095709561957F4F8F4F9F4FF0683F2E2F
S1130E502AE030E0A3010E949609882E861845C036
S1130E60853731F4232D2F7EB22E2AE030E025C0C1
S1130E70932D997FB92E8F36C1F018F4883579F007
S1130E80B5C0803719F0883721F0B0C0E92FE06190
S1130E90BE2EB4FE0DC0FB2DF460BF2E09C034FE7F
S1130EA00AC0292F2660B22E06C028E030E005C013
S1130EB020E130E002C020E132E0F801B7FE07C0D3
S1130EC060817181828193810C5F1F4F06C06081B4
S1130ED0718180E090E00E5F1F4FA3010E9496098C
S1130EE0882E8618FB2DFF773F2E36FE0DC0232D4E
S1130EF02E7FA22E891458F434FE0BC032FC09C094
S1130F00832D8E7EA82E05C0B82CA32C03C0B82C2C
S1130F1001C0B92CA4FE0FC0FE01E80DF11D8081B3
S1130F20803321F49A2D997EA92E09C0A2FE06C011
S1130F30B394B39404C08A2D867809F0B394A3FCC7
S1130F4011C0A0FE06C0B21488F4280C922C9B1881
S1130F500EC0B21460F4B60180E290E00E945A0917
S1130F60B394F7CFB21418F42B1802C0982C212C88
S1130F70A4FE10C0B60180E390E00E945A09A2FECC
S1130F8017C0A1FC03C088E790E002C088E590E0A8
S1130F90B6010CC08A2D867859F0A1FE02C08BE2FE
S1130FA001C080E2A7FC8DE2B60190E00E945A09DC
S1130FB0891438F4B60180E390E00E945A099A94A7
S1130FC0F7CF8A94F301E80DF11D8081B60190E01A
S1130FD00E945A098110F5CF222009F442CEB601AD
S1130FE080E290E00E945A092A94F6CFF6018681A5
S1130FF0978102C08FEF9FEF2B96E2E10C94100AC9
S11310000F931F93CF93DF93869F8001879F100DCB
S1131010969F100D1124C8010E941C08EC01009732
S113102029F0A80160E070E00E944809CE01DF9138
S1131030CF911F910F9108950F931F93CF93DF9337
S11310408230910510F482E090E0E0910702F09183
S1131050080220E030E0A0E0B0E0309719F14081D0
S113106051810281138148175907C8F084179507E5
S113107069F4109731F012960C93129713961C93FF
S113108027C0009307021093080222C021153105DE
S113109019F04217530718F49A01BD01EF01DF015B
S11310A0F801DBCF21153105F9F0281B390B243069
S11310B0310580F48A819B816115710521F0FB0162
S11310C09383828304C09093080280930702FE01F5
S11310D0329644C0FE01E20FF31F81939193225094
S11310E03109398328833AC02091050230910602E0
S11310F0232B41F420910201309103013093060225
S11311002093050220910001309101012115310540
S113111041F42DB73EB74091040150910501241BC1
S1131120350BE0910502F0910602E217F307A0F4F3
S11311302E1B3F0B2817390778F0AC014E5F5F4F29
S11311402417350748F04E0F5F1F50930602409353
S113115005028193919302C0E0E0F0E0CF01DF91BA
S1131160CF911F910F910895CF93DF93009709F4C6
S113117081C0FC01329713821282A0910702B091C0
S11311800802109781F420813181820F931F2091EE
S11311900502309106022817390751F5F09306022B
S11311A0E093050267C0ED0120E030E0CE17DF07D1
S11311B040F44A815B819E0141155105F1F0EA0139
S11311C0F5CFD383C28340815181840F951FC81703
S11311D0D90759F488819981840F951F02969183C8
S11311E080838A819B81938382832115310529F42D
S11311F0F0930802E09307023DC0E901FB83EA8310
S113120049915991C40FD51FEC17FD0761F48081F2
S11312109181840F951F0296E901998388838281C5
S113122093819B838A83E0E0F0E012968D919C91F8
S11312301397009719F0FD01DC01F7CF8D919C9174
S113124011979D012E5F3F4F820F931F209105023E
S1131250309106022817390769F4309729F410925F
S113126008021092070202C013821282B09306028F
S1131270A0930502DF91CF910895FC010590615080
S113128070400110D8F7809590958E0F9F1F089598
S1131290DC0101C06D9341505040E0F70895FC011A
S11312A06150704001900110D8F7809590958E0F91
S11312B09F1F08950F931F93CF93DF93FB01238107
S11312C021FD03C08FEF9FEF2CC022FF16C0468183
S11312D05781248135814217530744F4A081B18199
S11312E09D012F5F3F4F318320838C93268137816B
S11312F02F5F3F4F3783268314C08B01EC01FB0122
S11313000084F185E02D0995892BE1F6D801169624
S11313108D919C911797019617969C938E9316978F
S1131320CE01DF91CF911F910F910895FA01AA2761
S1131330283051F1203181F1E8946F936E7F6E5F14
S11313407F4F8F4F9F4FAF4FB1E03ED0B4E03CD0C2
S1131350670F781F891F9A1FA11D680F791F8A1FA5
S1131360911DA11D6A0F711D811D911DA11D20D00C
S113137009F468943F912AE0269F11243019305DC6
S11313803193DEF6CF010895462F4770405D4193B7
S1131390B3E00FD0C9F7F6CF462F4F70405D4A3304
S11313A018F0495D31FD4052419302D0A9F7EACFCC
S11313B0B4E0A6959795879577956795BA95C9F7FB
S11313C000976105710508959B01AC010A2E0694EE
S11313D05795479537952795BA95C9F7620F731FA7
S11313E0841F951FA01D08952F923F924F925F92E4
S11313F06F927F928F929F92AF92BF92CF92DF9221
S1131400EF92FF920F931F93CF93DF93CDB7DEB785
S1131410CA1BDB0B0FB6F894DEBF0FBECDBF099419
S11314202A88398848885F846E847D848C849B8470
S1131430AA84B984C884DF80EE80FD800C811B817E
S1131440AA81B981CE0FD11D0FB6F894DEBF0FBEAD
S10D1450CDBFED010895F894FFCF1D
S113145A000009022000001400000002000000003D
S113146A47030000000008000012001001000100F8
S113147A4A6F7920593A2025642C09004A6F792049
S113148A583A2025642C09004C65667420536C690B
S113149A6465723A2025642C202009005269676821
S11314AA7420536C696465723A2025642C09004CD3
S11314BA65667420427574746F6E3A2025642C2014
S11314CA0900526967687420627574746F6E3A20F1
S11314DA25642C09004A6F7920627574746F6E3A18
S11314EA2025640A0D004C696E65206F7574206F9F
S11314FA6620626F756E647300436F6C756D6E203F
S113150A6F7574206F6620626F756E6473004D6127
S113151A696E206D656E7500506C61790048696763
S113152A682073636F7265730044696666696375DC
S107153A6C74790050
S9030000FC
