S01600004279676765726E5F736F757263652E7372656350
S11300000C9438000C949A030C9483030C945500BC
S11300100C9455000C9455000C9455000C94550008
S11300200C9455000C9455000C9455000C945500F8
S11300300C9455000C9455000C9455000C945700E6
S11300400C9455000C9455000C9455000C945500D8
S11300500C9455000C9455000C9455000C945500C8
S11300600C9455000C9455000C9455000C945500B8
S113007011241FBECFEFD4E0DEBFCDBF12E0A0E05D
S1130080B1E0E0EEF8E102C005900D92AC3DB1079D
S1130090D9F723E0ACEDB2E001C01D92AF31B20755
S11300A0E1F70E9495040C946E0C0C9400001F92CE
S11300B00F920FB60F9211242F933F934F935F9398
S11300C06F937F938F939F93AF93BF93CF93DF935C
S11300D0EF93FF93E0910601F0910701108289EFFD
S11300E090E00197F1F700C00000E0910601F09163
S11300F00701808190E09093F4028093F302808161
S113010090E09093130380931203808190E0909386
S1130110E2028093E102808190E09093F002809368
S1130120EF0280B382FB882780F980930C0380B3AD
S113013083FB882780F98093F50280B382958695A6
S1130140877091E089278170809314038091F30272
S11301509091F402C091E702D091E8028C179D07B8
S113016054F56091F3027091F402072E000C880B91
S1130170990B0E94B006209104033091050340912D
S11301800603509107030E943C0720E030E048EC4E
S113019052E40E9406062091E3023091E402409169
S11301A0E5025091E6020E949A050E947806709337
S11301B0F2026093F1028091F3029091F4028C17A1
S11301C09D0754F16091F3027091F402072E000C24
S11301D0880B990B0E94B0062091FA023091FB0221
S11301E04091FC025091FD020E943C0720E030E067
S11301F048EC52E40E9406062091EB023091EC0296
S11302004091ED025091EE020E949A050E947806F8
S11302107093F2026093F1028091120390911303A0
S1130220C0910203D09103038C179D0754F560918C
S1130230120370911303072E000C880B990B0E9474
S1130240B006209108033091090340910A035091AC
S11302500B030E943C0720E030E048EC52E40E948B
S113026006062091FE023091FF0240910003509156
S113027001030E949A050E9478067093EA02609333
S1130280E90280911203909113038C179D0754F196
S11302906091120370911303072E000C880B990BC5
S11302A00E94B00620910E0330910F034091100379
S11302B0509111030E943C0720E030E048EC52E4E6
S11302C00E9406062091F6023091F7024091F8024E
S11302D05091F9020E949A050E9478067093EA02EE
S11302E06093E9028091E9029091EA028C3F9F4F6A
S11302F054F08091E9029091EA02059724F4109257
S1130300EA021092E9028091F1029091F2028C3F8C
S11303109F4F54F08091F1029091F202059724F4DA
S11303201092F2021092F102FF91EF91DF91CF91BE
S1130330BF91AF919F918F917F916F915F914F91F9
S11303403F912F910F900FBE0F901F9018956F92B1
S11303507F928F929F92AF92BF92CF92DF92EF9251
S1130360FF920F931F93CF93DF9383E480938B00CB
S113037081E180938A0082E090E0909387008093EB
S1130380860081B3806181BB83EC99E00197F1F72A
S113039000C0000020E030E0C0E0D0E030C0E091D8
S11303A00601F0910701108289EF90E00197F1F7BF
S11303B000C00000E0910601F091070140818091A6
S11303C0DC029091DD02840F911D9093DD028093F5
S11303D0DC0240818091DE029091DF02840F911D46
S11303E09093DF028093DE028081808189EF90E028
S11303F00197F1F700C0000021962F5F3F4F24368C
S113040031056CF28091DC029091DD02BE010E9404
S1130410A907262F372F609302037093030380915B
S1130420DE029091DF02BE010E94A9076093E702F9
S11304307093E8027F936F933F932F938AE091E048
S11304409F938F930E941C08009102031091030351
S113045066246A94712C7301E01AF10AC0E1D7E2B0
S1130460CE01B7010E94A907072E000C880B990B37
S11304700E94B0064B015C0160930E0370930F035E
S113048080931003909311032CE920036001219FB2
S1130490D00C1124C601B7010E94A9077B01072EC5
S11304A0000C880B990B0E94B0066093F6027093BF
S11304B0F7028093F8029093F902CE01B8010E94EA
S11304C0A907072E000C880B990B0E94B0066093B5
S11304D008037093090380930A0390930B03C601E6
S11304E0B8010E94A907072E000C880B990B0E94E3
S11304F0B0066093FE027093FF0280930003909312
S113050001030091E7021091E802601A710ACE011A
S1130510B3010E94A907072E000C880B990B0E94B7
S1130520B0066093FA027093FB028093FC029093EE
S1130530FD022CE920036001219FD00C1124C60187
S1130540B3010E94A907072E000C880B990B0E9487
S1130550B0066093EB027093EC028093ED029093EB
S1130560EE02CE01B8010E94A907072E000C880BE9
S1130570990B0E94B0066093040370930503809363
S1130580060390930703C601B8010E94A907072E2A
S1130590000C880B990B0E94B0066093E3027093E1
S11305A0E4028093E5029093E60220E030E04AE71B
S11305B054E4C501B4010E943C07FF92EF920E94EB
S11305C078067F936F9386E191E09F938F930E94C7
S11305D01C0820E030E04AE754E46091080370917D
S11305E0090380910A0390910B030E943C076B015D
S11305F07C016091FE027091FF0280910003909152
S113060001030E9478067F936F93C701B6010E948D
S113061078067F936F9389E291E09F938F930E9472
S11306201C0820E030E04AE754E46091FA0270913B
S1130630FB028091FC029091FD020E943C076B0139
S11306407C016091EB027091EC028091ED0290913B
S1130650EE020E9478067F936F93C701B6010E9451
S113066078067F936F938CE391E09F938F930E941E
S11306701C0820E030E04AE754E4609104037091E0
S1130680050380910603909107030E943C076B01C8
S11306907C016091E3027091E4028091E502909103
S11306A0E6020E9478067F936F93C701B6010E9409
S11306B078067F936F938FE491E09F938F930E94CA
S11306C01C081FBC82E08EBD80E889BF7894E0914D
S11306D00601F091070110828DB79EB74E960FB6B2
S11306E0F8949EBF0FBE8DBFDF91CF911F910F91E4
S11306F0FF90EF90DF90CF90BF90AF909F908F903E
S11307007F906F9008951F920F920FB60F9211244D
S11307108F93EF93FF93E0910601F091070180819D
S113072080930D03FF91EF918F910F900FBE0F9067
S11307301F9018951F920F920FB60F9211242F93AA
S11307403F934F935F936F937F938F939F93AF9355
S1130750BF93EF93FF9381E08093E00282E691E000
S11307609F938F930E941C080F900F90FF91EF911D
S1130770BF91AF919F918F917F916F915F914F91B5
S11307803F912F910F900FBE0F901F9018950E94CC
S11307905604F89485B7836085BF80E48BBF789452
S11307A060E88FE00E94340461E08BE20E9434042C
S11307B063E08AE20E94340461EB89E20E9434041B
S11307C065E088E20E94340460E08FE00E94340413
S11307D008950F931F93CF938C01FC01608181E3F3
S11307E00E943404F80161816295660F607E82E3A1
S11307F00E943404F801628185E30E943404C0E05D
S113080009C0F801EC0FF11D638186E38C0F0E948F
S11308103404CF5FC830A8F383EC99E00197F1F773
S113082000C000000E941D0481E80E947B050E9414
S11308301F04CF911F910F91089518BA089580E174
S113084088BB0895CF93C82F0E941D0483E00E94A3
S11308507B058C2F0E947B050E947F05C82F0E9478
S11308601F048C2FCF910895CF93DF93D82FC62FD9
S11308700E941D0482E00E947B058D2F0E947B054F
S11308808C2F0E947B050E941F04DF91CF91089555
S11308900E941D0480EC0E947B050E941F0483ECCF
S11308A099E00197F1F700C000000895CF930E94EA
S11308B073050E9448048EE00E942204807E8038E2
S11308C061F01F928F9386E891E09F938F930E942B
S11308D01C080F900F900F900F9060E08FE00E9423
S11308E034048EE00E942204C82F1F928F938CEC54
S11308F091E09F938F930E941C08C07E0F900F90ED
S11309000F900F9081F01F92CF9381ED91E09F9310
S11309108F930E941C0886E192E00E9432080F9097
S11309200F900F900F90CF910895CF93DF93CDB791
S1130930DEB72B970FB6F894DEBF0FBECDBF80E8AD
S113094085BF8FE190E00E94840564E975E08EE83C
S113095095E00E94D1070E94A7010E9430050E94E1
S1130960C7038FEF89838A8387E08B838091F102A9
S11309709091F2028C598C838091E9029091EA0261
S11309808C598D838091EF029091F0028E83809137
S1130990E1029091E2028F8380910C038887809119
S11309A0140389878091F5028A87CE0101960E94FB
S11309B0E90383EC99E00197F1F700C00000A091EE
S11309C01403F0910C03E091F5026091E10270913F
S11309D0E2024091EF025091F0022091E90230913D
S11309E0EA028091F1029091F2021F92AF931F925A
S11309F0FF931F92EF937F936F935F934F933F9374
S1130A002F939F938F9389E192E09F938F930E94FA
S1130A101C086A85598548853F812E819D818C817A
S1130A201F926F931F925F931F924F931F923F9356
S1130A301F922F931F929F931F928F938FE792E0A1
S1130A409F938F930E941C080FB6F894DEBF0FBECD
S1130A50CDBF87CFE0910801F0910901808308950B
S1130A608EEA0E942A0581EA0E942A058AED0E94E4
S1130A702A0582E10E942A0588EC0E942A0588EA58
S1130A800E942A058FE30E942A0585ED0E942A050B
S1130A9080E80E942A0581E80E942A0580E50E94D8
S1130AA02A0589ED0E942A0581E20E942A0580E236
S1130AB00E942A0582E00E942A058BED0E942A05E5
S1130AC080E30E942A058DEA0E942A0580E00E94A4
S1130AD02A0584EA0E942A0586EA0E942A058FEAEA
S1130AE00E942A05089580EB87BB81E58DB988B300
S1130AF0806188BB08958FB9779BFECF08951FB896
S1130B00779BFECF8FB108952BB12D7F2BB990BD6C
S1130B1089B988E18AB98EE880BD08955D9BFECFCE
S1130B208CB980E090E008955D9BFECF8CB190E09D
S1130B3008955058BB27AA270E94B1050C940207B8
S1130B400E94F40638F00E94FB0620F039F49F3F1F
S1130B5019F426F40C94F1060EF4E095E7FB0C94DA
S1130B60EB06E92F0E94130758F3BA1762077307BD
S1130B708407950720F079F4A6F50C9435070EF454
S1130B80E0950B2EBA2FA02D0B01B90190010C0199
S1130B90CA01A0011124FF27591B99F0593F50F4B1
S1130BA0503E68F11A16F040A22F232F342F442709
S1130BB0585FF3CF469537952795A795F040539501
S1130BC0C9F77EF41F16BA0B620B730B840BBAF0D1
S1130BD09150A1F0FF0FBB1F661F771F881FC2F73C
S1130BE00EC0BA0F621F731F841F48F48795779550
S1130BF06795B795F7959E3F08F0B0CF9395880F0A
S1130C0008F09927EE0F9795879508950E941A0684
S1130C100C9402070E94FB0658F00E94F40640F070
S1130C2029F45F3F29F00C94EB0651110C9436071C
S1130C300C94F1060E94130768F39923B1F355232A
S1130C4091F3951B550BBB27AA27621773078407DB
S1130C5038F09F5F5F4F220F331F441FAA1FA9F371
S1130C6035D00E2E3AF0E0E832D091505040E6955F
S1130C70001CCAF72BD0FE2F29D0660F771F881FC0
S1130C80BB1F261737074807AB07B0E809F0BB0BB3
S1130C90802DBF01FF2793585F4F3AF09E3F5105C7
S1130CA078F00C94EB060C9436075F3FE4F3983E1F
S1130CB0D4F3869577956795B795F7959F5FC9F7B0
S1130CC0880F911D9695879597F90895E1E0660F31
S1130CD0771F881FBB1F621773078407BA0720F0AA
S1130CE0621B730B840BBA0BEE1F88F7E095089513
S1130CF00E947F066894B1110C94360708950E94EF
S1130D001B0788F09F5798F0B92F9927B751B0F077
S1130D10E1F0660F771F881F991F1AF0BA95C9F77B
S1130D2014C0B13091F00E943507B1E008950C94DD
S1130D303507672F782F8827B85F39F0B93FCCF390
S1130D40869577956795B395D9F73EF490958095F8
S1130D50709561957F4F8F4F9F4F0895E89409C018
S1130D6097FB3EF490958095709561957F4F8F4FDA
S1130D709F4F9923A9F0F92F96E9BB279395F695F0
S1130D80879577956795B795F111F8CFFAF4BB0F6E
S1130D9011F460FF1BC06F5F7F4F8F4F9F4F16C0D2
S1130DA0882311F096E911C0772321F09EE8872F5C
S1130DB0762F05C0662371F096E8862F70E060E018
S1130DC02AF09A95660F771F881FDAF7880F969591
S1130DD0879597F9089597F99F6780E870E060E038
S1130DE008959FEF80EC089500240A9416161706C0
S1130DF018060906089500240A9412161306140608
S1130E0005060895092E0394000C11F4882352F06A
S1130E10BB0F40F4BF2B11F460FF04C06F5F7F4F22
S1130E208F4F9F4F089557FD9058440F551F59F009
S1130E305F3F71F04795880F97FB991F61F09F3FC3
S1130E4079F087950895121613061406551FF2CFEC
S1130E504695F1DF08C0161617061806991FF1CF3C
S1130E6086957105610508940895E894BB27662763
S1130E707727CB0197F908950E944F070C94020736
S1130E800E94F40638F00E94FB0620F0952311F02E
S1130E900C94EB060C94F10611240C9436070E9472
S1130EA0130770F3959FC1F3950F50E0551F629F90
S1130EB0F001729FBB27F00DB11D639FAA27F00DAF
S1130EC0B11DAA1F649F6627B00DA11D661F829FD6
S1130ED02227B00DA11D621F739FB00DA11D621FBB
S1130EE0839FA00D611D221F749F3327A00D611DD8
S1130EF0231F849F600D211D822F762F6A2F1124BA
S1130F009F5750409AF0F1F088234AF0EE0FFF1FEC
S1130F10BB1F661F771F881F91505040A9F79E3F43
S1130F20510580F00C94EB060C9436075F3FE4F314
S1130F30983ED4F3869577956795B795F795E79599
S1130F409F5FC1F7FE2B880F911D9695879597F9A2
S1130F50089597FB072E16F4009407D077FD09D067
S1130F600E94BD0707FC05D03EF4909581959F4FE4
S1130F700895709561957F4F0895AA1BBB1B51E19D
S1130F8007C0AA1FBB1FA617B70710F0A61BB70BF5
S1130F90881F991F5A95A9F780959095BC01CD019A
S1130FA008950F931F93CF93DF93009731F4611546
S1130FB0710519F480E090E03AC08B01EC016EE019
S1130FC070E081E090E00E94430AFC01892B91F3D8
S1130FD080E883830115110571F01387028781E886
S1130FE083838091150390911603892B21F4F09348
S1130FF01603E09315032097C9F0D187C087838136
S1131000826083838091170390911803892B71F474
S1131010F0931803E09317038091190390911A0336
S1131020892B21F4F0931A03E0931903CF01DF9184
S1131030CF911F910F910895A0E0B0E0E2E2F8E0B3
S11310400C94470CAE014B5F5F4FFA0161917191B3
S1131050AF0180911703909118030E946208E2E0A7
S11310600C94630C0F931F93CF93DF93E0911703BA
S1131070F0911803238121FF1BC08C01D0E0C0E054
S1131080F80181918F016091170370911803DB01BE
S11310901896ED91FC911997882331F00995892BC5
S11310A079F3DFEFCFEFECCF8AE00995892B19F0C4
S11310B08FEF9FEF02C08D2F9C2FDF91CF911F9157
S11310C00F910895ABE0B0E0E8E6F8E00C94370C3B
S11310D06C017B018A01FC0117821682838181FFE6
S11310E0CCC1CE0101963C01F6019381F70193FD39
S11310F0859193FF81917F01882309F4BAC18532D8
S113110039F493FD859193FF81917F01853229F410
S1131110B60190E00E949D0BE7CF912C212C312C3D
S1131120FFE1F315D8F08B3279F038F4803279F09E
S11311308332A1F4232D20611DC08D3261F08033F0
S113114069F4232D216016C0832D8260382EE32D8F
S1131150E4603E2E2AC0F32DF8601DC037FC2DC07C
S113116020ED280F2A3040F08E32B9F436FC81C1CC
S1131170232D2064322E19C036FE06C08AE0989EC4
S1131180200D1124922E11C0EAE02E9E200D112470
S1131190222EF32DF0623F2E08C08C3621F4832DCD
S11311A08068382E02C0883641F4F70193FD85919A
S11311B093FF81917F018111B3CF982F9F7D955427
S11311C0933028F40C5F1F4F9FE399830DC083363F
S11311D031F0833771F0833509F059C021C0F8012B
S11311E0808189830E5F1F4F88248394912C53013F
S11311F013C02801F2E04F0E511CF801A080B18009
S113120036FE03C0692D70E002C06FEF7FEFC501A9
S11312100E94920B4C018201F32DFF773F2E16C0E2
S1131220280122E0420E511CF801A080B18036FE54
S113123003C0692D70E002C06FEF7FEFC5010E940B
S1131240800B4C01F32DF0683F2E820133FC1BC050
S1131250822D90E088169906B0F4B60180E290E001
S11312600E949D0B2A94F4CFF50137FC859137FE3B
S113127081915F01B60190E00E949D0B21102A9498
S113128021E0821A91088114910471F7E8C0843630
S113129011F0893641F5F80137FE07C0608171818C
S11312A0828193810C5F1F4F08C060817181072E7A
S11312B0000C880B990B0E5F1F4FF32DFF763F2E0A
S11312C097FF09C090958095709561957F4F8F4FDA
S11312D09F4FF0683F2E2AE030E0A3010E94D90B13
S11312E0882E861845C0853731F4232D2F7EB22EE3
S11312F02AE030E025C0932D997FB92E8F36C1F0B6
S113130018F4883579F0B5C0803719F0883721F0A2
S1131310B0C0E92FE061BE2EB4FE0DC0FB2DF46019
S1131320BF2E09C034FE0AC0292F2660B22E06C083
S113133028E030E005C020E130E002C020E132E0E6
S1131340F801B7FE07C060817181828193810C5FCF
S11313501F4F06C06081718180E090E00E5F1F4FD7
S1131360A3010E94D90B882E8618FB2DFF773F2EF0
S113137036FE0DC0232D2E7FA22E891458F434FE80
S11313800BC032FC09C0832D8E7EA82E05C0B82C5C
S1131390A32C03C0B82C01C0B92CA4FE0FC0FE01BD
S11313A0E80DF11D8081803321F49A2D997EA92EB8
S11313B009C0A2FE06C0B394B39404C08A2D8678F3
S11313C009F0B394A3FC11C0A0FE06C0B21488F4C3
S11313D0280C922C9B180EC0B21460F4B60180E263
S11313E090E00E949D0BB394F7CFB21418F42B181D
S11313F002C0982C212CA4FE10C0B60180E390E01A
S11314000E949D0BA2FE17C0A1FC03C088E790E0D8
S113141002C088E590E0B6010CC08A2D867859F0A8
S1131420A1FE02C08BE201C080E2A7FC8DE2B601FE
S113143090E00E949D0B891438F4B60180E390E09B
S11314400E949D0B9A94F7CF8A94F301E80DF11D45
S11314508081B60190E00E949D0B8110F5CF22207F
S113146009F442CEB60180E290E00E949D0B2A94DA
S1131470F6CFF6018681978102C08FEF9FEF2B96FE
S1131480E2E10C94530C0F931F93CF93DF93869F49
S11314908001879F100D969F100D1124C8010E9492
S11314A05F0AEC01009729F0A80160E070E00E9457
S11314B08B0BCE01DF91CF911F910F9108950F9364
S11314C01F93CF93DF938230910510F482E090E074
S11314D0E0911D03F0911E0320E030E0A0E0B0E0B5
S11314E0309719F1408151810281138148175907BE
S11314F0C8F08417950769F4109731F012960C938D
S1131500129713961C9327C000931D0310931E0378
S113151022C02115310519F04217530718F49A0116
S1131520BD01EF01DF01F801DBCF21153105F9F031
S1131530281B390B2430310580F48A819B81611585
S1131540710521F0FB019383828304C090931E03F1
S113155080931D03FE01329644C0FE01E20FF31F87
S11315608193919322503109398328833AC0209181
S11315701B0330911C03232B41F420910201309171
S1131580030130931C0320931B032091000130912D
S113159001012115310541F42DB73EB740910401F5
S11315A050910501241B350BE0911B03F0911C03A2
S11315B0E217F307A0F42E1B3F0B2817390778F026
S11315C0AC014E5F5F4F2417350748F04E0F5F1F85
S11315D050931C0340931B038193919302C0E0E05A
S11315E0F0E0CF01DF91CF911F910F910895CF9338
S11315F0DF93009709F481C0FC01329713821282B1
S1131600A0911D03B0911E03109781F420813181B4
S1131610820F931F20911B0330911C032817390755
S113162051F5F0931C03E0931B0367C0ED0120E028
S113163030E0CE17DF0740F44A815B819E014115FB
S11316405105F1F0EA01F5CFD383C2834081518182
S1131650840F951FC817D90759F488819981840F7D
S1131660951F0296918380838A819B8193838283D1
S11316702115310529F4F0931E03E0931D033DC0A9
S1131680E901FB83EA8349915991C40FD51FEC17F3
S1131690FD0761F480819181840F951F0296E90111
S11316A099838883828193819B838A83E0E0F0E03D
S11316B012968D919C911397009719F0FD01DC010E
S11316C0F7CF8D919C9111979D012E5F3F4F820F13
S11316D0931F20911B0330911C032817390769F4C9
S11316E0309729F410921E0310921D0302C0138236
S11316F01282B0931C03A0931B03DF91CF91089532
S1131700FC010590615070400110D8F780959095C8
S11317108E0F9F1F0895DC0101C06D93415050400E
S1131720E0F70895FC016150704001900110D8F772
S1131730809590958E0F9F1F08950F931F93CF93BD
S1131740DF93FB01238121FD03C08FEF9FEF2CC0AA
S113175022FF16C0468157812481358142175307E1
S113176044F4A081B1819D012F5F3F4F31832083D9
S11317708C93268137812F5F3F4F3783268314C094
S11317808B01EC01FB010084F185E02D0995892B87
S1131790E1F6D80116968D919C91179701961796AC
S11317A09C938E931697CE01DF91CF911F910F9149
S11317B00895FA01AA27283051F1203181F1E894E3
S11317C06F936E7F6E5F7F4F8F4F9F4FAF4FB1E030
S11317D03ED0B4E03CD0670F781F891F9A1FA11D2B
S11317E0680F791F8A1F911DA11D6A0F711D811D2C
S11317F0911DA11D20D009F468943F912AE0269FF1
S113180011243019305D3193DEF6CF010895462F4F
S11318104770405D4193B3E00FD0C9F7F6CF462F30
S11318204F70405D4A3318F0495D31FD4052419399
S113183002D0A9F7EACFB4E0A69597958795779556
S11318406795BA95C9F700976105710508959B01DD
S1131850AC010A2E06945795479537952795BA9566
S1131860C9F7620F731F841F951FA01D08952F923F
S11318703F924F925F926F927F928F929F92AF921C
S1131880BF92CF92DF92EF92FF920F931F93CF9369
S1131890DF93CDB7DEB7CA1BDB0B0FB6F894DEBF00
S11318A00FBECDBF09942A88398848885F846E8426
S11318B07D848C849B84AA84B984C884DF80EE8070
S11318C0FD800C811B81AA81B981CE0FD11D0FB679
S11318D0F894DEBF0FBECDBFED010895F894FFCF9D
S11318E000001F032000001400100A0A0D202564C4
S11318F0202564200A00506F7320783A2025642A3A
S113190078202B2025640A0D004E656720783A2044
S113191025642A78202B2025640A0D00506F73203B
S1131920793A2025642A79202B2025640A0D004E5B
S1131930656720793A2025642A79202B2025640ABA
S11319400D00466C61670049443A20257825782CBF
S113195020444C433A2025782C20446174615B3840
S11319605D3A202578004D43503235313520697376
S1131970204E4F5420696E20436F6E6669677572FE
S11319806174696F6E206D6F646520616674657241
S1131990207265736574212049747320636F6E66C9
S11319A069672062697473206172652025780A0D65
S11319B0004D435032353135206973204E4F542049
S11319C0696E20636F7272656374206D6F64652045
S11319D0616674657220726573657421204974733D
S11319E020636F6E66696720626974732061726533
S11319F02025780A0D000A21006A6F79793A20259A
S1131A00642C206A6F79783A2025642C20736C69E1
S1131A106465724C6566743A2025642C20536C69A5
S1131A2064657252696768743A2025642C2072696F
S1131A30676874627574746F6E3A2025642C204C48
S1131A40656674627574746F6E3A2025642C204A3E
S1131A506F79627574746F6E3A2025640A0D0064A0
S1131A606174615B305D3A2025642C20646174618B
S1131A705B315D3A2025642C20646174615B325DC6
S1131A803A2025642C20646174615B335D3A20251F
S1131A90642C20646174615B345D3A2025642C20DD
S1131AA0646174615B355D3A2025642C2064617443
S10F1AB0615B365D3A2025640A0A0D00D3
S9030000FC
