S01600004279676765726E5F736F757263652E7372656350
S11300000C9438000C948E030C9455000C945500F9
S11300100C9455000C9455000C9455000C94550008
S11300200C9455000C9455000C9455000C945500F8
S11300300C9455000C9455000C9455000C945700E6
S11300400C9455000C9455000C9455000C945500D8
S11300500C9455000C9455000C9455000C945500C8
S11300600C9455000C9455000C9455000C945500B8
S113007011241FBECFEFD4E0DEBFCDBF12E0A0E05D
S1130080B1E0EAE5F9E102C005900D92A03BB107A9
S1130090D9F722E0A0EBB2E001C01D92A63FB2075F
S11300A0E1F70E94C3040C94AB0C0C9400001F9263
S11300B00F920FB60F9211242F933F934F935F9398
S11300C06F937F938F939F93AF93BF93CF93DF935C
S11300D0EF93FF93E0910601F0910701108289EFFD
S11300E090E00197F1F700C00000E0910601F09163
S11300F00701808190E09093C8028093C7028081B9
S113010090E09093E9028093E802808190E09093DC
S1130110B6028093B502808190E09093C4028093EC
S1130120C30280B382FB662760F970E07093E20239
S11301306093E10280B383FB442740F950E050937D
S1130140CA024093C90280B382958695877091E074
S11301508927282F217030E03093EB022093EA02A4
S11301608091C7029091C802C091BB02D091BC0299
S11301708C179D0754F56091C7027091C802072E31
S1130180000C880B990B0E94ED062091D902309146
S1130190DA024091DB025091DC020E94790720E0F0
S11301A030E048EC52E40E9443062091B7023091BB
S11301B0B8024091B9025091BA020E94D7050E9438
S11301C0B5067093C6026093C5028091C7029091F0
S11301D0C8028C179D0754F16091C7027091C80240
S11301E0072E000C880B990B0E94ED062091CF027C
S11301F03091D0024091D1025091D2020E947907ED
S113020020E030E048EC52E40E9443062091BF0213
S11302103091C0024091C1025091C2020E94D705A0
S11302200E94B5067093C6026093C5028091E802ED
S11302309091E902C091D702D091D8028C179D0702
S113024054F56091E8027091E902072E000C880BC6
S1130250990B0E94ED062091DD023091DE0240915F
S1130260DF025091E0020E94790720E030E048EC80
S113027052E40E9443062091D3023091D40240916B
S1130280D5025091D6020E94D7050E94B5067093FC
S1130290BE026093BD028091E8029091E9028C173E
S11302A09D0754F16091E8027091E902072E000C59
S11302B0880B990B0E94ED062091E4023091E5022F
S11302C04091E6025091E7020E94790720E030E075
S11302D048EC52E40E9443062091CB023091CC02B8
S11302E04091CD025091CE020E94D7050E94B506DE
S11302F07093BE026093BD028091BD029091BE02D4
S11303008C3F9F4F54F08091BD029091BE0205979F
S113031024F41092BE021092BD028091C502909105
S1130320C6028C3F9F4F54F08091C5029091C60243
S1130330059724F41092C6021092C502FF91EF9122
S1130340DF91CF91BF91AF919F918F917F916F91E9
S11303505F914F913F912F910F900FBE0F901F907F
S113036018956F927F928F929F92AF92BF92CF9285
S1130370DF92EF92FF920F931F93CF93DF9383E467
S113038080938B0081E180938A0082E090E09093D7
S113039087008093860081B3806181BB83EC99E000
S11303A00197F1F700C0000020E030E0C0E0D0E0A9
S11303B030C0E0910601F0910701108289EF90E0CE
S11303C00197F1F700C00000E0910601F0910701E8
S11303D040818091B0029091B102840F911D90935D
S11303E0B1028093B00240818091B2029091B30235
S11303F0840F911D9093B3028093B2028081808117
S113040089EF90E00197F1F700C0000021962F5F7B
S11304103F4F243631056CF28091B0029091B102C5
S1130420BE010E94E607262F372F6093D7027093F0
S1130430D8028091B2029091B302BE010E94E607F5
S11304406093BB027093BC027F936F933F932F938F
S11304508AE091E09F938F930E9459080091D702FC
S11304601091D80266246A94712C7301E01AF10A7F
S1130470C0E1D7E2CE01B7010E94E607072E000CC7
S1130480880B990B0E94ED064B015C016093E4021A
S11304907093E5028093E6029093E7022CE920032F
S11304A06001219FD00C1124C601B7010E94E60708
S11304B07B01072E000C880B990B0E94ED066093BC
S11304C0CB027093CC028093CD029093CE02CE01E6
S11304D0B8010E94E607072E000C880B990B0E94B6
S11304E0ED066093DD027093DE028093DF02909349
S11304F0E002C601B8010E94E607072E000C880B33
S1130500990B0E94ED066093D3027093D4028093FA
S1130510D5029093D6020091BB021091BC02601ADE
S1130520710ACE01B3010E94E607072E000C880B66
S1130530990B0E94ED066093CF027093D0028093D2
S1130540D1029093D2022CE920036001219FD00CA8
S11305501124C601B3010E94E607072E000C880B84
S1130560990B0E94ED066093BF027093C0028093C2
S1130570C1029093C202CE01B8010E94E607072E81
S1130580000C880B990B0E94ED066093D9027093BE
S1130590DA028093DB029093DC02C601B8010E9468
S11305A0E607072E000C880B990B0E94ED0660935A
S11305B0B7027093B8028093B9029093BA0220E014
S11305C030E04AE754E4C501B4010E947907FF9280
S11305D0EF920E94B5067F936F9386E191E09F931B
S11305E08F930E94590820E030E04AE754E4609178
S11305F0DD027091DE028091DF029091E0020E94A0
S113060079076B017C016091D3027091D4028091CF
S1130610D5029091D6020E94B5067F936F93C701CD
S1130620B6010E94B5067F936F9389E291E09F9390
S11306308F930E94590820E030E04AE754E4609127
S1130640CF027091D0028091D1029091D2020E9487
S113065079076B017C016091BF027091C0028091A7
S1130660C1029091C2020E94B5067F936F93C701A5
S1130670B6010E94B5067F936F938CE391E09F933C
S11306808F930E94590820E030E04AE754E46091D7
S1130690D9027091DA028091DB029091DC020E940F
S11306A079076B017C016091B7027091B802809167
S11306B0B9029091BA020E94B5067F936F93C70165
S11306C0B6010E94B5067F936F938FE491E09F93E8
S11306D08F930E945908F8941FBC82E08EBD80E875
S11306E089BF7894E0910601F091070110828DB7DB
S11306F09EB74E960FB6F8949EBF0FBE8DBFDF9186
S1130700CF911F910F91FF90EF90DF90CF90BF900A
S1130710AF909F908F907F906F9008951F920F924B
S11307200FB60F9211242F933F934F935F936F93C0
S11307307F938F939F93AF93BF93EF93FF9381E046
S11307408093B40282E691E09F938F930E945908AC
S11307500F900F90FF91EF91BF91AF919F918F9167
S11307607F916F915F914F913F912F910F900FBEA9
S11307700F901F9018950E948304F89485B78360A6
S113078085BF80E48BBF789460E88FE00E946104A9
S113079061E08BE20E94610463E08AE20E946104EA
S11307A061EB89E20E94610465E088E20E946104D1
S11307B060E08FE00E94610408950F931F93CF932C
S11307C08C01FC0131852281918180811F923F93AC
S11307D01F922F931F929F931F928F9387E691E00E
S11307E09F938F930E94590883EC99E00197F1F746
S11307F000C00000F801608181E30E94610483EC81
S113080099E00197F1F700C00000F8016181629559
S1130810660F607E82E30E94610483EC99E0019795
S1130820F1F700C00000F801628185E30E946104D1
S113083083EC99E00197F1F700C00000EDB7FEB733
S11308403A960FB6F894FEBF0FBEEDBFC0E00FC0DE
S1130850F801EC0FF11D638186E38C0F0E946104A3
S113086089EF90E00197F1F700C00000CF5FC83036
S113087078F3E3ECF9E03197F1F700C000000E944F
S11308804A0481E80E94B8050E944C04CF911F914C
S11308900F91089518BA089580E188BB0895CF9305
S11308A0C82F0E944A0483E00E94B8058C2F0E943E
S11308B0B8050E94BC05C82F0E944C048C2FCF9110
S11308C00895CF93DF93D82FC62F0E944A0482E065
S11308D00E94B8058D2F0E94B8058C2F0E94B80580
S11308E00E944C04DF91CF9108950E944A0480EC49
S11308F00E94B8050E944C0483EC99E00197F1F73B
S113090000C000000895CF930E94B0050E947504B2
S11309108EE00E944F04807E803861F01F928F9396
S113092087EA91E09F938F930E9459080F900F904C
S11309300F900F9060E48FE00E9461048EE00E94AB
S11309404F04C82F1F928F9383E891E09F938F9356
S11309500E945908C07E0F900F900F900F90C034E2
S113096081F01F92CF9382EF91E09F938F930E9427
S1130970590887E392E00E946F080F900F900F9040
S11309800F90CF910895CF93DF93CDB7DEB72B9718
S11309900FB6F894DEBF0FBECDBF80E885BF8FE1F0
S11309A090E00E94C10561ED75E08BEC95E00E943A
S11309B00E080E94B1010E946D050E94BB0381E0F4
S11309C089838A8387E08B838091C5029091C602D4
S11309D08C598C838091BD029091BE028C598D8379
S11309E08091C3029091C4028E838091B50290914C
S11309F0B6028F838091E1029091E2028887809110
S1130A00EA029091EB0289878091C9029091CA020F
S1130A108A87CE0101960E94DD038091C5029091E0
S1130A20C6029F938F938AE392E09F938F930E94D1
S1130A3059088091BD029091BE029F938F9386E4E2
S1130A4092E09F938F930E9459088091C3029091E2
S1130A50C4029F938F9382E592E09F938F930E94A9
S1130A6059088091B5029091B6029F938F9386E6C0
S1130A7092E09F938F930E9459088091C9029091AC
S1130A80CA029F938F9389E792E09F938F930E946A
S1130A9059088091E1029091E2029F938F938CE830
S1130AA092E09F938F930E9459088091EA0290915B
S1130AB0EB029F938F938FE992E09F938F930E9411
S1130AC059080FB6F894DEBF0FBECDBF78CFE091C2
S1130AD00801F0910901808308958EEA0E94670558
S1130AE081EA0E9467058AED0E94670582E10E94FF
S1130AF0670588EC0E94670588EA0E9467058FE312
S1130B000E94670585ED0E94670580E80E946705DD
S1130B1081E80E94670580E50E94670589ED0E94CF
S1130B20670581E20E94670580E20E94670582E012
S1130B300E9467058BED0E94670580E30E946705AC
S1130B408DEA0E94670580E00E94670584EA0E949E
S1130B50670586EA0E9467058FEA0E946705089583
S1130B6080EB87BB81E58DB988B3806188BB08952C
S1130B708FB9779BFECF08951FB8779BFECF8FB1B7
S1130B8008952BB12D7F2BB990BD89B988E18AB91D
S1130B908EE880BD08955D9BFECF8CB980E090E027
S1130BA008955D9BFECF8CB190E008955058BB270B
S1130BB0AA270E94EE050C943F070E94310738F0E3
S1130BC00E94380720F039F49F3F19F426F40C945E
S1130BD02E070EF4E095E7FB0C942807E92F0E94FA
S1130BE0500758F3BA17620773078407950720F074
S1130BF079F4A6F50C9472070EF4E0950B2EBA2F37
S1130C00A02D0B01B90190010C01CA01A00111240E
S1130C10FF27591B99F0593F50F4503E68F11A16BA
S1130C20F040A22F232F342F4427585FF3CF46954B
S1130C3037952795A795F0405395C9F77EF41F166D
S1130C40BA0B620B730B840BBAF09150A1F0FF0F37
S1130C50BB1F661F771F881FC2F70EC0BA0F621F23
S1130C60731F841F48F4879577956795B795F79513
S1130C709E3F08F0B0CF9395880F08F09927EE0FA8
S1130C809795879508950E9457060C943F070E94F4
S1130C90380758F00E94310740F029F45F3F29F0EB
S1130CA00C94280751110C9473070C942E070E947E
S1130CB0500768F39923B1F3552391F3951B550B12
S1130CC0BB27AA2762177307840738F09F5F5F4F1B
S1130CD0220F331F441FAA1FA9F335D00E2E3AF05A
S1130CE0E0E832D091505040E695001CCAF72BD072
S1130CF0FE2F29D0660F771F881FBB1F26173707C3
S1130D004807AB07B0E809F0BB0B802DBF01FF27F4
S1130D1093585F4F3AF09E3F510578F00C942807A2
S1130D200C9473075F3FE4F3983ED4F3869577956C
S1130D306795B795F7959F5FC9F7880F911D9695AD
S1130D40879597F90895E1E0660F771F881FBB1F09
S1130D50621773078407BA0720F0621B730B840BB6
S1130D60BA0BEE1F88F7E09508950E94BC066894BC
S1130D70B1110C94730708950E94580788F09F5787
S1130D8098F0B92F9927B751B0F0E1F0660F771FAB
S1130D90881F991F1AF0BA95C9F714C0B13091F0A1
S1130DA00E947207B1E008950C947207672F782FA0
S1130DB08827B85F39F0B93FCCF386957795679566
S1130DC0B395D9F73EF490958095709561957F4FD2
S1130DD08F4F9F4F0895E89409C097FB3EF4909578
S1130DE08095709561957F4F8F4F9F4F9923A9F000
S1130DF0F92F96E9BB279395F6958795779567958F
S1130E00B795F111F8CFFAF4BB0F11F460FF1BC0D2
S1130E106F5F7F4F8F4F9F4F16C0882311F096E965
S1130E2011C0772321F09EE8872F762F05C0662313
S1130E3071F096E8862F70E060E02AF09A95660FCC
S1130E40771F881FDAF7880F9695879597F9089585
S1130E5097F99F6780E870E060E008959FEF80EC69
S1130E60089500240A94161617061806090608950C
S1130E7000240A9412161306140605060895092E72
S1130E800394000C11F4882352F0BB0F40F4BF2BE1
S1130E9011F460FF04C06F5F7F4F8F4F9F4F089521
S1130EA057FD9058440F551F59F05F3F71F0479517
S1130EB0880F97FB991F61F09F3F79F087950895FC
S1130EC0121613061406551FF2CF4695F1DF08C01B
S1130ED0161617061806991FF1CF86957105610538
S1130EE008940895E894BB2766277727CB0197F9E0
S1130EF008950E948C070C943F070E94310738F034
S1130F000E94380720F0952311F00C9428070C94C4
S1130F102E0711240C9473070E94500770F3959FB9
S1130F20C1F3950F50E0551F629FF001729FBB27DC
S1130F30F00DB11D639FAA27F00DB11DAA1F649F78
S1130F406627B00DA11D661F829F2227B00DA11D2B
S1130F50621F739FB00DA11D621F839FA00D611DB1
S1130F60221F749F3327A00D611D231F849F600DD2
S1130F70211D822F762F6A2F11249F5750409AF0FB
S1130F80F1F088234AF0EE0FFF1FBB1F661F771F87
S1130F90881F91505040A9F79E3F510580F00C9452
S1130FA028070C9473075F3FE4F3983ED4F38695C7
S1130FB077956795B795F795E7959F5FC1F7FE2BF2
S1130FC0880F911D9695879597F9089597FB072E9D
S1130FD016F4009407D077FD09D00E94FA0707FCA5
S1130FE005D03EF4909581959F4F08957095619535
S1130FF07F4F0895AA1BBB1B51E107C0AA1FBB1F4B
S1131000A617B70710F0A61BB70B881F991F5A9590
S1131010A9F780959095BC01CD0108950F931F9376
S1131020CF93DF93009731F46115710519F480E0D3
S113103090E03AC08B01EC016EE070E081E090E05A
S11310400E94800AFC01892B91F380E883830115B7
S1131050110571F01387028781E883838091EC0284
S11310609091ED02892B21F4F093ED02E093EC02D0
S11310702097C9F0D187C087838182608383809160
S1131080EE029091EF02892B71F4F093EF02E0935A
S1131090EE028091F0029091F102892B21F4F093F9
S11310A0F102E093F002CF01DF91CF911F910F91F4
S11310B00895A0E0B0E0EFE5F8E00C94840CAE01F4
S11310C04B5F5F4FFA0161917191AF018091EE0224
S11310D09091EF020E949F08E2E00C94A00C0F9301
S11310E01F93CF93DF93E091EE02F091EF022381FF
S11310F021FF1BC08C01D0E0C0E0F80181918F0179
S11311006091EE027091EF02DB011896ED91FC9173
S11311101997882331F00995892B79F3DFEFCFEF05
S1131120ECCF8AE00995892B19F08FEF9FEF02C06D
S11311308D2F9C2FDF91CF911F910F910895ABE0DC
S1131140B0E0E5EAF8E00C94740C6C017B018A01D0
S1131150FC0117821682838181FFCCC1CE010196E6
S11311603C01F6019381F70193FD859193FF8191F1
S11311707F01882309F4BAC1853239F493FD85913E
S113118093FF81917F01853229F4B60190E00E949A
S1131190DA0BE7CF912C212C312CFFE1F315D8F099
S11311A08B3279F038F4803279F08332A1F4232D34
S11311B020611DC08D3261F0803369F4232D2160DC
S11311C016C0832D8260382EE32DE4603E2E2AC0A3
S11311D0F32DF8601DC037FC2DC020ED280F2A30F8
S11311E040F08E32B9F436FC81C1232D2064322EB6
S11311F019C036FE06C08AE0989E200D1124922E56
S113120011C0EAE02E9E200D1124222EF32DF0624F
S11312103F2E08C08C3621F4832D8068382E02C0FE
S1131220883641F4F70193FD859193FF81917F0105
S11312308111B3CF982F9F7D9554933028F40C5F80
S11312401F4F9FE399830DC0833631F0833771F0CC
S1131250833509F059C021C0F801808189830E5F6C
S11312601F4F88248394912C530113C02801F2E06A
S11312704F0E511CF801A080B18036FE03C0692DC9
S113128070E002C06FEF7FEFC5010E94CF0B4C01ED
S11312908201F32DFF773F2E16C0280122E0420E73
S11312A0511CF801A080B18036FE03C0692D70E0A6
S11312B002C06FEF7FEFC5010E94BD0B4C01F32DFF
S11312C0F0683F2E820133FC1BC0822D90E088160B
S11312D09906B0F4B60180E290E00E94DA0B2A94F9
S11312E0F4CFF50137FC859137FE81915F01B6019A
S11312F090E00E94DA0B21102A9421E0821A9108CE
S11313008114910471F7E8C0843611F0893641F5EF
S1131310F80137FE07C060817181828193810C5F7F
S11313201F4F08C060817181072E000C880B990B38
S11313300E5F1F4FF32DFF763F2E97FF09C0909548
S11313408095709561957F4F8F4F9F4FF0683F2E2A
S11313502AE030E0A3010E94160C882E861845C0AE
S1131360853731F4232D2F7EB22E2AE030E025C0BC
S1131370932D997FB92E8F36C1F018F4883579F002
S1131380B5C0803719F0883721F0B0C0E92FE0618B
S1131390BE2EB4FE0DC0FB2DF460BF2E09C034FE7A
S11313A00AC0292F2660B22E06C028E030E005C00E
S11313B020E130E002C020E132E0F801B7FE07C0CE
S11313C060817181828193810C5F1F4F06C06081AF
S11313D0718180E090E00E5F1F4FA3010E94160C04
S11313E0882E8618FB2DFF773F2E36FE0DC0232D49
S11313F02E7FA22E891458F434FE0BC032FC09C08F
S1131400832D8E7EA82E05C0B82CA32C03C0B82C27
S113141001C0B92CA4FE0FC0FE01E80DF11D8081AE
S1131420803321F49A2D997EA92E09C0A2FE06C00C
S1131430B394B39404C08A2D867809F0B394A3FCC2
S113144011C0A0FE06C0B21488F4280C922C9B187C
S11314500EC0B21460F4B60180E290E00E94DA0B90
S1131460B394F7CFB21418F42B1802C0982C212C83
S1131470A4FE10C0B60180E390E00E94DA0BA2FE45
S113148017C0A1FC03C088E790E002C088E590E0A3
S1131490B6010CC08A2D867859F0A1FE02C08BE2F9
S11314A001C080E2A7FC8DE2B60190E00E94DA0B55
S11314B0891438F4B60180E390E00E94DA0B9A9420
S11314C0F7CF8A94F301E80DF11D8081B60190E015
S11314D00E94DA0B8110F5CF222009F442CEB60126
S11314E080E290E00E94DA0B2A94F6CFF60186811E
S11314F0978102C08FEF9FEF2B96E2E10C94900C42
S11315000F931F93CF93DF93869F8001879F100DC6
S1131510969F100D1124C8010E949C0AEC010097AB
S113152029F0A80160E070E00E94C80BCE01DF91B1
S1131530CF911F910F9108950F931F93CF93DF9332
S11315408230910510F482E090E0E091F402F09191
S1131550F50220E030E0A0E0B0E0309719F14081DE
S113156051810281138148175907C8F084179507E0
S113157069F4109731F012960C93129713961C93FA
S113158027C00093F4021093F50222C021153105FF
S113159019F04217530718F49A01BD01EF01DF0156
S11315A0F801DBCF21153105F9F0281B390B243064
S11315B0310580F48A819B816115710521F0FB015D
S11315C09383828304C09093F5028093F402FE0116
S11315D0329644C0FE01E20FF31F8193919322508F
S11315E03109398328833AC02091F2023091F30201
S11315F0232B41F420910201309103013093F30233
S11316002093F2022091000130910101211531054E
S113161041F42DB73EB74091040150910501241BBC
S1131620350BE091F202F091F302E217F307A0F414
S11316302E1B3F0B2817390778F0AC014E5F5F4F24
S11316402417350748F04E0F5F1F5093F302409361
S1131650F2028193919302C0E0E0F0E0CF01DF91C8
S1131660CF911F910F910895CF93DF93009709F4C1
S113167081C0FC01329713821282A091F402B091CE
S1131680F502109781F420813181820F931F2091FC
S1131690F2023091F3022817390751F5F093F3025F
S11316A0E093F20267C0ED0120E030E0CE17DF07DF
S11316B040F44A815B819E0141155105F1F0EA0134
S11316C0F5CFD383C28340815181840F951FC817FE
S11316D0D90759F488819981840F951F02969183C3
S11316E080838A819B81938382832115310529F428
S11316F0F093F502E093F4023DC0E901FB83EA8331
S113170049915991C40FD51FEC17FD0761F48081ED
S11317109181840F951F0296E901998388838281C0
S113172093819B838A83E0E0F0E012968D919C91F3
S11317301397009719F0FD01DC01F7CF8D919C916F
S113174011979D012E5F3F4F820F931F2091F2024C
S11317503091F3022817390769F4309729F410926D
S1131760F5021092F40202C013821282B093F302C3
S1131770A093F202DF91CF910895FC01059061508E
S113178070400110D8F7809590958E0F9F1F089593
S1131790DC0101C06D9341505040E0F70895FC0115
S11317A06150704001900110D8F7809590958E0F8C
S11317B09F1F08950F931F93CF93DF93FB01238102
S11317C021FD03C08FEF9FEF2CC022FF16C046817E
S11317D05781248135814217530744F4A081B18194
S11317E09D012F5F3F4F318320838C932681378166
S11317F02F5F3F4F3783268314C08B01EC01FB011D
S11318000084F185E02D0995892BE1F6D80116961F
S11318108D919C911797019617969C938E9316978A
S1131820CE01DF91CF911F910F910895FA01AA275C
S1131830283051F1203181F1E8946F936E7F6E5F0F
S11318407F4F8F4F9F4FAF4FB1E03ED0B4E03CD0BD
S1131850670F781F891F9A1FA11D680F791F8A1FA0
S1131860911DA11D6A0F711D811D911DA11D20D007
S113187009F468943F912AE0269F11243019305DC1
S11318803193DEF6CF010895462F4770405D4193B2
S1131890B3E00FD0C9F7F6CF462F4F70405D4A33FF
S11318A018F0495D31FD4052419302D0A9F7EACFC7
S11318B0B4E0A6959795879577956795BA95C9F7F6
S11318C000976105710508959B01AC010A2E0694E9
S11318D05795479537952795BA95C9F7620F731FA2
S11318E0841F951FA01D08952F923F924F925F92DF
S11318F06F927F928F929F92AF92BF92CF92DF921C
S1131900EF92FF920F931F93CF93DF93CDB7DEB780
S1131910CA1BDB0B0FB6F894DEBF0FBECDBF099414
S11319202A88398848885F846E847D848C849B846B
S1131930AA84B984C884DF80EE80FD800C811B8179
S1131940AA81B981CE0FD11D0FB6F894DEBF0FBEA8
S10D1950CDBFED010895F894FFCF18
S113195A0000F6022000001400100A0A0D20256473
S113196A202564200A00506F7320783A2025642ABF
S113197A78202B2025640A0D004E656720783A20CA
S113198A25642A78202B2025640A0D00506F7320C1
S113199A793A2025642A79202B2025640A0D004EE1
S11319AA656720793A2025642A79202B2025640A40
S11319BA0D00466C61670049443A20257825782C45
S11319CA20444C433A2025782C20446174615B38C6
S11319DA5D3A2025780A0D0049443A20257825786D
S11319EA2C20444C433A2025782C20446174615BB2
S11319FA385D3A202578004D435032353135206917
S1131A0A73204E4F5420696E20436F6E6669677562
S1131A1A726174696F6E206D6F64652061667465A6
S1131A2A72207265736574212049747320636F6E22
S1131A3A6669672062697473206172652025780A71
S1131A4A0D004D435032353135206973204E4F54C1
S1131A5A20696E20636F7272656374206D6F6465AA
S1131A6A20616674657220726573657421204974F5
S1131A7A7320636F6E66696720626974732061728A
S1131A8A652025780A0D000A21004A6F7920593AFF
S1131A9A2025642C09004A6F7920583A2025642CA1
S1131AAA09004C65667420536C696465723A202592
S1131ABA642C20200900526967687420536C696495
S1131ACA65723A2025642C09004C656674204275B7
S1131ADA74746F6E3A2025642C2009005269676871
S1131AEA7420627574746F6E3A2025642C09004A56
S1131AFA6F7920627574746F6E3A2025640A0D003A
S9030000FC
