S01600004279676765726E5F736F757263652E7372656350
S11300000C94B4010C94D1010C944E020C94D101C3
S11300100C94D1010C94D1010C94D1010C94D10114
S11300200C94D1010C94D1010C94D1010C94D10104
S11300300C94D1010C94D1010C94D1010C94D301F2
S11300400C94D1010C94D1010C94D1010C94D101E4
S11300500C94D1010C94D1010C94D1010C94D101D4
S11300600C94D1010C94D1010C94D1010C94D101C4
S1130070000000000000000000065F5F06000000B2
S11300800007070007070000147F7F147F7F140018
S1130090242E6B6B3A120000466630180C66620020
S11300A0307A4F5D377A48000407030000000000EF
S11300B0001C3E63410000000041633E1C00000040
S11300C0082A3E1C1C3E2A0808083E3E0808000078
S11300D000A0E0600000000008080808080800000C
S11300E000006060000000006030180C060301008E
S11300F03E7F594D7F3E000042427F7F40400000DA
S1130100627359496F660000226349497F360000D3
S1130110181C16137F7F1000276745457D390000A2
S11301203C7E4B4979300000036371190F070000CE
S1130130367F49497F360000064F49693F1E00005B
S113014000006C6C0000000000A0EC6C00000000DB
S1130150081C366341000000141414141414000025
S1130160004163361C080000020351590F060000C9
S11301703E7F415D5D1F1E007C7E13137E7C00006C
S1130180417F7F49497F36001C3E63414163220021
S1130190417F7F41637F1C00417F7F495D41630054
S11301A0417F7F491D0103001C3E6341517372006E
S11301B07F7F08087F7F000000417F7F41000000AF
S11301C0307040417F3F0100417F7F081C7763000E
S11301D0417F7F41406070007F7F060C067F7F0077
S11301E07F7F060C187F7F001C3E6341633E1C002A
S11301F0417F7F49090F06001E3F21717F5E000089
S1130200417F7F19396F460026674D597B320000C4
S113021003417F7F410300007F7F40407F7F0000D8
S11302201F3F60603F1F00007F7F3018307F7F00DA
S113023063771C081C776300074F78784F0700002A
S11302406773594D47637100007F7F41410000008F
S11302500103060C183060000041417F7F0000005C
S1130260080C0603060C0800808080808080808053
S11302700000030704000000207454543C7840003C
S1130280413F7F44447C3800387C44446C2800005F
S1130290307848493F7F4000387C54545C18000053
S11302A0487E7F490302000098BCA4A4F87C0400A3
S11302B0417F7F08047C780000447D7D400000007D
S11302C040C484FD7D000000417F7F10386C4400F1
S11302D000417F7F400000007C7C0C180C7C78007F
S11302E07C7C04047C780000387C44447C38000026
S11302F084FCF8A4243C1800183C24A4F8FC8400D2
S1130300447C78441C180000485C54547424000055
S113031000043E7F442400003C7C40403C7C400080
S11303201C3C60603C1C00003C7C6030607C3C00F9
S1130330446C3810386C44009CBCA0A0FC7C0000C9
S11303404C64745C4C64000008083E774141000032
S113035000000077770000004141773E0808000064
S1130360020301030203010011241FBECFEFD4E0F6
S1130370DEBFCDBF11E0A0E0B1E0E2E6F1E102C0F2
S113038005900D92A03EB107D9F721E0A0EEB1E0AF
S113039001C01D92AB3FB207E1F70E9465020C94C5
S11303A0AF080C9400001F920F920FB60F92112405
S11303B02F933F934F935F936F937F938F939F9369
S11303C0EF93FF93E0910601F0910701808190E0A3
S11303D09093E5018093E401808190E09093EC0197
S11303E08093EB01808190E09093E1018093E001A0
S11303F0808190E09093E3018093E20180B382FBDB
S1130400662760F970E07093E9016093E80180B3B6
S113041083FB442740F950E05093E7014093E60101
S113042080B382958695877091E08927282F217063
S113043030E03093EE012093ED01108289EF90E0DB
S11304400197F1F700C00000FF91EF919F918F9108
S11304507F916F915F914F913F912F910F900FBEBC
S11304600F901F90189583E480938B0081E1809313
S11304708A0082E090E0909387008093860081B3A5
S1130480806181BB1FBC82E08EBD80E889BF789407
S1130490E0910601F0910701108208951F920F92D6
S11304A00FB60F9211248F93EF93FF93E0910601FF
S11304B0F091070180818093EA01FF91EF918F9180
S11304C00F900FBE0F901F90189580E885BF8FE1A5
S11304D090E00E94FD036DE074E087E094E00E94E8
S11304E0120480E090E00E9433020E94EA028091AC
S11304F0E4019091E5019F938F938CE191E09F93A8
S11305008F930E945D048091EB019091EC019F9385
S11305108F9388E291E09F938F930E945D04809172
S1130520E2019091E3019F938F9384E391E09F9381
S11305308F930E945D048091E0019091E1019F936B
S11305408F9388E491E09F938F930E945D04809140
S1130550E6019091E7019F938F938BE591E09F9340
S11305608F930E945D048091E8019091E9019F932B
S11305708F938EE691E09F938F930E945D04809108
S1130580ED019091EE019F938F9381E891E09F9309
S11305908F930E945D040E94DD030E94C00382E9E0
S11305A091E09F938F930E94EB038DB79EB74E9675
S11305B00FB6F8949EBF0FBE8DBF99CFE0911A017C
S11305C0F0911B0180830895E0911801F0911901C5
S11305D0808308958EEA0E94DE0281EA0E94DE0290
S11305E08AED0E94DE0282E10E94DE0288EC0E9413
S11305F0DE0288EA0E94DE028FE30E94DE0285EDBD
S11306000E94DE0280E80E94DE0281E80E94DE028F
S113061080E50E94DE0289ED0E94DE0281E20E94F2
S1130620DE0280E20E94DE0282E00E94DE028BEDA6
S11306300E94DE0280E30E94DE028DEA0E94DE0256
S113064080E00E94DE0284EA0E94DE0286EA0E94C2
S1130650DE028FEA0E94DE0208958091F001882371
S11306605CF4EFEEF1E08058818380818F5F8083BA
S1130670883010F01092EF0108951F93CF93DF9309
S113068010EE180FC0E0D0E01CC0E12FF0E0EE0F38
S1130690FF1FEE0FFF1FEE0FFF1FEC0FFD1FE059B2
S11306A0FF4F859194910E94E402809116019091EC
S11306B01701EFEEF1E09181890F81830E942D03F0
S11306C021968091160190911701C817D907ECF271
S11306D080E090E0DF91CF911F910895CF93C82FD0
S11306E080E20E94DE028C2F0E94DE02CF910895E8
S11306F0CF93C82F883078F48093EF0182E090E0A4
S11307000E946E0380EB8C0F0E94DE0280E090E07A
S11307100E946E0306C087EB91E00E94730480E0A0
S113072090E0CF910895CF93DF93C82F8823B4F03E
S11307308093F00182E090E00E946E03DC2FD2955A
S1130740DF708C2F8F700E94DE0280E18D0F0E947B
S1130750DE0280E090E00E946E0306C08AEC91E025
S11307600E94730480E090E0DF91CF910895CF93CD
S1130770C62F0E9478038C2F0E949303CF91089573
S113078060E070E080E090E00E94B7030895CF93AA
S1130790DF93D82F60E070E090E00E94B703C0E0E0
S11307A004C080E00E94E402CF5FCC23D4F78D2FF5
S11307B00E947803DF91CF910895CF93C0E005C0E4
S11307C08C2F90E00E94C703CF5FC830C8F30E940B
S11307D0C003CF910895CF93DF93CDB7DEB7AE01B9
S11307E04B5F5F4FFA0161917191AF0188E091E035
S11307F00E94A304DF91CF9108952BB12D7F2BB9D3
S113080090BD89B988E18AB98EE880BD08955D9B61
S1130810FECF8CB980E090E008955D9BFECF8CB153
S113082090E008950F931F93CF93DF93009731F4D3
S11308306115710519F480E090E03AC08B01EC0178
S11308406EE070E081E090E00E948406FC01892B58
S113085091F380E883830115110571F013870287F2
S113086081E883838091F1019091F201892B21F435
S1130870F093F201E093F1012097C9F0D187C0878A
S11308808381826083838091F3019091F401892BA9
S113089071F4F093F401E093F3018091F5019091E8
S11308A0F601892B21F4F093F601E093F501CF01D1
S11308B0DF91CF911F910F910895A0E0B0E0E3E69E
S11308C0F4E00C948808AE014B5F5F4FFA0161912C
S11308D07191AF018091F3019091F4010E94A304FE
S11308E0E2E00C94A4080F931F93CF93DF93E0915D
S11308F0F301F091F401238121FF1BC08C01D0E0AE
S1130900C0E0F80181918F016091F3017091F401CD
S1130910DB011896ED91FC911997882331F0099524
S1130920892B79F3DFEFCFEFECCF8AE00995892BA0
S113093019F08FEF9FEF02C08D2F9C2FDF91CF9185
S11309401F910F910895ABE0B0E0E9EAF4E00C9454
S113095078086C017B018A01FC011782168283816D
S113096081FFCCC1CE0101963C01F6019381F701D0
S113097093FD859193FF81917F01882309F4BAC186
S1130980853239F493FD859193FF81917F018532FE
S113099029F4B60190E00E94DE07E7CF912C212CC8
S11309A0312CFFE1F315D8F08B3279F038F4803232
S11309B079F08332A1F4232D20611DC08D3261F0C2
S11309C0803369F4232D216016C0832D8260382E74
S11309D0E32DE4603E2E2AC0F32DF8601DC037FCE1
S11309E02DC020ED280F2A3040F08E32B9F436FCA9
S11309F081C1232D2064322E19C036FE06C08AE040
S1130A00989E200D1124922E11C0EAE02E9E200DF6
S1130A101124222EF32DF0623F2E08C08C3621F4CF
S1130A20832D8068382E02C0883641F4F70193FD87
S1130A30859193FF81917F018111B3CF982F9F7D81
S1130A409554933028F40C5F1F4F9FE399830DC096
S1130A50833631F0833771F0833509F059C021C0F2
S1130A60F801808189830E5F1F4F88248394912C21
S1130A70530113C02801F2E04F0E511CF801A0806D
S1130A80B18036FE03C0692D70E002C06FEF7FEFC6
S1130A90C5010E94D3074C018201F32DFF773F2E3D
S1130AA016C0280122E0420E511CF801A080B1803A
S1130AB036FE03C0692D70E002C06FEF7FEFC50101
S1130AC00E94C1074C01F32DF0683F2E820133FCD4
S1130AD01BC0822D90E088169906B0F4B60180E21E
S1130AE090E00E94DE072A94F4CFF50137FC85914B
S1130AF037FE81915F01B60190E00E94DE0721106C
S1130B002A9421E0821A91088114910471F7E8C0B3
S1130B10843611F0893641F5F80137FE07C060814B
S1130B207181828193810C5F1F4F08C06081718144
S1130B30072E000C880B990B0E5F1F4FF32DFF76C9
S1130B403F2E97FF09C090958095709561957F4FD2
S1130B508F4F9F4FF0683F2E2AE030E0A3010E94A0
S1130B601A08882E861845C0853731F4232D2F7E28
S1130B70B22E2AE030E025C0932D997FB92E8F360E
S1130B80C1F018F4883579F0B5C0803719F088378A
S1130B9021F0B0C0E92FE061BE2EB4FE0DC0FB2DE4
S1130BA0F460BF2E09C034FE0AC0292F2660B22E7D
S1130BB006C028E030E005C020E130E002C020E1BA
S1130BC032E0F801B7FE07C06081718182819381B0
S1130BD00C5F1F4F06C06081718180E090E00E5F62
S1130BE01F4FA3010E941A08882E8618FB2DFF7739
S1130BF03F2E36FE0DC0232D2E7FA22E891458F4CD
S1130C0034FE0BC032FC09C0832D8E7EA82E05C095
S1130C10B82CA32C03C0B82C01C0B92CA4FE0FC05F
S1130C20FE01E80DF11D8081803321F49A2D997E17
S1130C30A92E09C0A2FE06C0B394B39404C08A2DA1
S1130C40867809F0B394A3FC11C0A0FE06C0B214C8
S1130C5088F4280C922C9B180EC0B21460F4B601D0
S1130C6080E290E00E94DE07B394F7CFB21418F448
S1130C702B1802C0982C212CA4FE10C0B60180E3CE
S1130C8090E00E94DE07A2FE17C0A1FC03C088E723
S1130C9090E002C088E590E0B6010CC08A2D867809
S1130CA059F0A1FE02C08BE201C080E2A7FC8DE2F4
S1130CB0B60190E00E94DE07891438F4B60180E39F
S1130CC090E00E94DE079A94F7CF8A94F301E80D2E
S1130CD0F11D8081B60190E00E94DE078110F5CFFE
S1130CE0222009F442CEB60180E290E00E94DE07A1
S1130CF02A94F6CFF6018681978102C08FEF9FEF89
S1130D002B96E2E10C9494080F931F93CF93DF93F7
S1130D10869F8001879F100D969F100D1124C80196
S1130D200E94A006EC01009729F0A80160E070E0A1
S1130D300E94CC07CE01DF91CF911F910F910895AE
S1130D400F931F93CF93DF938230910510F482E0C9
S1130D5090E0E091F901F091FA0120E030E0A0E0A8
S1130D60B0E0309719F14081518102811381481715
S1130D705907C8F08417950769F4109731F0129653
S1130D800C93129713961C9327C00093F9011093A8
S1130D90FA0122C02115310519F04217530718F43E
S1130DA09A01BD01EF01DF01F801DBCF2115310507
S1130DB0F9F0281B390B2430310580F48A819B819A
S1130DC06115710521F0FB019383828304C0909324
S1130DD0FA018093F901FE01329644C0FE01E20F4C
S1130DE0F31F8193919322503109398328833AC0A8
S1130DF02091F7013091F801232B41F42091020155
S1130E00309103013093F8012093F7012091000100
S1130E10309101012115310541F42DB73EB74091C0
S1130E20040150910501241B350BE091F701F09169
S1130E30F801E217F307A0F42E1B3F0B281739071C
S1130E4078F0AC014E5F5F4F2417350748F04E0F22
S1130E505F1F5093F8014093F7018193919302C06F
S1130E60E0E0F0E0CF01DF91CF911F910F91089561
S1130E70CF93DF93009709F481C0FC01329713826A
S1130E801282A091F901B091FA01109781F42081A6
S1130E903181820F931F2091F7013091F8012817B7
S1130EA0390751F5F093F801E093F70167C0ED01BC
S1130EB020E030E0CE17DF0740F44A815B819E01D9
S1130EC041155105F1F0EA01F5CFD383C283408186
S1130ED05181840F951FC817D90759F488819981C6
S1130EE0840F951F0296918380838A819B819383CB
S1130EF082832115310529F4F093FA01E093F90175
S1130F003DC0E901FB83EA8349915991C40FD51F80
S1130F10EC17FD0761F480819181840F951F02967F
S1130F20E90199838883828193819B838A83E0E0AA
S1130F30F0E012968D919C911397009719F0FD01A2
S1130F40DC01F7CF8D919C9111979D012E5F3F4F4E
S1130F50820F931F2091F7013091F8012817390768
S1130F6069F4309729F41092FA011092F90102C041
S1130F7013821282B093F801A093F701DF91CF910D
S1130F800895FC010590615070400110D8F78095D8
S1130F9090958E0F9F1F0895DC0101C06D93415001
S1130FA05040E0F70895FC01615070400190011039
S1130FB0D8F7809590958E0F9F1F08950F931F93D8
S1130FC0CF93DF93FB01238121FD03C08FEF9FEFBC
S1130FD02CC022FF16C046815781248135814217D7
S1130FE0530744F4A081B1819D012F5F3F4F3183AA
S1130FF020838C93268137812F5F3F4F378326834D
S113100014C08B01EC01FB010084F185E02D0995EE
S1131010892BE1F6D80116968D919C91179701962C
S113102017969C938E931697CE01DF91CF911F91C3
S11310300F910895FA01AA27283051F1203181F146
S1131040E8946F936E7F6E5F7F4F8F4F9F4FAF4FCC
S1131050B1E03ED0B4E03CD0670F781F891F9A1FDF
S1131060A11D680F791F8A1F911DA11D6A0F711D93
S1131070811D911DA11D20D009F468943F912AE09F
S1131080269F11243019305D3193DEF6CF01089587
S1131090462F4770405D4193B3E00FD0C9F7F6CFB8
S11310A0462F4F70405D4A3318F0495D31FD405280
S11310B0419302D0A9F7EACFB4E0A6959795879516
S11310C077956795BA95C9F70097610571050895F5
S11310D09B01AC010A2E06945795479537952795A1
S11310E0BA95C9F7620F731F841F951FA01D089539
S11310F02F923F924F925F926F927F928F929F9224
S1131100AF92BF92CF92DF92EF92FF920F931F9311
S1131110CF93DF93CDB7DEB7CA1BDB0B0FB6F894C2
S1131120DEBF0FBECDBF09942A88398848885F8402
S11311306E847D848C849B84AA84B984C884DF8073
S1131140EE80FD800C811B81AA81B981CE0FD11D57
S11311500FB6F894DEBF0FBECDBFED010895F8942D
S1051160FFCFBB
S11311620000FB0120000014000000020000000047
S11311723D03000000000800001200104A6F7920AD
S1131182593A2025642C09004A6F7920583A2025BF
S1131192642C09004C65667420536C696465723A68
S11311A22025642C20200900526967687420536C3E
S11311B2696465723A2025642C09004C65667420C2
S11311C2427574746F6E3A2025642C2009005269AA
S11311D267687420627574746F6E3A2025642C09F2
S11311E2004A6F7920627574746F6E3A2025640A1E
S11311F20D004920444F4E542057414E5420544F21
S1131202204D414B4520544845204655434B494EB9
S113121247204D454E55004C696E65206F7574200C
S11312226F6620626F756E647300436F6C756D6ECA
S1131232206F7574206F6620626F756E6473000090
S9030000FC
